{
  "contractName": "__unstable__TokenVault",
  "abi": [
    {
      "anonymous": false,
      "inputs": [
        {
          "indexed": false,
          "internalType": "address",
          "name": "recipient",
          "type": "address"
        }
      ],
      "name": "PrimaryTransferred",
      "type": "event"
    },
    {
      "inputs": [],
      "name": "primary",
      "outputs": [
        {
          "internalType": "address",
          "name": "",
          "type": "address"
        }
      ],
      "stateMutability": "view",
      "type": "function"
    },
    {
      "inputs": [
        {
          "internalType": "address",
          "name": "recipient",
          "type": "address"
        }
      ],
      "name": "transferPrimary",
      "outputs": [],
      "stateMutability": "nonpayable",
      "type": "function"
    },
    {
      "inputs": [
        {
          "internalType": "contract IERC20",
          "name": "token",
          "type": "address"
        },
        {
          "internalType": "address",
          "name": "to",
          "type": "address"
        },
        {
          "internalType": "uint256",
          "name": "amount",
          "type": "uint256"
        }
      ],
      "name": "transfer",
      "outputs": [],
      "stateMutability": "nonpayable",
      "type": "function"
    }
  ],
  "bytecode": "0x608060405234801561001057600080fd5b5060006100216100a060201b60201c565b9050806000806101000a81548173ffffffffffffffffffffffffffffffffffffffff021916908373ffffffffffffffffffffffffffffffffffffffff1602179055507f4101e71e974f68df5e9730cc223280b41654676bbb052cdcc735c3337e64d2d98160405161009291906100b7565b60405180910390a150610104565b600033905090565b6100b1816100d2565b82525050565b60006020820190506100cc60008301846100a8565b92915050565b60006100dd826100e4565b9050919050565b600073ffffffffffffffffffffffffffffffffffffffff82169050919050565b6106d4806101136000396000f3fe608060405234801561001057600080fd5b50600436106100415760003560e01c80632348238c14610046578063beabacc814610062578063c6dbdf611461007e575b600080fd5b610060600480360381019061005b91906103c8565b61009c565b005b61007c6004803603810190610077919061041a565b61021b565b005b610086610343565b6040516100939190610553565b60405180910390f35b60008054906101000a900473ffffffffffffffffffffffffffffffffffffffff1673ffffffffffffffffffffffffffffffffffffffff166100db61036c565b73ffffffffffffffffffffffffffffffffffffffff1614610131576040517f08c379a0000000000000000000000000000000000000000000000000000000008152600401610128906105b7565b60405180910390fd5b600073ffffffffffffffffffffffffffffffffffffffff168173ffffffffffffffffffffffffffffffffffffffff1614156101a1576040517f08c379a000000000000000000000000000000000000000000000000000000000815260040161019890610597565b60405180910390fd5b806000806101000a81548173ffffffffffffffffffffffffffffffffffffffff021916908373ffffffffffffffffffffffffffffffffffffffff1602179055507f4101e71e974f68df5e9730cc223280b41654676bbb052cdcc735c3337e64d2d9816040516102109190610553565b60405180910390a150565b60008054906101000a900473ffffffffffffffffffffffffffffffffffffffff1673ffffffffffffffffffffffffffffffffffffffff1661025a61036c565b73ffffffffffffffffffffffffffffffffffffffff16146102b0576040517f08c379a00000000000000000000000000000000000000000000000000000000081526004016102a7906105b7565b60405180910390fd5b8273ffffffffffffffffffffffffffffffffffffffff1663a9059cbb83836040518363ffffffff1660e01b81526004016102eb92919061056e565b602060405180830381600087803b15801561030557600080fd5b505af1158015610319573d6000803e3d6000fd5b505050506040513d601f19601f8201168201806040525081019061033d91906103f1565b50505050565b60008060009054906101000a900473ffffffffffffffffffffffffffffffffffffffff16905090565b600033905090565b60008135905061038381610642565b92915050565b60008151905061039881610659565b92915050565b6000813590506103ad81610670565b92915050565b6000813590506103c281610687565b92915050565b6000602082840312156103da57600080fd5b60006103e884828501610374565b91505092915050565b60006020828403121561040357600080fd5b600061041184828501610389565b91505092915050565b60008060006060848603121561042f57600080fd5b600061043d8682870161039e565b935050602061044e86828701610374565b925050604061045f868287016103b3565b9150509250925092565b610472816105e8565b82525050565b6000610485602a836105d7565b91507f5365636f6e646172793a206e6577207072696d61727920697320746865207a6560008301527f726f2061646472657373000000000000000000000000000000000000000000006020830152604082019050919050565b60006104eb602c836105d7565b91507f5365636f6e646172793a2063616c6c6572206973206e6f74207468652070726960008301527f6d617279206163636f756e7400000000000000000000000000000000000000006020830152604082019050919050565b61054d81610638565b82525050565b60006020820190506105686000830184610469565b92915050565b60006040820190506105836000830185610469565b6105906020830184610544565b9392505050565b600060208201905081810360008301526105b081610478565b9050919050565b600060208201905081810360008301526105d0816104de565b9050919050565b600082825260208201905092915050565b60006105f382610618565b9050919050565b60008115159050919050565b6000610611826105e8565b9050919050565b600073ffffffffffffffffffffffffffffffffffffffff82169050919050565b6000819050919050565b61064b816105e8565b811461065657600080fd5b50565b610662816105fa565b811461066d57600080fd5b50565b61067981610606565b811461068457600080fd5b50565b61069081610638565b811461069b57600080fd5b5056fea26469706673582212206e6f3a4356e0e67e58336a773e7f57f2228ec7046c14fa2d45333ab23851d1d664736f6c63430008000033",
  "immutableReferences": {},
  "source": "// SPDX-License-Identifier: MIT\npragma solidity ^0.8.0;\n\nimport \"./TimedCrowdsale.sol\";\nimport \"../math/SafeMath.sol\";\nimport \"../ownership/Secondary.sol\";\nimport \"../token/IERC20.sol\";\nimport \"../utils/Strings.sol\";\n\n/**\n * @title PostDeliveryCrowdsale\n * @dev Crowdsale that locks tokens from withdrawal until it ends.\n */\nabstract contract PostDeliveryCrowdsale is TimedCrowdsale {\n    using SafeMath for uint256;\n    \n    uint256 private _maxAmount;\n    uint256 _minAmount; \n    uint _maxIcoAmount;\n\n    mapping(address => uint256) private _balances;    \n    __unstable__TokenVault private _vault;\n    \n    uint256 private _totalTokensInVault = 0;\n\n    modifier amountLessThanMax(address beneficiary, uint256 weiAmount) {\n        require(isLessThanMax(beneficiary, weiAmount), \"Total amount exceeds max amount\");\n        _;\n    }\n\n    modifier amountMoreThanMin(uint256 weiAmount) {\n        require(isMoreThanMin(weiAmount), \"Was da los\");\n        _;\n    }\n\n    modifier amountLessThanMaxIco(uint256 weiAmount) {\n        require(isLessThanMaxIco(weiAmount), \"Total amount exceeds max ico amount\");\n        _;\n    }\n\n    constructor(uint256 maxAmount, uint256 minAmount, uint maxIcoAmount) {\n        _vault = new __unstable__TokenVault();\n        _maxAmount = maxAmount;\n        _minAmount = minAmount;\n        _maxIcoAmount = maxIcoAmount;\n    }\n    \n    function isLessThanMax(address beneficiary, uint256 weiAmount) private view returns (bool) {\n        bool allowed = _weiInvested[beneficiary] + weiAmount <= _maxAmount;\n        return allowed;\n    }\n\n    function isMoreThanMin(uint256 weiAmount) private view returns (bool) {\n        bool allowed = weiAmount >= _minAmount;\n        return allowed;\n    }\n\n    function isLessThanMaxIco(uint256 weiAmount) private view returns (bool) {\n        bool allowed = _weiRaised + weiAmount <= _maxAmount;\n        return allowed;\n    }\n\n    /**\n     * @dev Withdraw tokens only after crowdsale ends.\n     * @param beneficiary Whose tokens will be withdrawn.\n     */\n    function withdrawTokens(address beneficiary) public {\n        require(hasClosed(), \"PostDeliveryCrowdsale: not closed\");\n        uint256 amount = _balances[beneficiary];\n        require(amount > 0, \"PostDeliveryCrowdsale: beneficiary is not due any tokens\");\n\n        _balances[beneficiary] = 0;\n        _vault.transfer(token(), beneficiary, amount);\n        _totalTokensInVault = _totalTokensInVault.sub(amount);\n    }\n\n    /**\n     * @return the balance of an account.\n     */\n    function balanceOf(address account) public view returns (uint256) {\n        return _balances[account];\n    }\n\n    function totalTokensInVault() public view returns (uint256) {\n        return _totalTokensInVault;\n    }\n\n    function getMinBuyAmount() public view returns (uint256) {\n        return _minAmount;\n    }\n\n    function getMaxBuyAmount() public view returns (uint256) {\n        return _maxAmount;\n    }\n\n    function getMaxIcoAmount() public view returns (uint256) {\n        return _maxIcoAmount;\n    }\n    \n    /**\n     * @dev Overrides parent by storing due balances, and delivering tokens to the vault instead of the end user. This\n     * ensures that the tokens will be available by the time they are withdrawn (which may not be the case if\n     * `_deliverTokens` was called later).\n     * @param beneficiary Token purchaser\n     * @param tokenAmount Amount of tokens purchased\n     */\n    function _processPurchase(address beneficiary, uint256 tokenAmount) internal virtual override {\n        _balances[beneficiary] = _balances[beneficiary].add(tokenAmount);\n        _deliverTokens(address(_vault), tokenAmount);\n        _totalTokensInVault = _totalTokensInVault.add(tokenAmount);\n    }\n    \n    function _preValidatePurchase(address beneficiary, uint256 weiAmount) internal virtual override amountLessThanMax(beneficiary, weiAmount) amountMoreThanMin(weiAmount) amountLessThanMaxIco(weiAmount) view {\n        super._preValidatePurchase(beneficiary, weiAmount);   \n    }\n\n    function _getVaultAddress() internal view returns(address) {\n        return address(_vault);\n    }\n}\n\n/**\n * @title __unstable__TokenVault\n * @dev Similar to an Escrow for tokens, this contract allows its primary account to spend its tokens as it sees fit.\n * This contract is an internal helper for PostDeliveryCrowdsale, and should not be used outside of this context.\n */\n// solhint-disable-next-line contract-name-camelcase\ncontract __unstable__TokenVault is Secondary {\n    function transfer(IERC20 token, address to, uint256 amount) public onlyPrimary {\n        token.transfer(to, amount);        \n    }\n}\n",
  "sourcePath": "C:\\Users\\pasca\\Documents\\web-dev\\monkeymoon-mobile-rework\\frontend\\src\\contracts\\crowdsale\\PostDeliveryCrowdsale.sol",
  "compiler": {
    "name": "solc",
    "version": "0.8.0+commit.c7dfd78e.Emscripten.clang"
  },
  "schemaVersion": "3.4.4",
  "updatedAt": "2022-01-31T19:31:31.826Z",
  "devdoc": {
    "details": "Similar to an Escrow for tokens, this contract allows its primary account to spend its tokens as it sees fit. This contract is an internal helper for PostDeliveryCrowdsale, and should not be used outside of this context.",
    "kind": "dev",
    "methods": {
      "primary()": {
        "returns": {
          "_0": "the address of the primary."
        }
      },
      "transferPrimary(address)": {
        "details": "Transfers contract to a new primary.",
        "params": {
          "recipient": "The address of new primary."
        }
      }
    },
    "title": "__unstable__TokenVault",
    "version": 1
  },
  "userdoc": {
    "kind": "user",
    "methods": {},
    "version": 1
  }
}