{
  "contractName": "ICO",
  "abi": [
    {
      "inputs": [
        {
          "internalType": "address",
          "name": "tokenAddress",
          "type": "address"
        },
        {
          "internalType": "uint256[]",
          "name": "timestamps",
          "type": "uint256[]"
        },
        {
          "internalType": "uint256[]",
          "name": "rates",
          "type": "uint256[]"
        },
        {
          "internalType": "uint256",
          "name": "maxPruchaseAmount",
          "type": "uint256"
        },
        {
          "internalType": "uint256",
          "name": "minPruchaseAmount",
          "type": "uint256"
        },
        {
          "internalType": "uint256",
          "name": "maxIcoAmount",
          "type": "uint256"
        }
      ],
      "stateMutability": "nonpayable",
      "type": "constructor"
    },
    {
      "anonymous": false,
      "inputs": [
        {
          "indexed": true,
          "internalType": "address",
          "name": "previousOwner",
          "type": "address"
        },
        {
          "indexed": true,
          "internalType": "address",
          "name": "newOwner",
          "type": "address"
        }
      ],
      "name": "OwnershipTransferred",
      "type": "event"
    },
    {
      "anonymous": false,
      "inputs": [
        {
          "indexed": false,
          "internalType": "uint256",
          "name": "prevClosingTime",
          "type": "uint256"
        },
        {
          "indexed": false,
          "internalType": "uint256",
          "name": "newClosingTime",
          "type": "uint256"
        }
      ],
      "name": "TimedCrowdsaleExtended",
      "type": "event"
    },
    {
      "anonymous": false,
      "inputs": [
        {
          "indexed": true,
          "internalType": "address",
          "name": "purchaser",
          "type": "address"
        },
        {
          "indexed": true,
          "internalType": "address",
          "name": "beneficiary",
          "type": "address"
        },
        {
          "indexed": false,
          "internalType": "uint256",
          "name": "value",
          "type": "uint256"
        },
        {
          "indexed": false,
          "internalType": "uint256",
          "name": "amount",
          "type": "uint256"
        }
      ],
      "name": "TokensPurchased",
      "type": "event"
    },
    {
      "inputs": [
        {
          "internalType": "address",
          "name": "account",
          "type": "address"
        }
      ],
      "name": "balanceOf",
      "outputs": [
        {
          "internalType": "uint256",
          "name": "",
          "type": "uint256"
        }
      ],
      "stateMutability": "view",
      "type": "function",
      "constant": true
    },
    {
      "inputs": [
        {
          "internalType": "address",
          "name": "beneficiary",
          "type": "address"
        }
      ],
      "name": "buyTokens",
      "outputs": [],
      "stateMutability": "payable",
      "type": "function",
      "payable": true
    },
    {
      "inputs": [],
      "name": "closingTime",
      "outputs": [
        {
          "internalType": "uint256",
          "name": "",
          "type": "uint256"
        }
      ],
      "stateMutability": "view",
      "type": "function",
      "constant": true
    },
    {
      "inputs": [],
      "name": "getCurrentRate",
      "outputs": [
        {
          "internalType": "uint256",
          "name": "",
          "type": "uint256"
        }
      ],
      "stateMutability": "view",
      "type": "function",
      "constant": true
    },
    {
      "inputs": [],
      "name": "getMaxBuyAmount",
      "outputs": [
        {
          "internalType": "uint256",
          "name": "",
          "type": "uint256"
        }
      ],
      "stateMutability": "view",
      "type": "function",
      "constant": true
    },
    {
      "inputs": [],
      "name": "getMaxIcoAmount",
      "outputs": [
        {
          "internalType": "uint256",
          "name": "",
          "type": "uint256"
        }
      ],
      "stateMutability": "view",
      "type": "function",
      "constant": true
    },
    {
      "inputs": [],
      "name": "getMinBuyAmount",
      "outputs": [
        {
          "internalType": "uint256",
          "name": "",
          "type": "uint256"
        }
      ],
      "stateMutability": "view",
      "type": "function",
      "constant": true
    },
    {
      "inputs": [],
      "name": "hasClosed",
      "outputs": [
        {
          "internalType": "bool",
          "name": "",
          "type": "bool"
        }
      ],
      "stateMutability": "view",
      "type": "function",
      "constant": true
    },
    {
      "inputs": [],
      "name": "isOpen",
      "outputs": [
        {
          "internalType": "bool",
          "name": "",
          "type": "bool"
        }
      ],
      "stateMutability": "view",
      "type": "function",
      "constant": true
    },
    {
      "inputs": [],
      "name": "openingTime",
      "outputs": [
        {
          "internalType": "uint256",
          "name": "",
          "type": "uint256"
        }
      ],
      "stateMutability": "view",
      "type": "function",
      "constant": true
    },
    {
      "inputs": [],
      "name": "owner",
      "outputs": [
        {
          "internalType": "address",
          "name": "",
          "type": "address"
        }
      ],
      "stateMutability": "view",
      "type": "function",
      "constant": true
    },
    {
      "inputs": [],
      "name": "remainingTokens",
      "outputs": [
        {
          "internalType": "uint256",
          "name": "",
          "type": "uint256"
        }
      ],
      "stateMutability": "view",
      "type": "function",
      "constant": true
    },
    {
      "inputs": [],
      "name": "renounceOwnership",
      "outputs": [],
      "stateMutability": "nonpayable",
      "type": "function"
    },
    {
      "inputs": [],
      "name": "token",
      "outputs": [
        {
          "internalType": "contract IERC20",
          "name": "",
          "type": "address"
        }
      ],
      "stateMutability": "view",
      "type": "function",
      "constant": true
    },
    {
      "inputs": [],
      "name": "tokenWallet",
      "outputs": [
        {
          "internalType": "address",
          "name": "",
          "type": "address"
        }
      ],
      "stateMutability": "view",
      "type": "function",
      "constant": true
    },
    {
      "inputs": [],
      "name": "totalTokensInVault",
      "outputs": [
        {
          "internalType": "uint256",
          "name": "",
          "type": "uint256"
        }
      ],
      "stateMutability": "view",
      "type": "function",
      "constant": true
    },
    {
      "inputs": [
        {
          "internalType": "address",
          "name": "newOwner",
          "type": "address"
        }
      ],
      "name": "transferOwnership",
      "outputs": [],
      "stateMutability": "nonpayable",
      "type": "function"
    },
    {
      "inputs": [],
      "name": "wallet",
      "outputs": [
        {
          "internalType": "address payable",
          "name": "",
          "type": "address"
        }
      ],
      "stateMutability": "view",
      "type": "function",
      "constant": true
    },
    {
      "inputs": [],
      "name": "weiRaised",
      "outputs": [
        {
          "internalType": "uint256",
          "name": "",
          "type": "uint256"
        }
      ],
      "stateMutability": "view",
      "type": "function",
      "constant": true
    },
    {
      "inputs": [
        {
          "internalType": "address",
          "name": "account",
          "type": "address"
        }
      ],
      "name": "weiRaisedOf",
      "outputs": [
        {
          "internalType": "uint256",
          "name": "",
          "type": "uint256"
        }
      ],
      "stateMutability": "view",
      "type": "function",
      "constant": true
    },
    {
      "inputs": [
        {
          "internalType": "address",
          "name": "beneficiary",
          "type": "address"
        }
      ],
      "name": "withdrawTokens",
      "outputs": [],
      "stateMutability": "nonpayable",
      "type": "function"
    },
    {
      "stateMutability": "payable",
      "type": "receive",
      "payable": true
    },
    {
      "inputs": [],
      "name": "rate",
      "outputs": [
        {
          "internalType": "uint256",
          "name": "",
          "type": "uint256"
        }
      ],
      "stateMutability": "view",
      "type": "function",
      "constant": true
    },
    {
      "inputs": [],
      "name": "getTimestamps",
      "outputs": [
        {
          "internalType": "uint256[]",
          "name": "",
          "type": "uint256[]"
        }
      ],
      "stateMutability": "view",
      "type": "function",
      "constant": true
    },
    {
      "inputs": [],
      "name": "getRates",
      "outputs": [
        {
          "internalType": "uint256[]",
          "name": "",
          "type": "uint256[]"
        }
      ],
      "stateMutability": "view",
      "type": "function",
      "constant": true
    },
    {
      "inputs": [],
      "name": "getVaultAddress",
      "outputs": [
        {
          "internalType": "address",
          "name": "",
          "type": "address"
        }
      ],
      "stateMutability": "view",
      "type": "function",
      "constant": true
    },
    {
      "inputs": [],
      "name": "getInvestors",
      "outputs": [
        {
          "internalType": "uint256",
          "name": "",
          "type": "uint256"
        }
      ],
      "stateMutability": "view",
      "type": "function",
      "constant": true
    }
  ],
  "bytecode": "0x60806040526000600d5560405180606001604052806360b9251163ffffffff1681526020016360b925c563ffffffff1681526020016360b9267963ffffffff16815250601290600362000054929190620009dd565b506040518060400160405280606460ff168152602001600a60ff1681525060139060026200008492919062000a37565b5060006014553480156200009757600080fd5b506040516200452d3803806200452d8339818101604052810190620000bd919062000bdd565b3385858585858a600081518110620000fe577f4e487b7100000000000000000000000000000000000000000000000000000000600052603260045260246000fd5b60200260200101518b60018d5162000117919062001318565b815181106200014f577f4e487b7100000000000000000000000000000000000000000000000000000000600052603260045260246000fd5b60200260200101518b60008151811062000192577f4e487b7100000000000000000000000000000000000000000000000000000000600052603260045260246000fd5b6020026020010151338f600160008190555060008311620001ea576040517f08c379a0000000000000000000000000000000000000000000000000000000008152600401620001e190620011e1565b60405180910390fd5b600073ffffffffffffffffffffffffffffffffffffffff168273ffffffffffffffffffffffffffffffffffffffff1614156200025d576040517f08c379a0000000000000000000000000000000000000000000000000000000008152600401620002549062001225565b60405180910390fd5b600073ffffffffffffffffffffffffffffffffffffffff168173ffffffffffffffffffffffffffffffffffffffff161415620002d0576040517f08c379a0000000000000000000000000000000000000000000000000000000008152600401620002c7906200117b565b60405180910390fd5b8260038190555081600260006101000a81548173ffffffffffffffffffffffffffffffffffffffff021916908373ffffffffffffffffffffffffffffffffffffffff16021790555080600160006101000a81548173ffffffffffffffffffffffffffffffffffffffff021916908373ffffffffffffffffffffffffffffffffffffffff16021790555050505042821015620003a2576040517f08c379a00000000000000000000000000000000000000000000000000000000081526004016200039990620010d1565b60405180910390fd5b818111620003e7576040517f08c379a0000000000000000000000000000000000000000000000000000000008152600401620003de9062001115565b60405180910390fd5b81600681905550806007819055505050604051620004059062000a8e565b604051809103906000f08015801562000422573d6000803e3d6000fd5b50600c60006101000a81548173ffffffffffffffffffffffffffffffffffffffff021916908373ffffffffffffffffffffffffffffffffffffffff160217905550826008819055508160098190555080600a81905550505050600081600183516200048e919062001318565b81518110620004c6577f4e487b7100000000000000000000000000000000000000000000000000000000600052603260045260246000fd5b60200260200101511162000511576040517f08c379a0000000000000000000000000000000000000000000000000000000008152600401620005089062001137565b60405180910390fd5b60028251101562000559576040517f08c379a00000000000000000000000000000000000000000000000000000000081526004016200055090620011bf565b60405180910390fd5b60018151620005699190620012bb565b825114620005ae576040517f08c379a0000000000000000000000000000000000000000000000000000000008152600401620005a59062001159565b60405180910390fd5b60005b60018351620005c1919062001318565b811015620006b45782600182620005d99190620012bb565b8151811062000611577f4e487b7100000000000000000000000000000000000000000000000000000000600052603260045260246000fd5b602002602001015183828151811062000653577f4e487b7100000000000000000000000000000000000000000000000000000000600052603260045260246000fd5b6020026020010151106200069e576040517f08c379a000000000000000000000000000000000000000000000000000000000815260040162000695906200119d565b60405180910390fd5b8080620006ab9062001391565b915050620005b1565b5060005b60018251620006c8919062001318565b811015620007bb5781600182620006e09190620012bb565b8151811062000718577f4e487b7100000000000000000000000000000000000000000000000000000000600052603260045260246000fd5b60200260200101518282815181106200075a577f4e487b7100000000000000000000000000000000000000000000000000000000600052603260045260246000fd5b602002602001015111620007a5576040517f08c379a00000000000000000000000000000000000000000000000000000000081526004016200079c9062001203565b60405180910390fd5b8080620007b29062001391565b915050620006b8565b5081600e9080519060200190620007d492919062000a9c565b5080600f9080519060200190620007ed92919062000a9c565b505050600073ffffffffffffffffffffffffffffffffffffffff168173ffffffffffffffffffffffffffffffffffffffff16141562000863576040517f08c379a00000000000000000000000000000000000000000000000000000000081526004016200085a90620010f3565b60405180910390fd5b80601060006101000a81548173ffffffffffffffffffffffffffffffffffffffff021916908373ffffffffffffffffffffffffffffffffffffffff160217905550506000620008b7620009d560201b60201c565b905080601160006101000a81548173ffffffffffffffffffffffffffffffffffffffff021916908373ffffffffffffffffffffffffffffffffffffffff1602179055508073ffffffffffffffffffffffffffffffffffffffff16600073ffffffffffffffffffffffffffffffffffffffff167f8be0079c531659141344cd1fd0a4f28419497f9722a3daafe3b4186f6b6457e060405160405180910390a35085601660006101000a81548173ffffffffffffffffffffffffffffffffffffffff021916908373ffffffffffffffffffffffffffffffffffffffff1602179055508460129080519060200190620009af92919062000a9c565b508360139080519060200190620009c892919062000a9c565b5050505050505062001471565b600033905090565b82805482825590600052602060002090810192821562000a24579160200282015b8281111562000a23578251829063ffffffff16905591602001919060010190620009fe565b5b50905062000a33919062000aee565b5090565b82805482825590600052602060002090810192821562000a7b579160200282015b8281111562000a7a578251829060ff1690559160200191906001019062000a58565b5b50905062000a8a919062000aee565b5090565b6107e78062003d4683390190565b82805482825590600052602060002090810192821562000adb579160200282015b8281111562000ada57825182559160200191906001019062000abd565b5b50905062000aea919062000aee565b5090565b5b8082111562000b0957600081600090555060010162000aef565b5090565b600062000b2462000b1e846200127b565b62001247565b9050808382526020820190508285602086028201111562000b4457600080fd5b60005b8581101562000b78578162000b5d888262000bc6565b84526020840193506020830192505060018101905062000b47565b5050509392505050565b60008151905062000b93816200143d565b92915050565b600082601f83011262000bab57600080fd5b815162000bbd84826020860162000b0d565b91505092915050565b60008151905062000bd78162001457565b92915050565b60008060008060008060c0878903121562000bf757600080fd5b600062000c0789828a0162000b82565b965050602087015167ffffffffffffffff81111562000c2557600080fd5b62000c3389828a0162000b99565b955050604087015167ffffffffffffffff81111562000c5157600080fd5b62000c5f89828a0162000b99565b945050606062000c7289828a0162000bc6565b935050608062000c8589828a0162000bc6565b92505060a062000c9889828a0162000bc6565b9150509295509295509295565b600062000cb4603383620012aa565b91507f54696d656443726f776473616c653a206f70656e696e672074696d652069732060008301527f6265666f72652063757272656e742074696d65000000000000000000000000006020830152604082019050919050565b600062000d1c603483620012aa565b91507f416c6c6f77616e636543726f776473616c653a20746f6b656e2077616c6c657460008301527f20697320746865207a65726f20616464726573730000000000000000000000006020830152604082019050919050565b600062000d84603783620012aa565b91507f54696d656443726f776473616c653a206f70656e696e672074696d652069732060008301527f6e6f74206265666f726520636c6f73696e672074696d650000000000000000006020830152604082019050919050565b600062000dec602983620012aa565b91507f496e6372656173696e67507269636543726f776473616c653a2066696e616c2060008301527f72617465206973203000000000000000000000000000000000000000000000006020830152604082019050919050565b600062000e54602b83620012aa565b91507f5468657265206d757374206265206f6e65206d6f72652074696d657374616d7060008301527f207468616e2072617465210000000000000000000000000000000000000000006020830152604082019050919050565b600062000ebc602483620012aa565b91507f43726f776473616c653a20746f6b656e20697320746865207a65726f2061646460008301527f72657373000000000000000000000000000000000000000000000000000000006020830152604082019050919050565b600062000f24602883620012aa565b91507f54696d657374616d7073206d75737420626520696e206368726f6e6f6c6f676960008301527f63206f72646572210000000000000000000000000000000000000000000000006020830152604082019050919050565b600062000f8c602283620012aa565b91507f41746c656173742074776f2074696d657374616d707320617265206e6565646560008301527f64210000000000000000000000000000000000000000000000000000000000006020830152604082019050919050565b600062000ff4601483620012aa565b91507f43726f776473616c653a207261746520697320300000000000000000000000006000830152602082019050919050565b600062001036601983620012aa565b91507f5261746573206d7573742062652064656372656173696e6721000000000000006000830152602082019050919050565b600062001078602583620012aa565b91507f43726f776473616c653a2077616c6c657420697320746865207a65726f20616460008301527f64726573730000000000000000000000000000000000000000000000000000006020830152604082019050919050565b60006020820190508181036000830152620010ec8162000ca5565b9050919050565b600060208201905081810360008301526200110e8162000d0d565b9050919050565b60006020820190508181036000830152620011308162000d75565b9050919050565b60006020820190508181036000830152620011528162000ddd565b9050919050565b60006020820190508181036000830152620011748162000e45565b9050919050565b60006020820190508181036000830152620011968162000ead565b9050919050565b60006020820190508181036000830152620011b88162000f15565b9050919050565b60006020820190508181036000830152620011da8162000f7d565b9050919050565b60006020820190508181036000830152620011fc8162000fe5565b9050919050565b600060208201905081810360008301526200121e8162001027565b9050919050565b60006020820190508181036000830152620012408162001069565b9050919050565b6000604051905081810181811067ffffffffffffffff821117156200127157620012706200140e565b5b8060405250919050565b600067ffffffffffffffff8211156200129957620012986200140e565b5b602082029050602081019050919050565b600082825260208201905092915050565b6000620012c88262001387565b9150620012d58362001387565b9250827fffffffffffffffffffffffffffffffffffffffffffffffffffffffffffffffff038211156200130d576200130c620013df565b5b828201905092915050565b6000620013258262001387565b9150620013328362001387565b925082821015620013485762001347620013df565b5b828203905092915050565b6000620013608262001367565b9050919050565b600073ffffffffffffffffffffffffffffffffffffffff82169050919050565b6000819050919050565b60006200139e8262001387565b91507fffffffffffffffffffffffffffffffffffffffffffffffffffffffffffffffff821415620013d457620013d3620013df565b5b600182019050919050565b7f4e487b7100000000000000000000000000000000000000000000000000000000600052601160045260246000fd5b7f4e487b7100000000000000000000000000000000000000000000000000000000600052604160045260246000fd5b620014488162001353565b81146200145457600080fd5b50565b620014628162001387565b81146200146e57600080fd5b50565b6128c580620014816000396000f3fe6080604052600436106101855760003560e01c8063778a4e33116100d1578063bf5839031161008a578063ec8ac4d811610064578063ec8ac4d814610561578063f2fde38b1461057d578063f7fb07b0146105a6578063fc0c546a146105d15761019c565b8063bf583903146104e0578063bff99c6c1461050b578063c81cb32d146105365761019c565b8063778a4e33146103cc5780637bc0e8ba146103f75780638da5cb5b146104345780639accab551461045f578063b2f5a54c1461048a578063b7a8807c146104b55761019c565b80634b6753bc1161013e57806359abbfe41161011857806359abbfe41461032257806365cacaa41461034d57806370a0823114610378578063715018a6146103b55761019c565b80634b6753bc146102a1578063503ac649146102cc578063521eb273146102f75761019c565b80631515bc2b146101a15780631b9d3f5e146101cc5780632c4e722e146101f75780634042b66f1461022257806347535d7b1461024d57806349df728c146102785761019c565b3661019c5761019a6101956105fc565b610604565b005b600080fd5b3480156101ad57600080fd5b506101b66107bf565b6040516101c391906122ee565b60405180910390f35b3480156101d857600080fd5b506101e16107cb565b6040516101ee919061257d565b60405180910390f35b34801561020357600080fd5b5061020c6107d5565b604051610219919061257d565b60405180910390f35b34801561022e57600080fd5b506102376107e4565b604051610244919061257d565b60405180910390f35b34801561025957600080fd5b506102626107ee565b60405161026f91906122ee565b60405180910390f35b34801561028457600080fd5b5061029f600480360381019061029a9190611b3a565b610809565b005b3480156102ad57600080fd5b506102b66109d3565b6040516102c3919061257d565b60405180910390f35b3480156102d857600080fd5b506102e16109dd565b6040516102ee919061257d565b60405180910390f35b34801561030357600080fd5b5061030c6109e7565b6040516103199190612251565b60405180910390f35b34801561032e57600080fd5b50610337610a11565b60405161034491906122cc565b60405180910390f35b34801561035957600080fd5b50610362610a69565b60405161036f9190612236565b60405180910390f35b34801561038457600080fd5b5061039f600480360381019061039a9190611b3a565b610aed565b6040516103ac919061257d565b60405180910390f35b3480156103c157600080fd5b506103ca610b36565b005b3480156103d857600080fd5b506103e1610c73565b6040516103ee919061257d565b60405180910390f35b34801561040357600080fd5b5061041e60048036038101906104199190611b3a565b610c7d565b60405161042b919061257d565b60405180910390f35b34801561044057600080fd5b50610449610cc6565b6040516104569190612236565b60405180910390f35b34801561046b57600080fd5b50610474610cf0565b60405161048191906122cc565b60405180910390f35b34801561049657600080fd5b5061049f610d48565b6040516104ac919061257d565b60405180910390f35b3480156104c157600080fd5b506104ca610d52565b6040516104d7919061257d565b60405180910390f35b3480156104ec57600080fd5b506104f5610d5c565b604051610502919061257d565b60405180910390f35b34801561051757600080fd5b50610520610ed1565b60405161052d9190612236565b60405180910390f35b34801561054257600080fd5b5061054b610efb565b604051610558919061257d565b60405180910390f35b61057b60048036038101906105769190611b3a565b610604565b005b34801561058957600080fd5b506105a4600480360381019061059f9190611b3a565b610f05565b005b3480156105b257600080fd5b506105bb6110b1565b6040516105c8919061257d565b60405180910390f35b3480156105dd57600080fd5b506105e66111a4565b6040516105f39190612309565b60405180910390f35b600033905090565b6002600054141561064a576040517f08c379a00000000000000000000000000000000000000000000000000000000081526004016106419061253d565b60405180910390fd5b6002600081905550600034905061066182826111ce565b600061066c826111dc565b9050610683826004546111ee90919063ffffffff16565b6004819055506106db82600560008673ffffffffffffffffffffffffffffffffffffffff1673ffffffffffffffffffffffffffffffffffffffff168152602001908152602001600020546111ee90919063ffffffff16565b600560008573ffffffffffffffffffffffffffffffffffffffff1673ffffffffffffffffffffffffffffffffffffffff168152602001908152602001600020819055506107288382611204565b8273ffffffffffffffffffffffffffffffffffffffff166107476105fc565b73ffffffffffffffffffffffffffffffffffffffff167f6faf93231a456e552dbc9961f58d9713ee4f2e69d15f1975b050ef0911053a7b848460405161078e929190612598565b60405180910390a36107a08383611212565b6107a8611216565b6107b28383611281565b5050600160008190555050565b60006007544211905090565b6000600a54905090565b60006107df611355565b905090565b6000600454905090565b6000600654421015801561080457506007544211155b905090565b6108116107bf565b610850576040517f08c379a0000000000000000000000000000000000000000000000000000000008152600401610847906124dd565b60405180910390fd5b6000600b60008373ffffffffffffffffffffffffffffffffffffffff1673ffffffffffffffffffffffffffffffffffffffff168152602001908152602001600020549050600081116108d7576040517f08c379a00000000000000000000000000000000000000000000000000000000081526004016108ce9061243d565b60405180910390fd5b6000600b60008473ffffffffffffffffffffffffffffffffffffffff1673ffffffffffffffffffffffffffffffffffffffff16815260200190815260200160002081905550600c60009054906101000a900473ffffffffffffffffffffffffffffffffffffffff1673ffffffffffffffffffffffffffffffffffffffff1663beabacc86109626111a4565b84846040518463ffffffff1660e01b815260040161098293929190612324565b600060405180830381600087803b15801561099c57600080fd5b505af11580156109b0573d6000803e3d6000fd5b505050506109c981600d5461139290919063ffffffff16565b600d819055505050565b6000600754905090565b6000600854905090565b6000600260009054906101000a900473ffffffffffffffffffffffffffffffffffffffff16905090565b60606012805480602002602001604051908101604052809291908181526020018280548015610a5f57602002820191906000526020600020905b815481526020019060010190808311610a4b575b5050505050905090565b6000610a73610cc6565b73ffffffffffffffffffffffffffffffffffffffff163273ffffffffffffffffffffffffffffffffffffffff1614610ae0576040517f08c379a0000000000000000000000000000000000000000000000000000000008152600401610ad79061237d565b60405180910390fd5b610ae86113a8565b905090565b6000600b60008373ffffffffffffffffffffffffffffffffffffffff1673ffffffffffffffffffffffffffffffffffffffff168152602001908152602001600020549050919050565b610b3e6105fc565b73ffffffffffffffffffffffffffffffffffffffff16610b5c610cc6565b73ffffffffffffffffffffffffffffffffffffffff1614610bb2576040517f08c379a0000000000000000000000000000000000000000000000000000000008152600401610ba99061245d565b60405180910390fd5b600073ffffffffffffffffffffffffffffffffffffffff16601160009054906101000a900473ffffffffffffffffffffffffffffffffffffffff1673ffffffffffffffffffffffffffffffffffffffff167f8be0079c531659141344cd1fd0a4f28419497f9722a3daafe3b4186f6b6457e060405160405180910390a36000601160006101000a81548173ffffffffffffffffffffffffffffffffffffffff021916908373ffffffffffffffffffffffffffffffffffffffff160217905550565b6000600d54905090565b6000600560008373ffffffffffffffffffffffffffffffffffffffff1673ffffffffffffffffffffffffffffffffffffffff168152602001908152602001600020549050919050565b6000601160009054906101000a900473ffffffffffffffffffffffffffffffffffffffff16905090565b60606013805480602002602001604051908101604052809291908181526020018280548015610d3e57602002820191906000526020600020905b815481526020019060010190808311610d2a575b5050505050905090565b6000601454905090565b6000600654905090565b6000610ecc610d696111a4565b73ffffffffffffffffffffffffffffffffffffffff166370a08231601060009054906101000a900473ffffffffffffffffffffffffffffffffffffffff166040518263ffffffff1660e01b8152600401610dc39190612236565b60206040518083038186803b158015610ddb57600080fd5b505afa158015610def573d6000803e3d6000fd5b505050506040513d601f19601f82011682018060405250810190610e139190611b8c565b610e1b6111a4565b73ffffffffffffffffffffffffffffffffffffffff1663dd62ed3e601060009054906101000a900473ffffffffffffffffffffffffffffffffffffffff16306040518363ffffffff1660e01b8152600401610e7792919061226c565b60206040518083038186803b158015610e8f57600080fd5b505afa158015610ea3573d6000803e3d6000fd5b505050506040513d601f19601f82011682018060405250810190610ec79190611b8c565b6113d2565b905090565b6000601060009054906101000a900473ffffffffffffffffffffffffffffffffffffffff16905090565b6000600954905090565b610f0d6105fc565b73ffffffffffffffffffffffffffffffffffffffff16610f2b610cc6565b73ffffffffffffffffffffffffffffffffffffffff1614610f81576040517f08c379a0000000000000000000000000000000000000000000000000000000008152600401610f789061245d565b60405180910390fd5b600073ffffffffffffffffffffffffffffffffffffffff168173ffffffffffffffffffffffffffffffffffffffff161415610ff1576040517f08c379a0000000000000000000000000000000000000000000000000000000008152600401610fe8906123bd565b60405180910390fd5b8073ffffffffffffffffffffffffffffffffffffffff16601160009054906101000a900473ffffffffffffffffffffffffffffffffffffffff1673ffffffffffffffffffffffffffffffffffffffff167f8be0079c531659141344cd1fd0a4f28419497f9722a3daafe3b4186f6b6457e060405160405180910390a380601160006101000a81548173ffffffffffffffffffffffffffffffffffffffff021916908373ffffffffffffffffffffffffffffffffffffffff16021790555050565b60006110bb6107ee565b6110c857600090506111a1565b600080600190505b6001600e805490506110e291906126dc565b8110156111575742600e8281548110611124577f4e487b7100000000000000000000000000000000000000000000000000000000600052603260045260246000fd5b90600052602060002001541015611144578180611140906127c1565b9250505b808061114f906127c1565b9150506110d0565b50600f8181548110611192577f4e487b7100000000000000000000000000000000000000000000000000000000600052603260045260246000fd5b90600052602060002001549150505b90565b6000600160009054906101000a900473ffffffffffffffffffffffffffffffffffffffff16905090565b6111d882826113eb565b5050565b60006111e7826114da565b9050919050565b600081836111fc919061262c565b905092915050565b61120e8282611502565b5050565b5050565b600260009054906101000a900473ffffffffffffffffffffffffffffffffffffffff1673ffffffffffffffffffffffffffffffffffffffff166108fc349081150290604051600060405180830381858888f1935050505015801561127e573d6000803e3d6000fd5b50565b61128b82826115e2565b601560008373ffffffffffffffffffffffffffffffffffffffff1673ffffffffffffffffffffffffffffffffffffffff16815260200190815260200160002060009054906101000a900460ff16611351576112f260016014546111ee90919063ffffffff16565b6014819055506001601560008473ffffffffffffffffffffffffffffffffffffffff1673ffffffffffffffffffffffffffffffffffffffff16815260200190815260200160002060006101000a81548160ff0219169083151502179055505b5050565b60006040517f08c379a00000000000000000000000000000000000000000000000000000000081526004016113899061239d565b60405180910390fd5b600081836113a091906126dc565b905092915050565b6000600c60009054906101000a900473ffffffffffffffffffffffffffffffffffffffff16905090565b60008183106113e157816113e3565b825b905092915050565b81816113f782826115e6565b611436576040517f08c379a000000000000000000000000000000000000000000000000000000000815260040161142d9061241d565b60405180910390fd5b8261144081611645565b61147f576040517f08c379a00000000000000000000000000000000000000000000000000000000081526004016114769061249d565b60405180910390fd5b8361148981611659565b6114c8576040517f08c379a00000000000000000000000000000000000000000000000000000000081526004016114bf9061247d565b60405180910390fd5b6114d2868661167a565b505050505050565b6000806114e56110b1565b90506114fa83826116cf90919063ffffffff16565b915050919050565b61155481600b60008573ffffffffffffffffffffffffffffffffffffffff1673ffffffffffffffffffffffffffffffffffffffff168152602001908152602001600020546111ee90919063ffffffff16565b600b60008473ffffffffffffffffffffffffffffffffffffffff1673ffffffffffffffffffffffffffffffffffffffff168152602001908152602001600020819055506115c3600c60009054906101000a900473ffffffffffffffffffffffffffffffffffffffff16826116e5565b6115d881600d546111ee90919063ffffffff16565b600d819055505050565b5050565b60008060085483600560008773ffffffffffffffffffffffffffffffffffffffff1673ffffffffffffffffffffffffffffffffffffffff16815260200190815260200160002054611637919061262c565b111590508091505092915050565b600080600954831015905080915050919050565b6000806008548360045461166d919061262c565b1115905080915050919050565b6116826107ee565b6116c1576040517f08c379a00000000000000000000000000000000000000000000000000000000081526004016116b8906123dd565b60405180910390fd5b6116cb82826116f3565b5050565b600081836116dd9190612682565b905092915050565b6116ef82826117ab565b5050565b600073ffffffffffffffffffffffffffffffffffffffff168273ffffffffffffffffffffffffffffffffffffffff161415611763576040517f08c379a000000000000000000000000000000000000000000000000000000000815260040161175a906124bd565b60405180910390fd5b60008114156117a7576040517f08c379a000000000000000000000000000000000000000000000000000000000815260040161179e9061255d565b60405180910390fd5b5050565b611801601060009054906101000a900473ffffffffffffffffffffffffffffffffffffffff1683836117db6111a4565b73ffffffffffffffffffffffffffffffffffffffff16611805909392919063ffffffff16565b5050565b611888846323b872dd60e01b85858560405160240161182693929190612295565b604051602081830303815290604052907bffffffffffffffffffffffffffffffffffffffffffffffffffffffff19166020820180517bffffffffffffffffffffffffffffffffffffffffffffffffffffffff838183161783525050505061188e565b50505050565b60006118f0826040518060400160405280602081526020017f5361666545524332303a206c6f772d6c6576656c2063616c6c206661696c65648152508573ffffffffffffffffffffffffffffffffffffffff166119559092919063ffffffff16565b905060008151111561195057808060200190518101906119109190611b63565b61194f576040517f08c379a00000000000000000000000000000000000000000000000000000000081526004016119469061251d565b60405180910390fd5b5b505050565b6060611964848460008561196d565b90509392505050565b6060824710156119b2576040517f08c379a00000000000000000000000000000000000000000000000000000000081526004016119a9906123fd565b60405180910390fd5b6119bb85611a81565b6119fa576040517f08c379a00000000000000000000000000000000000000000000000000000000081526004016119f1906124fd565b60405180910390fd5b6000808673ffffffffffffffffffffffffffffffffffffffff168587604051611a23919061221f565b60006040518083038185875af1925050503d8060008114611a60576040519150601f19603f3d011682016040523d82523d6000602084013e611a65565b606091505b5091509150611a75828286611a94565b92505050949350505050565b600080823b905060008111915050919050565b60608315611aa457829050611af4565b600083511115611ab75782518084602001fd5b816040517f08c379a0000000000000000000000000000000000000000000000000000000008152600401611aeb919061235b565b60405180910390fd5b9392505050565b600081359050611b0a8161284a565b92915050565b600081519050611b1f81612861565b92915050565b600081519050611b3481612878565b92915050565b600060208284031215611b4c57600080fd5b6000611b5a84828501611afb565b91505092915050565b600060208284031215611b7557600080fd5b6000611b8384828501611b10565b91505092915050565b600060208284031215611b9e57600080fd5b6000611bac84828501611b25565b91505092915050565b6000611bc18383612201565b60208301905092915050565b611bd681612722565b82525050565b611be581612710565b82525050565b6000611bf6826125d1565b611c0081856125ff565b9350611c0b836125c1565b8060005b83811015611c3c578151611c238882611bb5565b9750611c2e836125f2565b925050600181019050611c0f565b5085935050505092915050565b611c5281612734565b82525050565b6000611c63826125dc565b611c6d8185612610565b9350611c7d81856020860161278e565b80840191505092915050565b611c928161276a565b82525050565b6000611ca3826125e7565b611cad818561261b565b9350611cbd81856020860161278e565b611cc681612839565b840191505092915050565b6000611cde60118361261b565b91507f43616c6c65722069736e74206f776e65720000000000000000000000000000006000830152602082019050919050565b6000611d1e60278361261b565b91507f496e6372656173696e67507269636543726f776473616c653a2072617465282960008301527f2063616c6c6564000000000000000000000000000000000000000000000000006020830152604082019050919050565b6000611d8460268361261b565b91507f4f776e61626c653a206e6577206f776e657220697320746865207a65726f206160008301527f64647265737300000000000000000000000000000000000000000000000000006020830152604082019050919050565b6000611dea60188361261b565b91507f54696d656443726f776473616c653a206e6f74206f70656e00000000000000006000830152602082019050919050565b6000611e2a60268361261b565b91507f416464726573733a20696e73756666696369656e742062616c616e636520666f60008301527f722063616c6c00000000000000000000000000000000000000000000000000006020830152604082019050919050565b6000611e90601f8361261b565b91507f546f74616c20616d6f756e742065786365656473206d617820616d6f756e74006000830152602082019050919050565b6000611ed060388361261b565b91507f506f737444656c697665727943726f776473616c653a2062656e65666963696160008301527f7279206973206e6f742064756520616e7920746f6b656e7300000000000000006020830152604082019050919050565b6000611f3660208361261b565b91507f4f776e61626c653a2063616c6c6572206973206e6f7420746865206f776e65726000830152602082019050919050565b6000611f7660238361261b565b91507f546f74616c20616d6f756e742065786365656473206d61782069636f20616d6f60008301527f756e7400000000000000000000000000000000000000000000000000000000006020830152604082019050919050565b6000611fdc600a8361261b565b91507f576173206461206c6f73000000000000000000000000000000000000000000006000830152602082019050919050565b600061201c602a8361261b565b91507f43726f776473616c653a2062656e656669636961727920697320746865207a6560008301527f726f2061646472657373000000000000000000000000000000000000000000006020830152604082019050919050565b600061208260218361261b565b91507f506f737444656c697665727943726f776473616c653a206e6f7420636c6f736560008301527f64000000000000000000000000000000000000000000000000000000000000006020830152604082019050919050565b60006120e8601d8361261b565b91507f416464726573733a2063616c6c20746f206e6f6e2d636f6e74726163740000006000830152602082019050919050565b6000612128602a8361261b565b91507f5361666545524332303a204552433230206f7065726174696f6e20646964206e60008301527f6f742073756363656564000000000000000000000000000000000000000000006020830152604082019050919050565b600061218e601f8361261b565b91507f5265656e7472616e637947756172643a207265656e7472616e742063616c6c006000830152602082019050919050565b60006121ce60198361261b565b91507f43726f776473616c653a20776569416d6f756e742069732030000000000000006000830152602082019050919050565b61220a81612760565b82525050565b61221981612760565b82525050565b600061222b8284611c58565b915081905092915050565b600060208201905061224b6000830184611bdc565b92915050565b60006020820190506122666000830184611bcd565b92915050565b60006040820190506122816000830185611bdc565b61228e6020830184611bdc565b9392505050565b60006060820190506122aa6000830186611bdc565b6122b76020830185611bdc565b6122c46040830184612210565b949350505050565b600060208201905081810360008301526122e68184611beb565b905092915050565b60006020820190506123036000830184611c49565b92915050565b600060208201905061231e6000830184611c89565b92915050565b60006060820190506123396000830186611c89565b6123466020830185611bdc565b6123536040830184612210565b949350505050565b600060208201905081810360008301526123758184611c98565b905092915050565b6000602082019050818103600083015261239681611cd1565b9050919050565b600060208201905081810360008301526123b681611d11565b9050919050565b600060208201905081810360008301526123d681611d77565b9050919050565b600060208201905081810360008301526123f681611ddd565b9050919050565b6000602082019050818103600083015261241681611e1d565b9050919050565b6000602082019050818103600083015261243681611e83565b9050919050565b6000602082019050818103600083015261245681611ec3565b9050919050565b6000602082019050818103600083015261247681611f29565b9050919050565b6000602082019050818103600083015261249681611f69565b9050919050565b600060208201905081810360008301526124b681611fcf565b9050919050565b600060208201905081810360008301526124d68161200f565b9050919050565b600060208201905081810360008301526124f681612075565b9050919050565b60006020820190508181036000830152612516816120db565b9050919050565b600060208201905081810360008301526125368161211b565b9050919050565b6000602082019050818103600083015261255681612181565b9050919050565b60006020820190508181036000830152612576816121c1565b9050919050565b60006020820190506125926000830184612210565b92915050565b60006040820190506125ad6000830185612210565b6125ba6020830184612210565b9392505050565b6000819050602082019050919050565b600081519050919050565b600081519050919050565b600081519050919050565b6000602082019050919050565b600082825260208201905092915050565b600081905092915050565b600082825260208201905092915050565b600061263782612760565b915061264283612760565b9250827fffffffffffffffffffffffffffffffffffffffffffffffffffffffffffffffff038211156126775761267661280a565b5b828201905092915050565b600061268d82612760565b915061269883612760565b9250817fffffffffffffffffffffffffffffffffffffffffffffffffffffffffffffffff04831182151516156126d1576126d061280a565b5b828202905092915050565b60006126e782612760565b91506126f283612760565b9250828210156127055761270461280a565b5b828203905092915050565b600061271b82612740565b9050919050565b600061272d82612740565b9050919050565b60008115159050919050565b600073ffffffffffffffffffffffffffffffffffffffff82169050919050565b6000819050919050565b60006127758261277c565b9050919050565b600061278782612740565b9050919050565b60005b838110156127ac578082015181840152602081019050612791565b838111156127bb576000848401525b50505050565b60006127cc82612760565b91507fffffffffffffffffffffffffffffffffffffffffffffffffffffffffffffffff8214156127ff576127fe61280a565b5b600182019050919050565b7f4e487b7100000000000000000000000000000000000000000000000000000000600052601160045260246000fd5b6000601f19601f8301169050919050565b61285381612710565b811461285e57600080fd5b50565b61286a81612734565b811461287557600080fd5b50565b61288181612760565b811461288c57600080fd5b5056fea2646970667358221220c7c57d4197b35944353897194fb89fd2f52e8569e10c0913accf46f2650bf0b064736f6c63430008000033608060405234801561001057600080fd5b5060006100216100a060201b60201c565b9050806000806101000a81548173ffffffffffffffffffffffffffffffffffffffff021916908373ffffffffffffffffffffffffffffffffffffffff1602179055507f4101e71e974f68df5e9730cc223280b41654676bbb052cdcc735c3337e64d2d98160405161009291906100b7565b60405180910390a150610104565b600033905090565b6100b1816100d2565b82525050565b60006020820190506100cc60008301846100a8565b92915050565b60006100dd826100e4565b9050919050565b600073ffffffffffffffffffffffffffffffffffffffff82169050919050565b6106d4806101136000396000f3fe608060405234801561001057600080fd5b50600436106100415760003560e01c80632348238c14610046578063beabacc814610062578063c6dbdf611461007e575b600080fd5b610060600480360381019061005b91906103c8565b61009c565b005b61007c6004803603810190610077919061041a565b61021b565b005b610086610343565b6040516100939190610553565b60405180910390f35b60008054906101000a900473ffffffffffffffffffffffffffffffffffffffff1673ffffffffffffffffffffffffffffffffffffffff166100db61036c565b73ffffffffffffffffffffffffffffffffffffffff1614610131576040517f08c379a0000000000000000000000000000000000000000000000000000000008152600401610128906105b7565b60405180910390fd5b600073ffffffffffffffffffffffffffffffffffffffff168173ffffffffffffffffffffffffffffffffffffffff1614156101a1576040517f08c379a000000000000000000000000000000000000000000000000000000000815260040161019890610597565b60405180910390fd5b806000806101000a81548173ffffffffffffffffffffffffffffffffffffffff021916908373ffffffffffffffffffffffffffffffffffffffff1602179055507f4101e71e974f68df5e9730cc223280b41654676bbb052cdcc735c3337e64d2d9816040516102109190610553565b60405180910390a150565b60008054906101000a900473ffffffffffffffffffffffffffffffffffffffff1673ffffffffffffffffffffffffffffffffffffffff1661025a61036c565b73ffffffffffffffffffffffffffffffffffffffff16146102b0576040517f08c379a00000000000000000000000000000000000000000000000000000000081526004016102a7906105b7565b60405180910390fd5b8273ffffffffffffffffffffffffffffffffffffffff1663a9059cbb83836040518363ffffffff1660e01b81526004016102eb92919061056e565b602060405180830381600087803b15801561030557600080fd5b505af1158015610319573d6000803e3d6000fd5b505050506040513d601f19601f8201168201806040525081019061033d91906103f1565b50505050565b60008060009054906101000a900473ffffffffffffffffffffffffffffffffffffffff16905090565b600033905090565b60008135905061038381610642565b92915050565b60008151905061039881610659565b92915050565b6000813590506103ad81610670565b92915050565b6000813590506103c281610687565b92915050565b6000602082840312156103da57600080fd5b60006103e884828501610374565b91505092915050565b60006020828403121561040357600080fd5b600061041184828501610389565b91505092915050565b60008060006060848603121561042f57600080fd5b600061043d8682870161039e565b935050602061044e86828701610374565b925050604061045f868287016103b3565b9150509250925092565b610472816105e8565b82525050565b6000610485602a836105d7565b91507f5365636f6e646172793a206e6577207072696d61727920697320746865207a6560008301527f726f2061646472657373000000000000000000000000000000000000000000006020830152604082019050919050565b60006104eb602c836105d7565b91507f5365636f6e646172793a2063616c6c6572206973206e6f74207468652070726960008301527f6d617279206163636f756e7400000000000000000000000000000000000000006020830152604082019050919050565b61054d81610638565b82525050565b60006020820190506105686000830184610469565b92915050565b60006040820190506105836000830185610469565b6105906020830184610544565b9392505050565b600060208201905081810360008301526105b081610478565b9050919050565b600060208201905081810360008301526105d0816104de565b9050919050565b600082825260208201905092915050565b60006105f382610618565b9050919050565b60008115159050919050565b6000610611826105e8565b9050919050565b600073ffffffffffffffffffffffffffffffffffffffff82169050919050565b6000819050919050565b61064b816105e8565b811461065657600080fd5b50565b610662816105fa565b811461066d57600080fd5b50565b61067981610606565b811461068457600080fd5b50565b61069081610638565b811461069b57600080fd5b5056fea26469706673582212206e6f3a4356e0e67e58336a773e7f57f2228ec7046c14fa2d45333ab23851d1d664736f6c63430008000033",
  "immutableReferences": {},
  "source": "// SPDX-License-Identifier: MIT\r\npragma solidity ^0.8.0;\r\nimport \"./token/ERC20.sol\";\r\nimport \"./token/ERC20Burnable.sol\";\r\nimport \"./ownership/Ownable.sol\";\r\nimport \"./crowdsale/Crowdsale.sol\";\r\nimport \"./crowdsale/PostDeliveryCrowdsale.sol\";\r\nimport \"./crowdsale/IncreasingPriceCrowdsale.sol\";\r\nimport \"./crowdsale/TimedCrowdsale.sol\";\r\nimport \"./crowdsale/AllowanceCrowdsale.sol\";\r\nimport \"./math/SafeMath.sol\";\r\nimport \"./token/SafeERC20.sol\";\r\n\r\ncontract ICO is Crowdsale, TimedCrowdsale, PostDeliveryCrowdsale, IncreasingPriceCrowdsale, AllowanceCrowdsale, Ownable {\r\n    using SafeMath for uint256;\r\n\r\n    uint256[] private _timestamps = [1622746385, 1622746565, 1622746745];\r\n    uint256[] private _rates = [100, 10];\r\n\r\n    uint256 private _investorCount = 0;\r\n    mapping(address => bool) private _isIcoInvestor;\r\n    \r\n    address private _tokenAddress;  \r\n    \r\n    constructor(address tokenAddress, uint[] memory timestamps, uint[] memory rates, uint maxPruchaseAmount, uint minPruchaseAmount, uint maxIcoAmount) \r\n        Crowdsale(rates[0], payable(msg.sender), ERC20(payable(tokenAddress))) \r\n        TimedCrowdsale(timestamps[0], timestamps[timestamps.length - 1])\r\n        PostDeliveryCrowdsale(maxPruchaseAmount, minPruchaseAmount, maxIcoAmount) \r\n        IncreasingPriceCrowdsale(timestamps, rates) \r\n        AllowanceCrowdsale(payable(msg.sender)) {\r\n            _tokenAddress = tokenAddress;\r\n            _timestamps = timestamps;\r\n            _rates = rates;\r\n        }   \r\n\r\n    // Override Functions\r\n    function _deliverTokens(address beneficiary, uint256 tokenAmount) internal override(Crowdsale, AllowanceCrowdsale) {\r\n        AllowanceCrowdsale._deliverTokens(beneficiary, tokenAmount);\r\n    }\r\n\r\n    function _getTokenAmount(uint256 weiAmount) internal view override(Crowdsale, IncreasingPriceCrowdsale) returns (uint256) {\r\n        return IncreasingPriceCrowdsale._getTokenAmount(weiAmount);\r\n    }\r\n\r\n    function _preValidatePurchase(address beneficiary, uint256 weiAmount) internal view override(Crowdsale, TimedCrowdsale, PostDeliveryCrowdsale) {\r\n        PostDeliveryCrowdsale._preValidatePurchase(beneficiary, weiAmount);\r\n    }\r\n\r\n    function _processPurchase(address beneficiary, uint256 tokenAmount) internal override(Crowdsale, PostDeliveryCrowdsale) {\r\n        PostDeliveryCrowdsale._processPurchase(beneficiary, tokenAmount);\r\n    }\r\n    \r\n    function rate() public view override(Crowdsale, IncreasingPriceCrowdsale) returns (uint256) {\r\n        return IncreasingPriceCrowdsale.rate();\r\n    }\r\n\r\n    // Interface Functions\r\n    function getTimestamps() public view returns(uint256[] memory) {\r\n        return _timestamps;\r\n    }\r\n\r\n    function getRates() public view returns(uint256[] memory) {\r\n        return _rates;\r\n    }\r\n\r\n    function getVaultAddress() public view returns(address) {\r\n        require(tx.origin == owner(), \"Caller isnt owner\");\r\n        return _getVaultAddress();\r\n    }  \r\n\r\n    function getInvestors() public view returns(uint){\r\n        return _investorCount;\r\n    }\r\n\r\n    function _postValidatePurchase(address beneficiary, uint256 weiAmount) internal override { \r\n        super._postValidatePurchase(beneficiary, weiAmount);\r\n        if(!_isIcoInvestor[beneficiary]){\r\n            _investorCount = _investorCount.add(1);\r\n            _isIcoInvestor[beneficiary] = true;\r\n        }        \r\n    }\r\n}\r\n",
  "sourcePath": "C:\\Users\\pasca\\Documents\\web-dev\\monkeymoon-mobile-rework\\frontend\\src\\contracts\\ICO.sol",
  "compiler": {
    "name": "solc",
    "version": "0.8.0+commit.c7dfd78e.Emscripten.clang"
  },
  "schemaVersion": "3.4.4",
  "updatedAt": "2022-01-31T19:32:38.158Z",
  "networkType": "ethereum",
  "devdoc": {
    "kind": "dev",
    "methods": {
      "balanceOf(address)": {
        "returns": {
          "_0": "the balance of an account."
        }
      },
      "buyTokens(address)": {
        "details": "low level token purchase ***DO NOT OVERRIDE*** This function has a non-reentrancy guard, so it shouldn't be called by another `nonReentrant` function.",
        "params": {
          "beneficiary": "Recipient of the token purchase"
        }
      },
      "closingTime()": {
        "returns": {
          "_0": "the crowdsale closing time."
        }
      },
      "getCurrentRate()": {
        "details": "Returns the rate of tokens per wei at the present time. Note that, as price _increases_ with time, the rate _decreases_.",
        "returns": {
          "_0": "The number of tokens a buyer gets per wei at a given time"
        }
      },
      "hasClosed()": {
        "details": "Checks whether the period in which the crowdsale is open has already elapsed.",
        "returns": {
          "_0": "Whether crowdsale period has elapsed"
        }
      },
      "isOpen()": {
        "returns": {
          "_0": "true if the crowdsale is open, false otherwise."
        }
      },
      "openingTime()": {
        "returns": {
          "_0": "the crowdsale opening time."
        }
      },
      "owner()": {
        "details": "Returns the address of the current owner."
      },
      "remainingTokens()": {
        "details": "Checks the amount of tokens left in the allowance.",
        "returns": {
          "_0": "Amount of tokens left in the allowance"
        }
      },
      "renounceOwnership()": {
        "details": "Leaves the contract without owner. It will not be possible to call `onlyOwner` functions anymore. Can only be called by the current owner. NOTE: Renouncing ownership will leave the contract without an owner, thereby removing any functionality that is only available to the owner."
      },
      "token()": {
        "returns": {
          "_0": "the token being sold."
        }
      },
      "tokenWallet()": {
        "returns": {
          "_0": "the address of the wallet that will hold the tokens."
        }
      },
      "transferOwnership(address)": {
        "details": "Transfers ownership of the contract to a new account (`newOwner`). Can only be called by the current owner."
      },
      "wallet()": {
        "returns": {
          "_0": "the address where funds are collected."
        }
      },
      "weiRaised()": {
        "returns": {
          "_0": "the amount of wei raised."
        }
      },
      "withdrawTokens(address)": {
        "details": "Withdraw tokens only after crowdsale ends.",
        "params": {
          "beneficiary": "Whose tokens will be withdrawn."
        }
      }
    },
    "version": 1
  },
  "userdoc": {
    "events": {
      "TimedCrowdsaleExtended(uint256,uint256)": {
        "notice": "Event for crowdsale extending"
      },
      "TokensPurchased(address,address,uint256,uint256)": {
        "notice": "Event for token purchase logging"
      }
    },
    "kind": "user",
    "methods": {},
    "version": 1
  }
}