{
  "contractName": "MonkeyMoonToken",
  "abi": [
    {
      "inputs": [],
      "stateMutability": "nonpayable",
      "type": "constructor"
    },
    {
      "anonymous": false,
      "inputs": [
        {
          "indexed": true,
          "internalType": "address",
          "name": "owner",
          "type": "address"
        },
        {
          "indexed": true,
          "internalType": "address",
          "name": "spender",
          "type": "address"
        },
        {
          "indexed": false,
          "internalType": "uint256",
          "name": "value",
          "type": "uint256"
        }
      ],
      "name": "Approval",
      "type": "event"
    },
    {
      "anonymous": false,
      "inputs": [
        {
          "indexed": false,
          "internalType": "address",
          "name": "sender",
          "type": "address"
        }
      ],
      "name": "MonkeyScoreClaimed",
      "type": "event"
    },
    {
      "anonymous": false,
      "inputs": [
        {
          "indexed": true,
          "internalType": "address",
          "name": "previousOwner",
          "type": "address"
        },
        {
          "indexed": true,
          "internalType": "address",
          "name": "newOwner",
          "type": "address"
        }
      ],
      "name": "OwnershipTransferred",
      "type": "event"
    },
    {
      "anonymous": false,
      "inputs": [
        {
          "indexed": true,
          "internalType": "address",
          "name": "from",
          "type": "address"
        },
        {
          "indexed": true,
          "internalType": "address",
          "name": "to",
          "type": "address"
        },
        {
          "indexed": false,
          "internalType": "uint256",
          "name": "value",
          "type": "uint256"
        }
      ],
      "name": "Transfer",
      "type": "event"
    },
    {
      "inputs": [
        {
          "internalType": "address",
          "name": "owner",
          "type": "address"
        },
        {
          "internalType": "address",
          "name": "spender",
          "type": "address"
        }
      ],
      "name": "allowance",
      "outputs": [
        {
          "internalType": "uint256",
          "name": "",
          "type": "uint256"
        }
      ],
      "stateMutability": "view",
      "type": "function",
      "constant": true
    },
    {
      "inputs": [
        {
          "internalType": "address",
          "name": "spender",
          "type": "address"
        },
        {
          "internalType": "uint256",
          "name": "amount",
          "type": "uint256"
        }
      ],
      "name": "approve",
      "outputs": [
        {
          "internalType": "bool",
          "name": "",
          "type": "bool"
        }
      ],
      "stateMutability": "nonpayable",
      "type": "function"
    },
    {
      "inputs": [
        {
          "internalType": "address",
          "name": "account",
          "type": "address"
        }
      ],
      "name": "balanceOf",
      "outputs": [
        {
          "internalType": "uint256",
          "name": "",
          "type": "uint256"
        }
      ],
      "stateMutability": "view",
      "type": "function",
      "constant": true
    },
    {
      "inputs": [
        {
          "internalType": "uint256",
          "name": "amount",
          "type": "uint256"
        }
      ],
      "name": "burn",
      "outputs": [],
      "stateMutability": "nonpayable",
      "type": "function"
    },
    {
      "inputs": [
        {
          "internalType": "address",
          "name": "account",
          "type": "address"
        },
        {
          "internalType": "uint256",
          "name": "amount",
          "type": "uint256"
        }
      ],
      "name": "burnFrom",
      "outputs": [],
      "stateMutability": "nonpayable",
      "type": "function"
    },
    {
      "inputs": [],
      "name": "decimals",
      "outputs": [
        {
          "internalType": "uint8",
          "name": "",
          "type": "uint8"
        }
      ],
      "stateMutability": "view",
      "type": "function",
      "constant": true
    },
    {
      "inputs": [
        {
          "internalType": "address",
          "name": "spender",
          "type": "address"
        },
        {
          "internalType": "uint256",
          "name": "subtractedValue",
          "type": "uint256"
        }
      ],
      "name": "decreaseAllowance",
      "outputs": [
        {
          "internalType": "bool",
          "name": "",
          "type": "bool"
        }
      ],
      "stateMutability": "nonpayable",
      "type": "function"
    },
    {
      "inputs": [
        {
          "internalType": "address",
          "name": "spender",
          "type": "address"
        },
        {
          "internalType": "uint256",
          "name": "addedValue",
          "type": "uint256"
        }
      ],
      "name": "increaseAllowance",
      "outputs": [
        {
          "internalType": "bool",
          "name": "",
          "type": "bool"
        }
      ],
      "stateMutability": "nonpayable",
      "type": "function"
    },
    {
      "inputs": [],
      "name": "name",
      "outputs": [
        {
          "internalType": "string",
          "name": "",
          "type": "string"
        }
      ],
      "stateMutability": "view",
      "type": "function",
      "constant": true
    },
    {
      "inputs": [],
      "name": "owner",
      "outputs": [
        {
          "internalType": "address",
          "name": "",
          "type": "address"
        }
      ],
      "stateMutability": "view",
      "type": "function",
      "constant": true
    },
    {
      "inputs": [],
      "name": "renounceOwnership",
      "outputs": [],
      "stateMutability": "nonpayable",
      "type": "function"
    },
    {
      "inputs": [],
      "name": "symbol",
      "outputs": [
        {
          "internalType": "string",
          "name": "",
          "type": "string"
        }
      ],
      "stateMutability": "view",
      "type": "function",
      "constant": true
    },
    {
      "inputs": [],
      "name": "totalSupply",
      "outputs": [
        {
          "internalType": "uint256",
          "name": "",
          "type": "uint256"
        }
      ],
      "stateMutability": "view",
      "type": "function",
      "constant": true
    },
    {
      "inputs": [
        {
          "internalType": "address",
          "name": "newOwner",
          "type": "address"
        }
      ],
      "name": "transferOwnership",
      "outputs": [],
      "stateMutability": "nonpayable",
      "type": "function"
    },
    {
      "inputs": [
        {
          "internalType": "address",
          "name": "recipient",
          "type": "address"
        },
        {
          "internalType": "uint256",
          "name": "amount",
          "type": "uint256"
        }
      ],
      "name": "transfer",
      "outputs": [
        {
          "internalType": "bool",
          "name": "",
          "type": "bool"
        }
      ],
      "stateMutability": "nonpayable",
      "type": "function"
    },
    {
      "inputs": [
        {
          "internalType": "address",
          "name": "sender",
          "type": "address"
        },
        {
          "internalType": "address",
          "name": "recipient",
          "type": "address"
        },
        {
          "internalType": "uint256",
          "name": "amount",
          "type": "uint256"
        }
      ],
      "name": "transferFrom",
      "outputs": [
        {
          "internalType": "bool",
          "name": "",
          "type": "bool"
        }
      ],
      "stateMutability": "nonpayable",
      "type": "function"
    },
    {
      "inputs": [
        {
          "internalType": "address",
          "name": "govAddress",
          "type": "address"
        }
      ],
      "name": "setGovAddress",
      "outputs": [],
      "stateMutability": "nonpayable",
      "type": "function"
    },
    {
      "inputs": [
        {
          "internalType": "address",
          "name": "newTaxesAddress",
          "type": "address"
        }
      ],
      "name": "changeTaxesAddress",
      "outputs": [],
      "stateMutability": "nonpayable",
      "type": "function"
    },
    {
      "inputs": [
        {
          "internalType": "address",
          "name": "account",
          "type": "address"
        }
      ],
      "name": "taxlessPermissionOf",
      "outputs": [
        {
          "internalType": "bool",
          "name": "",
          "type": "bool"
        }
      ],
      "stateMutability": "view",
      "type": "function",
      "constant": true
    },
    {
      "inputs": [
        {
          "internalType": "address",
          "name": "taxesAddress",
          "type": "address"
        }
      ],
      "name": "setTaxesAddress",
      "outputs": [],
      "stateMutability": "nonpayable",
      "type": "function"
    },
    {
      "inputs": [
        {
          "internalType": "uint256",
          "name": "start",
          "type": "uint256"
        },
        {
          "internalType": "uint256",
          "name": "end",
          "type": "uint256"
        }
      ],
      "name": "getTaxrate",
      "outputs": [
        {
          "internalType": "uint256",
          "name": "",
          "type": "uint256"
        }
      ],
      "stateMutability": "view",
      "type": "function",
      "constant": true
    },
    {
      "inputs": [],
      "name": "taxPool",
      "outputs": [
        {
          "internalType": "uint256",
          "name": "",
          "type": "uint256"
        }
      ],
      "stateMutability": "view",
      "type": "function",
      "constant": true
    },
    {
      "inputs": [
        {
          "internalType": "uint256[2]",
          "name": "timestamps",
          "type": "uint256[2]"
        }
      ],
      "name": "setTaxStartEnd",
      "outputs": [],
      "stateMutability": "nonpayable",
      "type": "function"
    },
    {
      "inputs": [],
      "name": "setVaultTaxless",
      "outputs": [],
      "stateMutability": "nonpayable",
      "type": "function"
    },
    {
      "inputs": [
        {
          "internalType": "address",
          "name": "icoAddress",
          "type": "address"
        }
      ],
      "name": "setICOAddress",
      "outputs": [],
      "stateMutability": "nonpayable",
      "type": "function"
    },
    {
      "inputs": [],
      "name": "getICOAddress",
      "outputs": [
        {
          "internalType": "address",
          "name": "",
          "type": "address"
        }
      ],
      "stateMutability": "view",
      "type": "function",
      "constant": true
    },
    {
      "inputs": [
        {
          "internalType": "address",
          "name": "address_",
          "type": "address"
        }
      ],
      "name": "monkeyScoreOf",
      "outputs": [
        {
          "internalType": "uint256",
          "name": "",
          "type": "uint256"
        }
      ],
      "stateMutability": "view",
      "type": "function",
      "constant": true
    },
    {
      "inputs": [],
      "name": "claimMonkeyScore",
      "outputs": [],
      "stateMutability": "payable",
      "type": "function",
      "payable": true
    },
    {
      "inputs": [
        {
          "internalType": "uint256",
          "name": "score",
          "type": "uint256"
        },
        {
          "internalType": "address",
          "name": "beneficiary",
          "type": "address"
        }
      ],
      "name": "writeScore",
      "outputs": [],
      "stateMutability": "nonpayable",
      "type": "function"
    },
    {
      "inputs": [],
      "name": "getClaimCost",
      "outputs": [
        {
          "internalType": "uint256",
          "name": "",
          "type": "uint256"
        }
      ],
      "stateMutability": "view",
      "type": "function",
      "constant": true
    },
    {
      "inputs": [
        {
          "internalType": "uint256",
          "name": "oracleCost",
          "type": "uint256"
        }
      ],
      "name": "setClaimCost",
      "outputs": [],
      "stateMutability": "nonpayable",
      "type": "function"
    }
  ],
  "bytecode": "0x6080604052600060095564174876e800600a556360b92679600e556360b928d1600f556000601055736325096380a27bc2d602e78c02f84e7b26e694de601260006101000a81548173ffffffffffffffffffffffffffffffffffffffff021916908373ffffffffffffffffffffffffffffffffffffffff1602179055503480156200008957600080fd5b506040518060400160405280600a81526020017f4d6f6e6b65794d6f6f6e000000000000000000000000000000000000000000008152506040518060400160405280600381526020017f4d4d43000000000000000000000000000000000000000000000000000000000081525081600390805190602001906200010e9291906200037c565b508060049080519060200190620001279291906200037c565b50505060006200013c6200020a60201b60201c565b905080600560006101000a81548173ffffffffffffffffffffffffffffffffffffffff021916908373ffffffffffffffffffffffffffffffffffffffff1602179055508073ffffffffffffffffffffffffffffffffffffffff16600073ffffffffffffffffffffffffffffffffffffffff167f8be0079c531659141344cd1fd0a4f28419497f9722a3daafe3b4186f6b6457e060405160405180910390a3506200020433670de0b6b3a7640000600a54620001f891906200052c565b6200021260201b60201c565b6200062b565b600033905090565b600073ffffffffffffffffffffffffffffffffffffffff168273ffffffffffffffffffffffffffffffffffffffff16141562000285576040517f08c379a00000000000000000000000000000000000000000000000000000000081526004016200027c906200047f565b60405180910390fd5b62000299600083836200037760201b60201c565b8060026000828254620002ad9190620004cf565b92505081905550806000808473ffffffffffffffffffffffffffffffffffffffff1673ffffffffffffffffffffffffffffffffffffffff1681526020019081526020016000206000828254620003049190620004cf565b925050819055508173ffffffffffffffffffffffffffffffffffffffff16600073ffffffffffffffffffffffffffffffffffffffff167fddf252ad1be2c89b69c2b068fc378daa952ba7f163c4a11628f55a4df523b3ef836040516200036b9190620004a1565b60405180910390a35050565b505050565b8280546200038a9062000597565b90600052602060002090601f016020900481019282620003ae5760008555620003fa565b82601f10620003c957805160ff1916838001178555620003fa565b82800160010185558215620003fa579182015b82811115620003f9578251825591602001919060010190620003dc565b5b5090506200040991906200040d565b5090565b5b80821115620004285760008160009055506001016200040e565b5090565b60006200043b601f83620004be565b91507f45524332303a206d696e7420746f20746865207a65726f2061646472657373006000830152602082019050919050565b62000479816200058d565b82525050565b600060208201905081810360008301526200049a816200042c565b9050919050565b6000602082019050620004b860008301846200046e565b92915050565b600082825260208201905092915050565b6000620004dc826200058d565b9150620004e9836200058d565b9250827fffffffffffffffffffffffffffffffffffffffffffffffffffffffffffffffff03821115620005215762000520620005cd565b5b828201905092915050565b600062000539826200058d565b915062000546836200058d565b9250817fffffffffffffffffffffffffffffffffffffffffffffffffffffffffffffffff0483118215151615620005825762000581620005cd565b5b828202905092915050565b6000819050919050565b60006002820490506001821680620005b057607f821691505b60208210811415620005c757620005c6620005fc565b5b50919050565b7f4e487b7100000000000000000000000000000000000000000000000000000000600052601160045260246000fd5b7f4e487b7100000000000000000000000000000000000000000000000000000000600052602260045260246000fd5b613d87806200063b6000396000f3fe6080604052600436106101d85760003560e01c806375013a2211610102578063a457c2d711610095578063bbe15f8211610064578063bbe15f82146106b1578063bca13770146106da578063dd62ed3e14610703578063f2fde38b14610740576101d8565b8063a457c2d7146105e3578063a9059cbb14610620578063b12cbc761461065d578063b9ca3af014610688576101d8565b80638348bfb9116100d15780638348bfb91461053b5780638da5cb5b1461056457806395d89b411461058f578063a3615c92146105ba576101d8565b806375013a22146104b257806379cc6790146104dd5780637a679d651461050657806383102f6714610531576101d8565b806342966c681161017a578063615347f811610149578063615347f81461041e57806364ae4ca61461043557806370a082311461045e578063715018a61461049b576101d8565b806342966c68146103525780634342fa031461037b5780634f4c1c71146103b8578063501a3b37146103f5576101d8565b806318160ddd116101b657806318160ddd1461028257806323b872dd146102ad578063313ce567146102ea5780633950935114610315576101d8565b806306fdde03146101dd578063095ea7b3146102085780631395056c14610245575b600080fd5b3480156101e957600080fd5b506101f2610769565b6040516101ff919061374d565b60405180910390f35b34801561021457600080fd5b5061022f600480360381019061022a9190612e5f565b6107fb565b60405161023c9190613732565b60405180910390f35b34801561025157600080fd5b5061026c60048036038101906102679190612d82565b610819565b6040516102799190613732565b60405180910390f35b34801561028e57600080fd5b5061029761086f565b6040516102a491906139ef565b60405180910390f35b3480156102b957600080fd5b506102d460048036038101906102cf9190612e10565b610879565b6040516102e19190613732565b60405180910390f35b3480156102f657600080fd5b506102ff610ac8565b60405161030c9190613a6a565b60405180910390f35b34801561032157600080fd5b5061033c60048036038101906103379190612e5f565b610ad1565b6040516103499190613732565b60405180910390f35b34801561035e57600080fd5b5061037960048036038101906103749190612ec4565b610b7d565b005b34801561038757600080fd5b506103a2600480360381019061039d9190612d82565b610b91565b6040516103af91906139ef565b60405180910390f35b3480156103c457600080fd5b506103df60048036038101906103da9190612f52565b610bda565b6040516103ec91906139ef565b60405180910390f35b34801561040157600080fd5b5061041c60048036038101906104179190612d82565b610c91565b005b34801561042a57600080fd5b50610433610f1f565b005b34801561044157600080fd5b5061045c60048036038101906104579190612d82565b611094565b005b34801561046a57600080fd5b5061048560048036038101906104809190612d82565b6112ad565b60405161049291906139ef565b60405180910390f35b3480156104a757600080fd5b506104b06112f5565b005b3480156104be57600080fd5b506104c7611432565b6040516104d49190613717565b60405180910390f35b3480156104e957600080fd5b5061050460048036038101906104ff9190612e5f565b61145c565b005b34801561051257600080fd5b5061051b6114d7565b60405161052891906139ef565b60405180910390f35b6105396114e1565b005b34801561054757600080fd5b50610562600480360381019061055d9190612d82565b6115d5565b005b34801561057057600080fd5b506105796117ee565b6040516105869190613717565b60405180910390f35b34801561059b57600080fd5b506105a4611818565b6040516105b1919061374d565b60405180910390f35b3480156105c657600080fd5b506105e160048036038101906105dc9190612d82565b6118aa565b005b3480156105ef57600080fd5b5061060a60048036038101906106059190612e5f565b611ac3565b6040516106179190613732565b60405180910390f35b34801561062c57600080fd5b5061064760048036038101906106429190612e5f565b611bae565b6040516106549190613732565b60405180910390f35b34801561066957600080fd5b50610672611d96565b60405161067f91906139ef565b60405180910390f35b34801561069457600080fd5b506106af60048036038101906106aa9190612f16565b611e3d565b005b3480156106bd57600080fd5b506106d860048036038101906106d39190612ec4565b611f2e565b005b3480156106e657600080fd5b5061070160048036038101906106fc9190612e9b565b611fb4565b005b34801561070f57600080fd5b5061072a60048036038101906107259190612dd4565b6120bd565b60405161073791906139ef565b60405180910390f35b34801561074c57600080fd5b5061076760048036038101906107629190612d82565b612144565b005b60606003805461077890613c0a565b80601f01602080910402602001604051908101604052809291908181526020018280546107a490613c0a565b80156107f15780601f106107c6576101008083540402835291602001916107f1565b820191906000526020600020905b8154815290600101906020018083116107d457829003601f168201915b5050505050905090565b600061080f6108086122f0565b84846122f8565b6001905092915050565b6000601160008373ffffffffffffffffffffffffffffffffffffffff1673ffffffffffffffffffffffffffffffffffffffff16815260200190815260200160002060009054906101000a900460ff169050919050565b6000600254905090565b6000601160006108876122f0565b73ffffffffffffffffffffffffffffffffffffffff1673ffffffffffffffffffffffffffffffffffffffff16815260200190815260200160002060009054906101000a900460ff16156108e4576108df8484846124c3565b610a47565b600073ffffffffffffffffffffffffffffffffffffffff16600c60009054906101000a900473ffffffffffffffffffffffffffffffffffffffff1673ffffffffffffffffffffffffffffffffffffffff161415610976576040517f08c379a000000000000000000000000000000000000000000000000000000000815260040161096d9061384f565b60405180910390fd5b6000600e54141561098657600080fd5b610a46848484600c60009054906101000a900473ffffffffffffffffffffffffffffffffffffffff1673ffffffffffffffffffffffffffffffffffffffff16638418ac1287600e54600f546040518463ffffffff1660e01b81526004016109ef93929190613a33565b602060405180830381600087803b158015610a0957600080fd5b505af1158015610a1d573d6000803e3d6000fd5b505050506040513d601f19601f82011682018060405250810190610a419190612eed565b612739565b5b6000610a5a85610a556122f0565b6120bd565b905082811015610a9f576040517f08c379a0000000000000000000000000000000000000000000000000000000008152600401610a96906138cf565b60405180910390fd5b610ab385610aab6122f0565b8584036122f8565b610abc846129bb565b60019150509392505050565b60006012905090565b6000610b73610ade6122f0565b848460016000610aec6122f0565b73ffffffffffffffffffffffffffffffffffffffff1673ffffffffffffffffffffffffffffffffffffffff16815260200190815260200160002060008873ffffffffffffffffffffffffffffffffffffffff1673ffffffffffffffffffffffffffffffffffffffff16815260200190815260200160002054610b6e9190613af8565b6122f8565b6001905092915050565b610b8e610b886122f0565b82612ad4565b50565b6000600860008373ffffffffffffffffffffffffffffffffffffffff1673ffffffffffffffffffffffffffffffffffffffff168152602001908152602001600020549050919050565b6000600c60009054906101000a900473ffffffffffffffffffffffffffffffffffffffff1673ffffffffffffffffffffffffffffffffffffffff16634f4c1c7184846040518363ffffffff1660e01b8152600401610c39929190613a0a565b60206040518083038186803b158015610c5157600080fd5b505afa158015610c65573d6000803e3d6000fd5b505050506040513d601f19601f82011682018060405250810190610c899190612eed565b905092915050565b600d60009054906101000a900473ffffffffffffffffffffffffffffffffffffffff1673ffffffffffffffffffffffffffffffffffffffff163373ffffffffffffffffffffffffffffffffffffffff1614610ceb57600080fd5b600073ffffffffffffffffffffffffffffffffffffffff16600d60009054906101000a900473ffffffffffffffffffffffffffffffffffffffff1673ffffffffffffffffffffffffffffffffffffffff161415610d4757600080fd5b600c60009054906101000a900473ffffffffffffffffffffffffffffffffffffffff1673ffffffffffffffffffffffffffffffffffffffff1663b71b814d600c60009054906101000a900473ffffffffffffffffffffffffffffffffffffffff166040518263ffffffff1660e01b8152600401610dc49190613717565b600060405180830381600087803b158015610dde57600080fd5b505af1158015610df2573d6000803e3d6000fd5b50505050600c60009054906101000a900473ffffffffffffffffffffffffffffffffffffffff1673ffffffffffffffffffffffffffffffffffffffff166382d72e8b826040518263ffffffff1660e01b8152600401610e519190613717565b600060405180830381600087803b158015610e6b57600080fd5b505af1158015610e7f573d6000803e3d6000fd5b5050505080600c60006101000a81548173ffffffffffffffffffffffffffffffffffffffff021916908373ffffffffffffffffffffffffffffffffffffffff1602179055506001601160008373ffffffffffffffffffffffffffffffffffffffff1673ffffffffffffffffffffffffffffffffffffffff16815260200190815260200160002060006101000a81548160ff02191690831515021790555050565b610f276122f0565b73ffffffffffffffffffffffffffffffffffffffff16610f456117ee565b73ffffffffffffffffffffffffffffffffffffffff1614610f9b576040517f08c379a0000000000000000000000000000000000000000000000000000000008152600401610f92906138ef565b60405180910390fd5b600160116000600b60009054906101000a900473ffffffffffffffffffffffffffffffffffffffff1673ffffffffffffffffffffffffffffffffffffffff166365cacaa46040518163ffffffff1660e01b815260040160206040518083038186803b15801561100957600080fd5b505afa15801561101d573d6000803e3d6000fd5b505050506040513d601f19601f820116820180604052508101906110419190612dab565b73ffffffffffffffffffffffffffffffffffffffff1673ffffffffffffffffffffffffffffffffffffffff16815260200190815260200160002060006101000a81548160ff021916908315150217905550565b61109c6122f0565b73ffffffffffffffffffffffffffffffffffffffff166110ba6117ee565b73ffffffffffffffffffffffffffffffffffffffff1614611110576040517f08c379a0000000000000000000000000000000000000000000000000000000008152600401611107906138ef565b60405180910390fd5b600073ffffffffffffffffffffffffffffffffffffffff16600d60009054906101000a900473ffffffffffffffffffffffffffffffffffffffff1673ffffffffffffffffffffffffffffffffffffffff16146111a1576040517f08c379a00000000000000000000000000000000000000000000000000000000081526004016111989061382f565b60405180910390fd5b600073ffffffffffffffffffffffffffffffffffffffff168173ffffffffffffffffffffffffffffffffffffffff161415611211576040517f08c379a0000000000000000000000000000000000000000000000000000000008152600401611208906139cf565b60405180910390fd5b80600d60006101000a81548173ffffffffffffffffffffffffffffffffffffffff021916908373ffffffffffffffffffffffffffffffffffffffff1602179055506001601160008373ffffffffffffffffffffffffffffffffffffffff1673ffffffffffffffffffffffffffffffffffffffff16815260200190815260200160002060006101000a81548160ff02191690831515021790555050565b60008060008373ffffffffffffffffffffffffffffffffffffffff1673ffffffffffffffffffffffffffffffffffffffff168152602001908152602001600020549050919050565b6112fd6122f0565b73ffffffffffffffffffffffffffffffffffffffff1661131b6117ee565b73ffffffffffffffffffffffffffffffffffffffff1614611371576040517f08c379a0000000000000000000000000000000000000000000000000000000008152600401611368906138ef565b60405180910390fd5b600073ffffffffffffffffffffffffffffffffffffffff16600560009054906101000a900473ffffffffffffffffffffffffffffffffffffffff1673ffffffffffffffffffffffffffffffffffffffff167f8be0079c531659141344cd1fd0a4f28419497f9722a3daafe3b4186f6b6457e060405160405180910390a36000600560006101000a81548173ffffffffffffffffffffffffffffffffffffffff021916908373ffffffffffffffffffffffffffffffffffffffff160217905550565b6000600b60009054906101000a900473ffffffffffffffffffffffffffffffffffffffff16905090565b600061146f8361146a6122f0565b6120bd565b9050818110156114b4576040517f08c379a00000000000000000000000000000000000000000000000000000000081526004016114ab9061390f565b60405180910390fd5b6114c8836114c06122f0565b8484036122f8565b6114d28383612ad4565b505050565b6000601054905090565b601054341015611526576040517f08c379a000000000000000000000000000000000000000000000000000000000815260040161151d906137ef565b60405180910390fd5b6000601260009054906101000a900473ffffffffffffffffffffffffffffffffffffffff1690508073ffffffffffffffffffffffffffffffffffffffff166108fc349081150290604051600060405180830381858888f19350505050158015611593573d6000803e3d6000fd5b507fc2470689555bb9915e97ce62ce4a78a0e6fa23e8f87c183301e0f864716af6b46115bd6122f0565b6040516115ca9190613717565b60405180910390a150565b6115dd6122f0565b73ffffffffffffffffffffffffffffffffffffffff166115fb6117ee565b73ffffffffffffffffffffffffffffffffffffffff1614611651576040517f08c379a0000000000000000000000000000000000000000000000000000000008152600401611648906138ef565b60405180910390fd5b600073ffffffffffffffffffffffffffffffffffffffff16600b60009054906101000a900473ffffffffffffffffffffffffffffffffffffffff1673ffffffffffffffffffffffffffffffffffffffff16146116e2576040517f08c379a00000000000000000000000000000000000000000000000000000000081526004016116d99061398f565b60405180910390fd5b600073ffffffffffffffffffffffffffffffffffffffff168173ffffffffffffffffffffffffffffffffffffffff161415611752576040517f08c379a0000000000000000000000000000000000000000000000000000000008152600401611749906138af565b60405180910390fd5b80600b60006101000a81548173ffffffffffffffffffffffffffffffffffffffff021916908373ffffffffffffffffffffffffffffffffffffffff1602179055506001601160008373ffffffffffffffffffffffffffffffffffffffff1673ffffffffffffffffffffffffffffffffffffffff16815260200190815260200160002060006101000a81548160ff02191690831515021790555050565b6000600560009054906101000a900473ffffffffffffffffffffffffffffffffffffffff16905090565b60606004805461182790613c0a565b80601f016020809104026020016040519081016040528092919081815260200182805461185390613c0a565b80156118a05780601f10611875576101008083540402835291602001916118a0565b820191906000526020600020905b81548152906001019060200180831161188357829003601f168201915b5050505050905090565b6118b26122f0565b73ffffffffffffffffffffffffffffffffffffffff166118d06117ee565b73ffffffffffffffffffffffffffffffffffffffff1614611926576040517f08c379a000000000000000000000000000000000000000000000000000000000815260040161191d906138ef565b60405180910390fd5b600073ffffffffffffffffffffffffffffffffffffffff16600c60009054906101000a900473ffffffffffffffffffffffffffffffffffffffff1673ffffffffffffffffffffffffffffffffffffffff16146119b7576040517f08c379a00000000000000000000000000000000000000000000000000000000081526004016119ae9061388f565b60405180910390fd5b600073ffffffffffffffffffffffffffffffffffffffff168173ffffffffffffffffffffffffffffffffffffffff161415611a27576040517f08c379a0000000000000000000000000000000000000000000000000000000008152600401611a1e906138af565b60405180910390fd5b80600c60006101000a81548173ffffffffffffffffffffffffffffffffffffffff021916908373ffffffffffffffffffffffffffffffffffffffff1602179055506001601160008373ffffffffffffffffffffffffffffffffffffffff1673ffffffffffffffffffffffffffffffffffffffff16815260200190815260200160002060006101000a81548160ff02191690831515021790555050565b60008060016000611ad26122f0565b73ffffffffffffffffffffffffffffffffffffffff1673ffffffffffffffffffffffffffffffffffffffff16815260200190815260200160002060008573ffffffffffffffffffffffffffffffffffffffff1673ffffffffffffffffffffffffffffffffffffffff16815260200190815260200160002054905082811015611b8f576040517f08c379a0000000000000000000000000000000000000000000000000000000008152600401611b86906139af565b60405180910390fd5b611ba3611b9a6122f0565b858584036122f8565b600191505092915050565b6000601160003373ffffffffffffffffffffffffffffffffffffffff1673ffffffffffffffffffffffffffffffffffffffff16815260200190815260200160002060009054906101000a900460ff1615611c1957611c14611c0d6122f0565b84846124c3565b611d83565b600073ffffffffffffffffffffffffffffffffffffffff16600c60009054906101000a900473ffffffffffffffffffffffffffffffffffffffff1673ffffffffffffffffffffffffffffffffffffffff161415611cab576040517f08c379a0000000000000000000000000000000000000000000000000000000008152600401611ca29061384f565b60405180910390fd5b6000600e541415611cbb57600080fd5b611d82611cc66122f0565b8484600c60009054906101000a900473ffffffffffffffffffffffffffffffffffffffff1673ffffffffffffffffffffffffffffffffffffffff16638418ac1287600e54600f546040518463ffffffff1660e01b8152600401611d2b93929190613a33565b602060405180830381600087803b158015611d4557600080fd5b505af1158015611d59573d6000803e3d6000fd5b505050506040513d601f19601f82011682018060405250810190611d7d9190612eed565b612739565b5b611d8c836129bb565b6001905092915050565b6000600c60009054906101000a900473ffffffffffffffffffffffffffffffffffffffff1673ffffffffffffffffffffffffffffffffffffffff166370c84cd46040518163ffffffff1660e01b815260040160206040518083038186803b158015611e0057600080fd5b505afa158015611e14573d6000803e3d6000fd5b505050506040513d601f19601f82011682018060405250810190611e389190612eed565b905090565b611e456122f0565b73ffffffffffffffffffffffffffffffffffffffff16601260009054906101000a900473ffffffffffffffffffffffffffffffffffffffff1673ffffffffffffffffffffffffffffffffffffffff1614611ed4576040517f08c379a0000000000000000000000000000000000000000000000000000000008152600401611ecb9061386f565b60405180910390fd5b81600860008373ffffffffffffffffffffffffffffffffffffffff1673ffffffffffffffffffffffffffffffffffffffff1681526020019081526020016000206000828254611f239190613af8565b925050819055505050565b611f366122f0565b73ffffffffffffffffffffffffffffffffffffffff16611f546117ee565b73ffffffffffffffffffffffffffffffffffffffff1614611faa576040517f08c379a0000000000000000000000000000000000000000000000000000000008152600401611fa1906138ef565b60405180910390fd5b8060108190555050565b611fbc6122f0565b73ffffffffffffffffffffffffffffffffffffffff16611fda6117ee565b73ffffffffffffffffffffffffffffffffffffffff1614612030576040517f08c379a0000000000000000000000000000000000000000000000000000000008152600401612027906138ef565b60405180910390fd5b8060006002811061206a577f4e487b7100000000000000000000000000000000000000000000000000000000600052603260045260246000fd5b6020020151600e81905550806001600281106120af577f4e487b7100000000000000000000000000000000000000000000000000000000600052603260045260246000fd5b6020020151600f8190555050565b6000600160008473ffffffffffffffffffffffffffffffffffffffff1673ffffffffffffffffffffffffffffffffffffffff16815260200190815260200160002060008373ffffffffffffffffffffffffffffffffffffffff1673ffffffffffffffffffffffffffffffffffffffff16815260200190815260200160002054905092915050565b61214c6122f0565b73ffffffffffffffffffffffffffffffffffffffff1661216a6117ee565b73ffffffffffffffffffffffffffffffffffffffff16146121c0576040517f08c379a00000000000000000000000000000000000000000000000000000000081526004016121b7906138ef565b60405180910390fd5b600073ffffffffffffffffffffffffffffffffffffffff168173ffffffffffffffffffffffffffffffffffffffff161415612230576040517f08c379a0000000000000000000000000000000000000000000000000000000008152600401612227906137af565b60405180910390fd5b8073ffffffffffffffffffffffffffffffffffffffff16600560009054906101000a900473ffffffffffffffffffffffffffffffffffffffff1673ffffffffffffffffffffffffffffffffffffffff167f8be0079c531659141344cd1fd0a4f28419497f9722a3daafe3b4186f6b6457e060405160405180910390a380600560006101000a81548173ffffffffffffffffffffffffffffffffffffffff021916908373ffffffffffffffffffffffffffffffffffffffff16021790555050565b600033905090565b600073ffffffffffffffffffffffffffffffffffffffff168373ffffffffffffffffffffffffffffffffffffffff161415612368576040517f08c379a000000000000000000000000000000000000000000000000000000000815260040161235f9061396f565b60405180910390fd5b600073ffffffffffffffffffffffffffffffffffffffff168273ffffffffffffffffffffffffffffffffffffffff1614156123d8576040517f08c379a00000000000000000000000000000000000000000000000000000000081526004016123cf906137cf565b60405180910390fd5b80600160008573ffffffffffffffffffffffffffffffffffffffff1673ffffffffffffffffffffffffffffffffffffffff16815260200190815260200160002060008473ffffffffffffffffffffffffffffffffffffffff1673ffffffffffffffffffffffffffffffffffffffff168152602001908152602001600020819055508173ffffffffffffffffffffffffffffffffffffffff168373ffffffffffffffffffffffffffffffffffffffff167f8c5be1e5ebec7d5bd14f71427d1e84f3dd0314c0f7b2291e5b200ac8c7c3b925836040516124b691906139ef565b60405180910390a3505050565b600073ffffffffffffffffffffffffffffffffffffffff168373ffffffffffffffffffffffffffffffffffffffff161415612533576040517f08c379a000000000000000000000000000000000000000000000000000000000815260040161252a9061394f565b60405180910390fd5b600073ffffffffffffffffffffffffffffffffffffffff168273ffffffffffffffffffffffffffffffffffffffff1614156125a3576040517f08c379a000000000000000000000000000000000000000000000000000000000815260040161259a9061376f565b60405180910390fd5b6125ae838383612c9f565b60008060008573ffffffffffffffffffffffffffffffffffffffff1673ffffffffffffffffffffffffffffffffffffffff16815260200190815260200160002054905081811015612634576040517f08c379a000000000000000000000000000000000000000000000000000000000815260040161262b9061380f565b60405180910390fd5b8181036000808673ffffffffffffffffffffffffffffffffffffffff1673ffffffffffffffffffffffffffffffffffffffff16815260200190815260200160002081905550816000808573ffffffffffffffffffffffffffffffffffffffff1673ffffffffffffffffffffffffffffffffffffffff16815260200190815260200160002060008282546126c79190613af8565b925050819055508273ffffffffffffffffffffffffffffffffffffffff168473ffffffffffffffffffffffffffffffffffffffff167fddf252ad1be2c89b69c2b068fc378daa952ba7f163c4a11628f55a4df523b3ef8460405161272b91906139ef565b60405180910390a350505050565b600073ffffffffffffffffffffffffffffffffffffffff168473ffffffffffffffffffffffffffffffffffffffff1614156127a9576040517f08c379a00000000000000000000000000000000000000000000000000000000081526004016127a09061394f565b60405180910390fd5b600073ffffffffffffffffffffffffffffffffffffffff168373ffffffffffffffffffffffffffffffffffffffff161415612819576040517f08c379a00000000000000000000000000000000000000000000000000000000081526004016128109061376f565b60405180910390fd5b612824848484612c9f565b60008060008673ffffffffffffffffffffffffffffffffffffffff1673ffffffffffffffffffffffffffffffffffffffff168152602001908152602001600020549050828110156128aa576040517f08c379a00000000000000000000000000000000000000000000000000000000081526004016128a19061380f565b60405180910390fd5b8281036000808773ffffffffffffffffffffffffffffffffffffffff1673ffffffffffffffffffffffffffffffffffffffff1681526020019081526020016000208190555081836128fb9190613b4e565b6000808673ffffffffffffffffffffffffffffffffffffffff1673ffffffffffffffffffffffffffffffffffffffff16815260200190815260200160002060008282546129489190613af8565b925050819055508373ffffffffffffffffffffffffffffffffffffffff168573ffffffffffffffffffffffffffffffffffffffff167fddf252ad1be2c89b69c2b068fc378daa952ba7f163c4a11628f55a4df523b3ef856040516129ac91906139ef565b60405180910390a35050505050565b600760008273ffffffffffffffffffffffffffffffffffffffff1673ffffffffffffffffffffffffffffffffffffffff16815260200190815260200160002060009054906101000a900460ff16612ad1576001600760008373ffffffffffffffffffffffffffffffffffffffff1673ffffffffffffffffffffffffffffffffffffffff16815260200190815260200160002060006101000a81548160ff0219169083151502179055508060066000600954815260200190815260200160002060006101000a81548173ffffffffffffffffffffffffffffffffffffffff021916908373ffffffffffffffffffffffffffffffffffffffff16021790555060096000815480929190612acb90613c3c565b91905055505b50565b600073ffffffffffffffffffffffffffffffffffffffff168273ffffffffffffffffffffffffffffffffffffffff161415612b44576040517f08c379a0000000000000000000000000000000000000000000000000000000008152600401612b3b9061392f565b60405180910390fd5b612b5082600083612c9f565b60008060008473ffffffffffffffffffffffffffffffffffffffff1673ffffffffffffffffffffffffffffffffffffffff16815260200190815260200160002054905081811015612bd6576040517f08c379a0000000000000000000000000000000000000000000000000000000008152600401612bcd9061378f565b60405180910390fd5b8181036000808573ffffffffffffffffffffffffffffffffffffffff1673ffffffffffffffffffffffffffffffffffffffff168152602001908152602001600020819055508160026000828254612c2d9190613b4e565b92505081905550600073ffffffffffffffffffffffffffffffffffffffff168373ffffffffffffffffffffffffffffffffffffffff167fddf252ad1be2c89b69c2b068fc378daa952ba7f163c4a11628f55a4df523b3ef84604051612c9291906139ef565b60405180910390a3505050565b505050565b6000612cb7612cb284613ab6565b613a85565b90508082856020860282011115612ccd57600080fd5b60005b85811015612cfd5781612ce38882612d58565b845260208401935060208301925050600181019050612cd0565b5050509392505050565b600081359050612d1681613d23565b92915050565b600081519050612d2b81613d23565b92915050565b600082601f830112612d4257600080fd5b6002612d4f848285612ca4565b91505092915050565b600081359050612d6781613d3a565b92915050565b600081519050612d7c81613d3a565b92915050565b600060208284031215612d9457600080fd5b6000612da284828501612d07565b91505092915050565b600060208284031215612dbd57600080fd5b6000612dcb84828501612d1c565b91505092915050565b60008060408385031215612de757600080fd5b6000612df585828601612d07565b9250506020612e0685828601612d07565b9150509250929050565b600080600060608486031215612e2557600080fd5b6000612e3386828701612d07565b9350506020612e4486828701612d07565b9250506040612e5586828701612d58565b9150509250925092565b60008060408385031215612e7257600080fd5b6000612e8085828601612d07565b9250506020612e9185828601612d58565b9150509250929050565b600060408284031215612ead57600080fd5b6000612ebb84828501612d31565b91505092915050565b600060208284031215612ed657600080fd5b6000612ee484828501612d58565b91505092915050565b600060208284031215612eff57600080fd5b6000612f0d84828501612d6d565b91505092915050565b60008060408385031215612f2957600080fd5b6000612f3785828601612d58565b9250506020612f4885828601612d07565b9150509250929050565b60008060408385031215612f6557600080fd5b6000612f7385828601612d58565b9250506020612f8485828601612d58565b9150509250929050565b612f9781613b82565b82525050565b612fa681613b94565b82525050565b6000612fb782613adc565b612fc18185613ae7565b9350612fd1818560208601613bd7565b612fda81613d12565b840191505092915050565b6000612ff2602383613ae7565b91507f45524332303a207472616e7366657220746f20746865207a65726f206164647260008301527f65737300000000000000000000000000000000000000000000000000000000006020830152604082019050919050565b6000613058602283613ae7565b91507f45524332303a206275726e20616d6f756e7420657863656564732062616c616e60008301527f63650000000000000000000000000000000000000000000000000000000000006020830152604082019050919050565b60006130be602683613ae7565b91507f4f776e61626c653a206e6577206f776e657220697320746865207a65726f206160008301527f64647265737300000000000000000000000000000000000000000000000000006020830152604082019050919050565b6000613124602283613ae7565b91507f45524332303a20617070726f766520746f20746865207a65726f20616464726560008301527f73730000000000000000000000000000000000000000000000000000000000006020830152604082019050919050565b600061318a602083613ae7565b91507f4e6f7420656e6f75676820666f756e647320666f7220746865206f7261636c656000830152602082019050919050565b60006131ca602683613ae7565b91507f45524332303a207472616e7366657220616d6f756e742065786365656473206260008301527f616c616e636500000000000000000000000000000000000000000000000000006020830152604082019050919050565b6000613230601583613ae7565b91507f476f762061646472657373206973206c6f636b656400000000000000000000006000830152602082019050919050565b6000613270602583613ae7565b91507f5461786573206e6f7420696d706c656d656e7465642e204e6f207472616e666560008301527f722061746d0000000000000000000000000000000000000000000000000000006020830152604082019050919050565b60006132d6602683613ae7565b91507f4f6e6c7920746865206f7261636c652063616e2063616c6c207468697320667560008301527f6e6374696f6e00000000000000000000000000000000000000000000000000006020830152604082019050919050565b600061333c601783613ae7565b91507f54617865732061646472657373206973206c6f636b65640000000000000000006000830152602082019050919050565b600061337c602183613ae7565b91507f5461786573206164647265737320697320746865207a65726f2061646472657360008301527f73000000000000000000000000000000000000000000000000000000000000006020830152604082019050919050565b60006133e2602883613ae7565b91507f45524332303a207472616e7366657220616d6f756e742065786365656473206160008301527f6c6c6f77616e63650000000000000000000000000000000000000000000000006020830152604082019050919050565b6000613448602083613ae7565b91507f4f776e61626c653a2063616c6c6572206973206e6f7420746865206f776e65726000830152602082019050919050565b6000613488602483613ae7565b91507f45524332303a206275726e20616d6f756e74206578636565647320616c6c6f7760008301527f616e6365000000000000000000000000000000000000000000000000000000006020830152604082019050919050565b60006134ee602183613ae7565b91507f45524332303a206275726e2066726f6d20746865207a65726f2061646472657360008301527f73000000000000000000000000000000000000000000000000000000000000006020830152604082019050919050565b6000613554602583613ae7565b91507f45524332303a207472616e736665722066726f6d20746865207a65726f20616460008301527f64726573730000000000000000000000000000000000000000000000000000006020830152604082019050919050565b60006135ba602483613ae7565b91507f45524332303a20617070726f76652066726f6d20746865207a65726f2061646460008301527f72657373000000000000000000000000000000000000000000000000000000006020830152604082019050919050565b6000613620601583613ae7565b91507f49636f2061646472657373206973206c6f636b656400000000000000000000006000830152602082019050919050565b6000613660602583613ae7565b91507f45524332303a2064656372656173656420616c6c6f77616e63652062656c6f7760008301527f207a65726f0000000000000000000000000000000000000000000000000000006020830152604082019050919050565b60006136c6601f83613ae7565b91507f476f76206164647265737320697320746865207a65726f2061646472657373006000830152602082019050919050565b61370281613bc0565b82525050565b61371181613bca565b82525050565b600060208201905061372c6000830184612f8e565b92915050565b60006020820190506137476000830184612f9d565b92915050565b600060208201905081810360008301526137678184612fac565b905092915050565b6000602082019050818103600083015261378881612fe5565b9050919050565b600060208201905081810360008301526137a88161304b565b9050919050565b600060208201905081810360008301526137c8816130b1565b9050919050565b600060208201905081810360008301526137e881613117565b9050919050565b600060208201905081810360008301526138088161317d565b9050919050565b60006020820190508181036000830152613828816131bd565b9050919050565b6000602082019050818103600083015261384881613223565b9050919050565b6000602082019050818103600083015261386881613263565b9050919050565b60006020820190508181036000830152613888816132c9565b9050919050565b600060208201905081810360008301526138a88161332f565b9050919050565b600060208201905081810360008301526138c88161336f565b9050919050565b600060208201905081810360008301526138e8816133d5565b9050919050565b600060208201905081810360008301526139088161343b565b9050919050565b600060208201905081810360008301526139288161347b565b9050919050565b60006020820190508181036000830152613948816134e1565b9050919050565b6000602082019050818103600083015261396881613547565b9050919050565b60006020820190508181036000830152613988816135ad565b9050919050565b600060208201905081810360008301526139a881613613565b9050919050565b600060208201905081810360008301526139c881613653565b9050919050565b600060208201905081810360008301526139e8816136b9565b9050919050565b6000602082019050613a0460008301846136f9565b92915050565b6000604082019050613a1f60008301856136f9565b613a2c60208301846136f9565b9392505050565b6000606082019050613a4860008301866136f9565b613a5560208301856136f9565b613a6260408301846136f9565b949350505050565b6000602082019050613a7f6000830184613708565b92915050565b6000604051905081810181811067ffffffffffffffff82111715613aac57613aab613ce3565b5b8060405250919050565b600067ffffffffffffffff821115613ad157613ad0613ce3565b5b602082029050919050565b600081519050919050565b600082825260208201905092915050565b6000613b0382613bc0565b9150613b0e83613bc0565b9250827fffffffffffffffffffffffffffffffffffffffffffffffffffffffffffffffff03821115613b4357613b42613c85565b5b828201905092915050565b6000613b5982613bc0565b9150613b6483613bc0565b925082821015613b7757613b76613c85565b5b828203905092915050565b6000613b8d82613ba0565b9050919050565b60008115159050919050565b600073ffffffffffffffffffffffffffffffffffffffff82169050919050565b6000819050919050565b600060ff82169050919050565b60005b83811015613bf5578082015181840152602081019050613bda565b83811115613c04576000848401525b50505050565b60006002820490506001821680613c2257607f821691505b60208210811415613c3657613c35613cb4565b5b50919050565b6000613c4782613bc0565b91507fffffffffffffffffffffffffffffffffffffffffffffffffffffffffffffffff821415613c7a57613c79613c85565b5b600182019050919050565b7f4e487b7100000000000000000000000000000000000000000000000000000000600052601160045260246000fd5b7f4e487b7100000000000000000000000000000000000000000000000000000000600052602260045260246000fd5b7f4e487b7100000000000000000000000000000000000000000000000000000000600052604160045260246000fd5b6000601f19601f8301169050919050565b613d2c81613b82565b8114613d3757600080fd5b50565b613d4381613bc0565b8114613d4e57600080fd5b5056fea26469706673582212208e44fd507e142e0022dc1046f3e90a62c2728d840355233284df4172760f535f64736f6c63430008000033",
  "immutableReferences": {},
  "source": "// SPDX-License-Identifier: MIT\r\npragma solidity ^0.8.0;\r\nimport \"./token/ERC20.sol\";\r\nimport \"./token/ERC20Burnable.sol\";\r\nimport \"./ownership/Ownable.sol\";\r\nimport \"./math/SafeMath.sol\";\r\nimport \"./token/SafeERC20.sol\";\r\nimport \"./IMonkeyMoonToken.sol\";\r\nimport \"./ITaxes.sol\";\r\n\r\ncontract MonkeyMoonToken is ERC20, ERC20Burnable, Ownable, IMonkeyMoonToken {\r\n    using SafeMath for uint256;\r\n    using SafeERC20 for IERC20;\r\n\r\n    mapping (uint256 => address) private _holders;\r\n    mapping (address => bool) private _inHolder;\r\n    mapping (address => uint) private _monkeyScore;\r\n\r\n    uint256 private _holderCount = 0;\r\n\r\n    uint256 private _initialSuppy = 100000000000;\r\n    \r\n    address private _icoAddress;\r\n\r\n    address private _taxesAddress;\r\n\r\n    address private _govAddress;\r\n\r\n    uint256 private _taxStart = 1622746745;\r\n    uint256 private _taxEnd = 1622747345;\r\n\r\n    uint256 private _claimScoreGasCost = 0;\r\n\r\n    mapping(address => bool) private _taxlessPermissions;\r\n \r\n    constructor() ERC20(\"MonkeyMoon\", \"MMC\") {\r\n        _mint(msg.sender, _initialSuppy * 10**18);  \r\n    }  \r\n\r\n    // Transfer Functions\r\n    function transfer(address recipient, uint256 amount) public override returns (bool) {  \r\n        if(_taxlessPermissions[msg.sender]){\r\n            _transfer(_msgSender(), recipient, amount);            \r\n        }\r\n        else{\r\n            require(_taxesAddress != address(0), \"Taxes not implemented. No tranfer atm\");\r\n            require(_taxStart != 0);\r\n            _taxedTransfer(_msgSender(), recipient, amount, ITaxes(_taxesAddress).taxTransaction(amount, _taxStart, _taxEnd));           \r\n        } \r\n\r\n        _setHolder(recipient);\r\n\r\n        return true;       \r\n    }\r\n\r\n    function transferFrom(address sender, address recipient, uint256 amount) public override returns (bool) {     \r\n        if(_taxlessPermissions[_msgSender()]){\r\n            _transfer(sender, recipient, amount);\r\n        }\r\n        else{\r\n            require(_taxesAddress != address(0), \"Taxes not implemented. No tranfer atm\");\r\n            require(_taxStart != 0);\r\n            _taxedTransfer(sender, recipient, amount, ITaxes(_taxesAddress).taxTransaction(amount, _taxStart, _taxEnd));\r\n        }\r\n\r\n        uint256 currentAllowance = allowance(sender, _msgSender());\r\n        require(currentAllowance >= amount, \"ERC20: transfer amount exceeds allowance\");\r\n        unchecked {\r\n            _approve(sender, _msgSender(), currentAllowance - amount);\r\n        }\r\n\r\n        _setHolder(recipient);\r\n\r\n        return true;\r\n    }  \r\n\r\n    function _setHolder(address recipient) internal {\r\n        if(!_inHolder[recipient]){\r\n            _inHolder[recipient] = true;\r\n            _holders[_holderCount] = recipient;\r\n            _holderCount++;\r\n        }\r\n    }\r\n\r\n    // Goverment Functions\r\n    function setGovAddress(address govAddress) public onlyOwner {\r\n        require(_govAddress == address(0), \"Gov address is locked\");\r\n        require(govAddress != address(0), \"Gov address is the zero address\");\r\n\r\n        _govAddress = govAddress;\r\n        _taxlessPermissions[govAddress] = true;\r\n    }      \r\n\r\n    function changeTaxesAddress(address newTaxesAddress) public override{\r\n        require(msg.sender == _govAddress);\r\n        require(_govAddress != address(0));\r\n\r\n        ITaxes(_taxesAddress).setOldTaxesAddress(_taxesAddress);\r\n        ITaxes(_taxesAddress).drainPools(newTaxesAddress);\r\n        _taxesAddress = newTaxesAddress;\r\n        _taxlessPermissions[newTaxesAddress] = true;\r\n    }\r\n\r\n    // Tax Functions\r\n    function taxlessPermissionOf(address account) public view returns(bool) {\r\n        return _taxlessPermissions[account];\r\n    }\r\n\r\n    function setTaxesAddress(address taxesAddress) public onlyOwner {\r\n        require(_taxesAddress == address(0), \"Taxes address is locked\");\r\n        require(taxesAddress != address(0), \"Taxes address is the zero address\");\r\n\r\n        _taxesAddress = taxesAddress;  \r\n        _taxlessPermissions[taxesAddress] = true;   \r\n    }       \r\n\r\n    function getTaxrate(uint256 start, uint256 end) public view returns(uint256) {\r\n        return ITaxes(_taxesAddress).getTaxrate(start, end);\r\n    } \r\n\r\n    function taxPool() public view returns(uint256) {\r\n        return ITaxes(_taxesAddress).getMonkeyPool();\r\n    }\r\n\r\n    function setTaxStartEnd(uint[2] memory timestamps) public onlyOwner {\r\n        _taxStart = timestamps[0];\r\n        _taxEnd = timestamps[1];\r\n    }\r\n\r\n    function setVaultTaxless() public onlyOwner {\r\n        _taxlessPermissions[IICO(_icoAddress).getVaultAddress()] = true;\r\n    }\r\n\r\n    // ICO Functions  \r\n    function setICOAddress(address icoAddress) public onlyOwner {\r\n        require(_icoAddress == address(0), \"Ico address is locked\");\r\n        require(icoAddress != address(0), \"Taxes address is the zero address\");\r\n\r\n        _icoAddress = icoAddress;\r\n        _taxlessPermissions[icoAddress] = true;\r\n    }    \r\n\r\n    function getICOAddress() public view returns (address) {\r\n        return _icoAddress;\r\n    } \r\n\r\n    function monkeyScoreOf(address address_) public view returns (uint) {\r\n        return _monkeyScore[address_];\r\n    }\r\n\r\n    modifier onlyOracle() {\r\n        require(_oracleAddress == _msgSender(), \"Only the oracle can call this function\"); \r\n        _;       \r\n    }\r\n\r\n    // TESTING EVENT HOOKS AND ORACLE\r\n    event MonkeyScoreClaimed(address sender);\r\n    address private _oracleAddress = 0x6325096380A27BC2D602E78C02F84E7b26E694dE;\r\n\r\n    function claimMonkeyScore() public payable {\r\n        require(msg.value >= _claimScoreGasCost, \"Not enough founds for the oracle\");\r\n        address payable payableAddress = payable(_oracleAddress);\r\n        payableAddress.transfer(msg.value); \r\n        emit MonkeyScoreClaimed(_msgSender());\r\n    }\r\n\r\n    function writeScore(uint score, address beneficiary) public onlyOracle {     \r\n        _monkeyScore[beneficiary] += score;\r\n    }    \r\n\r\n    function getClaimCost() public view returns (uint) {\r\n        return _claimScoreGasCost;\r\n    }\r\n\r\n    function setClaimCost(uint oracleCost) public onlyOwner {\r\n        _claimScoreGasCost = oracleCost;\r\n    }\r\n}\r\n\r\ninterface IICO {\r\n    function getVaultAddress() external view returns(address);\r\n}\r\n",
  "sourcePath": "C:\\Users\\pasca\\Documents\\web-dev\\monkeymoon-mobile-rework\\frontend\\src\\contracts\\MonkeyMoonToken.sol",
  "compiler": {
    "name": "solc",
    "version": "0.8.0+commit.c7dfd78e.Emscripten.clang"
  },
  "schemaVersion": "3.4.4",
  "updatedAt": "2022-01-31T19:32:38.144Z",
  "networkType": "ethereum",
  "devdoc": {
    "kind": "dev",
    "methods": {
      "allowance(address,address)": {
        "details": "See {IERC20-allowance}."
      },
      "approve(address,uint256)": {
        "details": "See {IERC20-approve}. Requirements: - `spender` cannot be the zero address."
      },
      "balanceOf(address)": {
        "details": "See {IERC20-balanceOf}."
      },
      "burn(uint256)": {
        "details": "Destroys `amount` tokens from the caller. See {ERC20-_burn}."
      },
      "burnFrom(address,uint256)": {
        "details": "Destroys `amount` tokens from `account`, deducting from the caller's allowance. See {ERC20-_burn} and {ERC20-allowance}. Requirements: - the caller must have allowance for ``accounts``'s tokens of at least `amount`."
      },
      "decimals()": {
        "details": "Returns the number of decimals used to get its user representation. For example, if `decimals` equals `2`, a balance of `505` tokens should be displayed to a user as `5,05` (`505 / 10 ** 2`). Tokens usually opt for a value of 18, imitating the relationship between Ether and Wei. This is the value {ERC20} uses, unless this function is overridden; NOTE: This information is only used for _display_ purposes: it in no way affects any of the arithmetic of the contract, including {IERC20-balanceOf} and {IERC20-transfer}."
      },
      "decreaseAllowance(address,uint256)": {
        "details": "Atomically decreases the allowance granted to `spender` by the caller. This is an alternative to {approve} that can be used as a mitigation for problems described in {IERC20-approve}. Emits an {Approval} event indicating the updated allowance. Requirements: - `spender` cannot be the zero address. - `spender` must have allowance for the caller of at least `subtractedValue`."
      },
      "increaseAllowance(address,uint256)": {
        "details": "Atomically increases the allowance granted to `spender` by the caller. This is an alternative to {approve} that can be used as a mitigation for problems described in {IERC20-approve}. Emits an {Approval} event indicating the updated allowance. Requirements: - `spender` cannot be the zero address."
      },
      "name()": {
        "details": "Returns the name of the token."
      },
      "owner()": {
        "details": "Returns the address of the current owner."
      },
      "renounceOwnership()": {
        "details": "Leaves the contract without owner. It will not be possible to call `onlyOwner` functions anymore. Can only be called by the current owner. NOTE: Renouncing ownership will leave the contract without an owner, thereby removing any functionality that is only available to the owner."
      },
      "symbol()": {
        "details": "Returns the symbol of the token, usually a shorter version of the name."
      },
      "totalSupply()": {
        "details": "See {IERC20-totalSupply}."
      },
      "transfer(address,uint256)": {
        "details": "See {IERC20-transfer}. Requirements: - `recipient` cannot be the zero address. - the caller must have a balance of at least `amount`."
      },
      "transferFrom(address,address,uint256)": {
        "details": "See {IERC20-transferFrom}. Emits an {Approval} event indicating the updated allowance. This is not required by the EIP. See the note at the beginning of {ERC20}. Requirements: - `sender` and `recipient` cannot be the zero address. - `sender` must have a balance of at least `amount`. - the caller must have allowance for ``sender``'s tokens of at least `amount`."
      },
      "transferOwnership(address)": {
        "details": "Transfers ownership of the contract to a new account (`newOwner`). Can only be called by the current owner."
      }
    },
    "version": 1
  },
  "userdoc": {
    "kind": "user",
    "methods": {},
    "version": 1
  }
}