{
  "contractName": "Secondary",
  "abi": [
    {
      "inputs": [],
      "stateMutability": "nonpayable",
      "type": "constructor"
    },
    {
      "anonymous": false,
      "inputs": [
        {
          "indexed": false,
          "internalType": "address",
          "name": "recipient",
          "type": "address"
        }
      ],
      "name": "PrimaryTransferred",
      "type": "event"
    },
    {
      "inputs": [],
      "name": "primary",
      "outputs": [
        {
          "internalType": "address",
          "name": "",
          "type": "address"
        }
      ],
      "stateMutability": "view",
      "type": "function"
    },
    {
      "inputs": [
        {
          "internalType": "address",
          "name": "recipient",
          "type": "address"
        }
      ],
      "name": "transferPrimary",
      "outputs": [],
      "stateMutability": "nonpayable",
      "type": "function"
    }
  ],
  "bytecode": "0x608060405234801561001057600080fd5b5060006100216100a060201b60201c565b9050806000806101000a81548173ffffffffffffffffffffffffffffffffffffffff021916908373ffffffffffffffffffffffffffffffffffffffff1602179055507f4101e71e974f68df5e9730cc223280b41654676bbb052cdcc735c3337e64d2d98160405161009291906100b7565b60405180910390a150610104565b600033905090565b6100b1816100d2565b82525050565b60006020820190506100cc60008301846100a8565b92915050565b60006100dd826100e4565b9050919050565b600073ffffffffffffffffffffffffffffffffffffffff82169050919050565b610429806101136000396000f3fe608060405234801561001057600080fd5b50600436106100365760003560e01c80632348238c1461003b578063c6dbdf6114610057575b600080fd5b6100556004803603810190610050919061023a565b610075565b005b61005f6101f4565b60405161006c919061033e565b60405180910390f35b60008054906101000a900473ffffffffffffffffffffffffffffffffffffffff1673ffffffffffffffffffffffffffffffffffffffff166100b461021d565b73ffffffffffffffffffffffffffffffffffffffff161461010a576040517f08c379a000000000000000000000000000000000000000000000000000000000815260040161010190610379565b60405180910390fd5b600073ffffffffffffffffffffffffffffffffffffffff168173ffffffffffffffffffffffffffffffffffffffff16141561017a576040517f08c379a000000000000000000000000000000000000000000000000000000000815260040161017190610359565b60405180910390fd5b806000806101000a81548173ffffffffffffffffffffffffffffffffffffffff021916908373ffffffffffffffffffffffffffffffffffffffff1602179055507f4101e71e974f68df5e9730cc223280b41654676bbb052cdcc735c3337e64d2d9816040516101e9919061033e565b60405180910390a150565b60008060009054906101000a900473ffffffffffffffffffffffffffffffffffffffff16905090565b600033905090565b600081359050610234816103dc565b92915050565b60006020828403121561024c57600080fd5b600061025a84828501610225565b91505092915050565b61026c816103aa565b82525050565b600061027f602a83610399565b91507f5365636f6e646172793a206e6577207072696d61727920697320746865207a6560008301527f726f2061646472657373000000000000000000000000000000000000000000006020830152604082019050919050565b60006102e5602c83610399565b91507f5365636f6e646172793a2063616c6c6572206973206e6f74207468652070726960008301527f6d617279206163636f756e7400000000000000000000000000000000000000006020830152604082019050919050565b60006020820190506103536000830184610263565b92915050565b6000602082019050818103600083015261037281610272565b9050919050565b60006020820190508181036000830152610392816102d8565b9050919050565b600082825260208201905092915050565b60006103b5826103bc565b9050919050565b600073ffffffffffffffffffffffffffffffffffffffff82169050919050565b6103e5816103aa565b81146103f057600080fd5b5056fea2646970667358221220879375b93723ca30bcdc37df4cc6effa7bce5e4874c70ba4566e6eee1eb8f3e664736f6c63430008000033",
  "immutableReferences": {},
  "source": "// SPDX-License-Identifier: MIT\npragma solidity ^0.8.0;\n\nimport \"../utils/Context.sol\";\n/**\n * @dev A Secondary contract can only be used by its primary account (the one that created it).\n */\ncontract Secondary is Context {\n    address private _primary;\n\n    /**\n     * @dev Emitted when the primary contract changes.\n     */\n    event PrimaryTransferred(\n        address recipient\n    );\n\n    /**\n     * @dev Sets the primary account to the one that is creating the Secondary contract.\n     */\n    constructor ()  {\n        address msgSender = _msgSender();\n        _primary = msgSender;\n        emit PrimaryTransferred(msgSender);\n    }\n\n    /**\n     * @dev Reverts if called from any account other than the primary.\n     */\n    modifier onlyPrimary() {\n        require(_msgSender() == _primary, \"Secondary: caller is not the primary account\");\n        _;\n    }\n\n    /**\n     * @return the address of the primary.\n     */\n    function primary() public view returns (address) {\n        return _primary;\n    }\n\n    /**\n     * @dev Transfers contract to a new primary.\n     * @param recipient The address of new primary.\n     */\n    function transferPrimary(address recipient) public onlyPrimary {\n        require(recipient != address(0), \"Secondary: new primary is the zero address\");\n        _primary = recipient;\n        emit PrimaryTransferred(recipient);\n    }\n}\n",
  "sourcePath": "C:\\Users\\pasca\\Documents\\web-dev\\monkeymoon-mobile-rework\\frontend\\src\\contracts\\ownership\\Secondary.sol",
  "compiler": {
    "name": "solc",
    "version": "0.8.0+commit.c7dfd78e.Emscripten.clang"
  },
  "schemaVersion": "3.4.4",
  "updatedAt": "2022-01-31T19:31:31.905Z",
  "devdoc": {
    "details": "A Secondary contract can only be used by its primary account (the one that created it).",
    "events": {
      "PrimaryTransferred(address)": {
        "details": "Emitted when the primary contract changes."
      }
    },
    "kind": "dev",
    "methods": {
      "constructor": {
        "details": "Sets the primary account to the one that is creating the Secondary contract."
      },
      "primary()": {
        "returns": {
          "_0": "the address of the primary."
        }
      },
      "transferPrimary(address)": {
        "details": "Transfers contract to a new primary.",
        "params": {
          "recipient": "The address of new primary."
        }
      }
    },
    "version": 1
  },
  "userdoc": {
    "kind": "user",
    "methods": {},
    "version": 1
  }
}