{
  "contractName": "GOV",
  "abi": [
    {
      "anonymous": false,
      "inputs": [
        {
          "indexed": true,
          "internalType": "address",
          "name": "previousOwner",
          "type": "address"
        },
        {
          "indexed": true,
          "internalType": "address",
          "name": "newOwner",
          "type": "address"
        }
      ],
      "name": "OwnershipTransferred",
      "type": "event"
    },
    {
      "inputs": [],
      "name": "owner",
      "outputs": [
        {
          "internalType": "address",
          "name": "",
          "type": "address"
        }
      ],
      "stateMutability": "view",
      "type": "function"
    },
    {
      "inputs": [],
      "name": "proposalNum",
      "outputs": [
        {
          "internalType": "uint32",
          "name": "",
          "type": "uint32"
        }
      ],
      "stateMutability": "view",
      "type": "function"
    },
    {
      "inputs": [],
      "name": "renounceOwnership",
      "outputs": [],
      "stateMutability": "nonpayable",
      "type": "function"
    },
    {
      "inputs": [
        {
          "internalType": "address",
          "name": "newOwner",
          "type": "address"
        }
      ],
      "name": "transferOwnership",
      "outputs": [],
      "stateMutability": "nonpayable",
      "type": "function"
    },
    {
      "inputs": [
        {
          "internalType": "string",
          "name": "name",
          "type": "string"
        },
        {
          "internalType": "uint32",
          "name": "start",
          "type": "uint32"
        },
        {
          "internalType": "uint32",
          "name": "end",
          "type": "uint32"
        }
      ],
      "name": "addBasicProposal",
      "outputs": [],
      "stateMutability": "nonpayable",
      "type": "function"
    },
    {
      "inputs": [
        {
          "internalType": "string",
          "name": "name",
          "type": "string"
        },
        {
          "internalType": "uint32",
          "name": "start",
          "type": "uint32"
        },
        {
          "internalType": "uint32",
          "name": "end",
          "type": "uint32"
        },
        {
          "internalType": "address",
          "name": "newTaxesAddress",
          "type": "address"
        }
      ],
      "name": "addTaxesProposal",
      "outputs": [],
      "stateMutability": "nonpayable",
      "type": "function"
    },
    {
      "inputs": [],
      "name": "executeCurrentProposal",
      "outputs": [],
      "stateMutability": "nonpayable",
      "type": "function"
    },
    {
      "inputs": [
        {
          "internalType": "bool",
          "name": "accountVote",
          "type": "bool"
        }
      ],
      "name": "vote",
      "outputs": [],
      "stateMutability": "nonpayable",
      "type": "function"
    },
    {
      "inputs": [],
      "name": "getCurrentProposal",
      "outputs": [
        {
          "components": [
            {
              "internalType": "string",
              "name": "name",
              "type": "string"
            },
            {
              "internalType": "uint256",
              "name": "start",
              "type": "uint256"
            },
            {
              "internalType": "uint256",
              "name": "end",
              "type": "uint256"
            },
            {
              "internalType": "enum GOV.ProposalType",
              "name": "proposalType",
              "type": "uint8"
            },
            {
              "internalType": "uint64",
              "name": "upvotes",
              "type": "uint64"
            },
            {
              "internalType": "uint64",
              "name": "downvotes",
              "type": "uint64"
            },
            {
              "internalType": "bool",
              "name": "executed",
              "type": "bool"
            },
            {
              "internalType": "address",
              "name": "addressToChange",
              "type": "address"
            },
            {
              "internalType": "uint256",
              "name": "value",
              "type": "uint256"
            }
          ],
          "internalType": "struct GOV.Proposal",
          "name": "",
          "type": "tuple"
        }
      ],
      "stateMutability": "view",
      "type": "function"
    },
    {
      "inputs": [
        {
          "internalType": "uint32",
          "name": "index",
          "type": "uint32"
        }
      ],
      "name": "getProposalByIndex",
      "outputs": [
        {
          "components": [
            {
              "internalType": "string",
              "name": "name",
              "type": "string"
            },
            {
              "internalType": "uint256",
              "name": "start",
              "type": "uint256"
            },
            {
              "internalType": "uint256",
              "name": "end",
              "type": "uint256"
            },
            {
              "internalType": "enum GOV.ProposalType",
              "name": "proposalType",
              "type": "uint8"
            },
            {
              "internalType": "uint64",
              "name": "upvotes",
              "type": "uint64"
            },
            {
              "internalType": "uint64",
              "name": "downvotes",
              "type": "uint64"
            },
            {
              "internalType": "bool",
              "name": "executed",
              "type": "bool"
            },
            {
              "internalType": "address",
              "name": "addressToChange",
              "type": "address"
            },
            {
              "internalType": "uint256",
              "name": "value",
              "type": "uint256"
            }
          ],
          "internalType": "struct GOV.Proposal",
          "name": "",
          "type": "tuple"
        }
      ],
      "stateMutability": "view",
      "type": "function"
    }
  ],
  "bytecode": "0x60806040526042600060146101000a81548161ffff021916908361ffff160217905550683635c9adc5dea000006002556000600360006101000a81548163ffffffff021916908363ffffffff16021790555034801561005d57600080fd5b50600061006e61011160201b60201c565b9050806000806101000a81548173ffffffffffffffffffffffffffffffffffffffff021916908373ffffffffffffffffffffffffffffffffffffffff1602179055508073ffffffffffffffffffffffffffffffffffffffff16600073ffffffffffffffffffffffffffffffffffffffff167f8be0079c531659141344cd1fd0a4f28419497f9722a3daafe3b4186f6b6457e060405160405180910390a350610119565b600033905090565b612986806101286000396000f3fe608060405234801561001057600080fd5b506004361061009e5760003560e01c80637526fba7116100665780637526fba7146101215780638da5cb5b1461013d5780639f2f19421461015b578063bc20669a14610179578063f2fde38b146101955761009e565b80630d56575d146100a357806337e9b9a7146100ad57806341ec6870146100dd5780634b9f5c98146100fb578063715018a614610117575b600080fd5b6100ab6101b1565b005b6100c760048036038101906100c29190611d1b565b610743565b6040516100d49190612536565b60405180910390f35b6100e56109ea565b6040516100f29190612536565b60405180910390f35b61011560048036038101906101109190611be7565b610c40565b005b61011f61101f565b005b61013b60048036038101906101369190611c10565b611159565b005b610145611298565b604051610152919061235b565b60405180910390f35b6101636112c1565b6040516101709190612558565b60405180910390f35b610193600480360381019061018e9190611c77565b6112d7565b005b6101af60048036038101906101aa9190611bbe565b611485565b005b6101b961162e565b73ffffffffffffffffffffffffffffffffffffffff166101d7611298565b73ffffffffffffffffffffffffffffffffffffffff161461022d576040517f08c379a000000000000000000000000000000000000000000000000000000000815260040161022490612496565b60405180910390fd5b4260046000600360009054906101000a900463ffffffff1663ffffffff1663ffffffff1681526020019081526020016000206002015411156102a4576040517f08c379a000000000000000000000000000000000000000000000000000000000815260040161029b906124b6565b60405180910390fd5b60046000600360009054906101000a900463ffffffff1663ffffffff1663ffffffff16815260200190815260200160002060030160119054906101000a900460ff1615610326576040517f08c379a000000000000000000000000000000000000000000000000000000000815260040161031d90612456565b60405180910390fd5b60006001811115610360577f4e487b7100000000000000000000000000000000000000000000000000000000600052602160045260246000fd5b60046000600360009054906101000a900463ffffffff1663ffffffff1663ffffffff16815260200190815260200160002060030160009054906101000a900460ff1660018111156103da577f4e487b7100000000000000000000000000000000000000000000000000000000600052602160045260246000fd5b141561043257600160046000600360009054906101000a900463ffffffff1663ffffffff1663ffffffff16815260200190815260200160002060030160116101000a81548160ff021916908315150217905550610741565b60018081111561046b577f4e487b7100000000000000000000000000000000000000000000000000000000600052602160045260246000fd5b60046000600360009054906101000a900463ffffffff1663ffffffff1663ffffffff16815260200190815260200160002060030160009054906101000a900460ff1660018111156104e5577f4e487b7100000000000000000000000000000000000000000000000000000000600052602160045260246000fd5b141561074057600060046000600360009054906101000a900463ffffffff1663ffffffff1663ffffffff16815260200190815260200160002060030160019054906101000a900467ffffffffffffffff1660046000600360009054906101000a900463ffffffff1663ffffffff1663ffffffff16815260200190815260200160002060030160099054906101000a900467ffffffffffffffff166105899190612601565b606460046000600360009054906101000a900463ffffffff1663ffffffff1663ffffffff16815260200190815260200160002060030160019054906101000a900467ffffffffffffffff166105de9190612670565b6105e8919061263f565b67ffffffffffffffff169050600060149054906101000a900461ffff1661ffff1681106106f157600160009054906101000a900473ffffffffffffffffffffffffffffffffffffffff1673ffffffffffffffffffffffffffffffffffffffff1663501a3b3760046000600360009054906101000a900463ffffffff1663ffffffff1663ffffffff16815260200190815260200160002060040160009054906101000a900473ffffffffffffffffffffffffffffffffffffffff166040518263ffffffff1660e01b81526004016106be919061235b565b600060405180830381600087803b1580156106d857600080fd5b505af11580156106ec573d6000803e3d6000fd5b505050505b600160046000600360009054906101000a900463ffffffff1663ffffffff1663ffffffff16815260200190815260200160002060030160116101000a81548160ff021916908315150217905550505b5b565b61074b6119af565b600360009054906101000a900463ffffffff1663ffffffff168263ffffffff1611156107ac576040517f08c379a00000000000000000000000000000000000000000000000000000000081526004016107a3906124f6565b60405180910390fd5b600460008363ffffffff1663ffffffff168152602001908152602001600020604051806101200160405290816000820180546107e790612785565b80601f016020809104026020016040519081016040528092919081815260200182805461081390612785565b80156108605780601f1061083557610100808354040283529160200191610860565b820191906000526020600020905b81548152906001019060200180831161084357829003601f168201915b5050505050815260200160018201548152602001600282015481526020016003820160009054906101000a900460ff1660018111156108c8577f4e487b7100000000000000000000000000000000000000000000000000000000600052602160045260246000fd5b6001811115610900577f4e487b7100000000000000000000000000000000000000000000000000000000600052602160045260246000fd5b81526020016003820160019054906101000a900467ffffffffffffffff1667ffffffffffffffff1667ffffffffffffffff1681526020016003820160099054906101000a900467ffffffffffffffff1667ffffffffffffffff1667ffffffffffffffff1681526020016003820160119054906101000a900460ff161515151581526020016004820160009054906101000a900473ffffffffffffffffffffffffffffffffffffffff1673ffffffffffffffffffffffffffffffffffffffff1673ffffffffffffffffffffffffffffffffffffffff1681526020016005820154815250509050919050565b6109f26119af565b60046000600360009054906101000a900463ffffffff1663ffffffff1663ffffffff16815260200190815260200160002060405180610120016040529081600082018054610a3f90612785565b80601f0160208091040260200160405190810160405280929190818152602001828054610a6b90612785565b8015610ab85780601f10610a8d57610100808354040283529160200191610ab8565b820191906000526020600020905b815481529060010190602001808311610a9b57829003601f168201915b5050505050815260200160018201548152602001600282015481526020016003820160009054906101000a900460ff166001811115610b20577f4e487b7100000000000000000000000000000000000000000000000000000000600052602160045260246000fd5b6001811115610b58577f4e487b7100000000000000000000000000000000000000000000000000000000600052602160045260246000fd5b81526020016003820160019054906101000a900467ffffffffffffffff1667ffffffffffffffff1667ffffffffffffffff1681526020016003820160099054906101000a900467ffffffffffffffff1667ffffffffffffffff1667ffffffffffffffff1681526020016003820160119054906101000a900460ff161515151581526020016004820160009054906101000a900473ffffffffffffffffffffffffffffffffffffffff1673ffffffffffffffffffffffffffffffffffffffff1673ffffffffffffffffffffffffffffffffffffffff168152602001600582015481525050905090565b4260046000600360009054906101000a900463ffffffff1663ffffffff1663ffffffff1681526020019081526020016000206001015410610cb6576040517f08c379a0000000000000000000000000000000000000000000000000000000008152600401610cad906123d6565b60405180910390fd5b4260046000600360009054906101000a900463ffffffff1663ffffffff1663ffffffff1681526020019081526020016000206002015411610d2c576040517f08c379a0000000000000000000000000000000000000000000000000000000008152600401610d2390612516565b60405180910390fd5b600254600160009054906101000a900473ffffffffffffffffffffffffffffffffffffffff1673ffffffffffffffffffffffffffffffffffffffff166370a08231336040518263ffffffff1660e01b8152600401610d8a919061235b565b60206040518083038186803b158015610da257600080fd5b505afa158015610db6573d6000803e3d6000fd5b505050506040513d601f19601f82011682018060405250810190610dda9190611cf2565b1015610e1b576040517f08c379a0000000000000000000000000000000000000000000000000000000008152600401610e1290612436565b60405180910390fd5b60046000600360009054906101000a900463ffffffff1663ffffffff1663ffffffff16815260200190815260200160002060010154600560003373ffffffffffffffffffffffffffffffffffffffff1673ffffffffffffffffffffffffffffffffffffffff1681526020019081526020016000205410610ed0576040517f08c379a0000000000000000000000000000000000000000000000000000000008152600401610ec7906123f6565b60405180910390fd5b42600560003373ffffffffffffffffffffffffffffffffffffffff1673ffffffffffffffffffffffffffffffffffffffff168152602001908152602001600020819055508015610f9d57600160046000600360009054906101000a900463ffffffff1663ffffffff1663ffffffff16815260200190815260200160002060030160018282829054906101000a900467ffffffffffffffff16610f729190612601565b92506101000a81548167ffffffffffffffff021916908367ffffffffffffffff16021790555061101c565b600160046000600360009054906101000a900463ffffffff1663ffffffff1663ffffffff16815260200190815260200160002060030160098282829054906101000a900467ffffffffffffffff16610ff59190612601565b92506101000a81548167ffffffffffffffff021916908367ffffffffffffffff1602179055505b50565b61102761162e565b73ffffffffffffffffffffffffffffffffffffffff16611045611298565b73ffffffffffffffffffffffffffffffffffffffff161461109b576040517f08c379a000000000000000000000000000000000000000000000000000000000815260040161109290612496565b60405180910390fd5b600073ffffffffffffffffffffffffffffffffffffffff1660008054906101000a900473ffffffffffffffffffffffffffffffffffffffff1673ffffffffffffffffffffffffffffffffffffffff167f8be0079c531659141344cd1fd0a4f28419497f9722a3daafe3b4186f6b6457e060405160405180910390a360008060006101000a81548173ffffffffffffffffffffffffffffffffffffffff021916908373ffffffffffffffffffffffffffffffffffffffff160217905550565b61116161162e565b73ffffffffffffffffffffffffffffffffffffffff1661117f611298565b73ffffffffffffffffffffffffffffffffffffffff16146111d5576040517f08c379a00000000000000000000000000000000000000000000000000000000081526004016111cc90612496565b60405180910390fd5b6112936040518061012001604052808581526020018463ffffffff1681526020018363ffffffff1681526020016000600181111561123c577f4e487b7100000000000000000000000000000000000000000000000000000000600052602160045260246000fd5b8152602001600067ffffffffffffffff168152602001600067ffffffffffffffff168152602001600015158152602001600073ffffffffffffffffffffffffffffffffffffffff1681526020016000815250611636565b505050565b60008060009054906101000a900473ffffffffffffffffffffffffffffffffffffffff16905090565b600360009054906101000a900463ffffffff1681565b6112df61162e565b73ffffffffffffffffffffffffffffffffffffffff166112fd611298565b73ffffffffffffffffffffffffffffffffffffffff1614611353576040517f08c379a000000000000000000000000000000000000000000000000000000000815260040161134a90612496565b60405180910390fd5b600073ffffffffffffffffffffffffffffffffffffffff168173ffffffffffffffffffffffffffffffffffffffff1614156113c3576040517f08c379a00000000000000000000000000000000000000000000000000000000081526004016113ba90612476565b60405180910390fd5b61147f6040518061012001604052808681526020018563ffffffff1681526020018463ffffffff168152602001600180811115611429577f4e487b7100000000000000000000000000000000000000000000000000000000600052602160045260246000fd5b8152602001600067ffffffffffffffff168152602001600067ffffffffffffffff1681526020016000151581526020018373ffffffffffffffffffffffffffffffffffffffff1681526020016000815250611636565b50505050565b61148d61162e565b73ffffffffffffffffffffffffffffffffffffffff166114ab611298565b73ffffffffffffffffffffffffffffffffffffffff1614611501576040517f08c379a00000000000000000000000000000000000000000000000000000000081526004016114f890612496565b60405180910390fd5b600073ffffffffffffffffffffffffffffffffffffffff168173ffffffffffffffffffffffffffffffffffffffff161415611571576040517f08c379a0000000000000000000000000000000000000000000000000000000008152600401611568906123b6565b60405180910390fd5b8073ffffffffffffffffffffffffffffffffffffffff1660008054906101000a900473ffffffffffffffffffffffffffffffffffffffff1673ffffffffffffffffffffffffffffffffffffffff167f8be0079c531659141344cd1fd0a4f28419497f9722a3daafe3b4186f6b6457e060405160405180910390a3806000806101000a81548173ffffffffffffffffffffffffffffffffffffffff021916908373ffffffffffffffffffffffffffffffffffffffff16021790555050565b600033905090565b6000600360009054906101000a900463ffffffff1663ffffffff16111561174f574260046000600360009054906101000a900463ffffffff1663ffffffff1663ffffffff16815260200190815260200160002060020154106116cd576040517f08c379a00000000000000000000000000000000000000000000000000000000081526004016116c490612396565b60405180910390fd5b60046000600360009054906101000a900463ffffffff1663ffffffff1663ffffffff16815260200190815260200160002060030160119054906101000a900460ff1661174e576040517f08c379a0000000000000000000000000000000000000000000000000000000008152600401611745906124d6565b60405180910390fd5b5b42816020015111611795576040517f08c379a000000000000000000000000000000000000000000000000000000000815260040161178c90612416565b60405180910390fd5b80604001518160200151106117df576040517f08c379a00000000000000000000000000000000000000000000000000000000081526004016117d690612376565b60405180910390fd5b6003600081819054906101000a900463ffffffff1680929190611801906127b7565b91906101000a81548163ffffffff021916908363ffffffff160217905550508060046000600360009054906101000a900463ffffffff1663ffffffff1663ffffffff168152602001908152602001600020600082015181600001908051906020019061186e929190611a5f565b50602082015181600101556040820151816002015560608201518160030160006101000a81548160ff021916908360018111156118d4577f4e487b7100000000000000000000000000000000000000000000000000000000600052602160045260246000fd5b021790555060808201518160030160016101000a81548167ffffffffffffffff021916908367ffffffffffffffff16021790555060a08201518160030160096101000a81548167ffffffffffffffff021916908367ffffffffffffffff16021790555060c08201518160030160116101000a81548160ff02191690831515021790555060e08201518160040160006101000a81548173ffffffffffffffffffffffffffffffffffffffff021916908373ffffffffffffffffffffffffffffffffffffffff160217905550610100820151816005015590505050565b60405180610120016040528060608152602001600081526020016000815260200160006001811115611a0a577f4e487b7100000000000000000000000000000000000000000000000000000000600052602160045260246000fd5b8152602001600067ffffffffffffffff168152602001600067ffffffffffffffff168152602001600015158152602001600073ffffffffffffffffffffffffffffffffffffffff168152602001600081525090565b828054611a6b90612785565b90600052602060002090601f016020900481019282611a8d5760008555611ad4565b82601f10611aa657805160ff1916838001178555611ad4565b82800160010185558215611ad4579182015b82811115611ad3578251825591602001919060010190611ab8565b5b509050611ae19190611ae5565b5090565b5b80821115611afe576000816000905550600101611ae6565b5090565b6000611b15611b10846125a4565b612573565b905082815260208101848484011115611b2d57600080fd5b611b38848285612743565b509392505050565b600081359050611b4f816128f4565b92915050565b600081359050611b648161290b565b92915050565b600082601f830112611b7b57600080fd5b8135611b8b848260208601611b02565b91505092915050565b600081519050611ba381612922565b92915050565b600081359050611bb881612939565b92915050565b600060208284031215611bd057600080fd5b6000611bde84828501611b40565b91505092915050565b600060208284031215611bf957600080fd5b6000611c0784828501611b55565b91505092915050565b600080600060608486031215611c2557600080fd5b600084013567ffffffffffffffff811115611c3f57600080fd5b611c4b86828701611b6a565b9350506020611c5c86828701611ba9565b9250506040611c6d86828701611ba9565b9150509250925092565b60008060008060808587031215611c8d57600080fd5b600085013567ffffffffffffffff811115611ca757600080fd5b611cb387828801611b6a565b9450506020611cc487828801611ba9565b9350506040611cd587828801611ba9565b9250506060611ce687828801611b40565b91505092959194509250565b600060208284031215611d0457600080fd5b6000611d1284828501611b94565b91505092915050565b600060208284031215611d2d57600080fd5b6000611d3b84828501611ba9565b91505092915050565b611d4d816126b2565b82525050565b611d5c816126b2565b82525050565b611d6b816126c4565b82525050565b611d7a81612731565b82525050565b6000611d8b826125d4565b611d9581856125df565b9350611da5818560208601612752565b611dae816128cf565b840191505092915050565b6000611dc66024836125f0565b91507f456e64206f662070726f706f73616c206e65656473206265206166746572207360008301527f74617274000000000000000000000000000000000000000000000000000000006020830152604082019050919050565b6000611e2c603d836125f0565b91507f43757272656e742070726f706f73616c206e6565647320746f20656e6420626560008301527f666f72652061206e6577206f6e652063616e20626520637265617465640000006020830152604082019050919050565b6000611e926026836125f0565b91507f4f776e61626c653a206e6577206f776e657220697320746865207a65726f206160008301527f64647265737300000000000000000000000000000000000000000000000000006020830152604082019050919050565b6000611ef86012836125f0565b91507f566f74696e67206973206e6f74206f70656e00000000000000000000000000006000830152602082019050919050565b6000611f38600d836125f0565b91507f416c726561647920766f746564000000000000000000000000000000000000006000830152602082019050919050565b6000611f786022836125f0565b91507f50726f706f73616c206e6565647320746f20626520696e20746865206675747560008301527f72650000000000000000000000000000000000000000000000000000000000006020830152604082019050919050565b6000611fde6024836125f0565b91507f4e6f7420656e6f75676820746f6b656e7320666f7220766f7274696e6720726960008301527f67687473000000000000000000000000000000000000000000000000000000006020830152604082019050919050565b60006120446022836125f0565b91507f50726f706f73616c2068617320616c7265616479206265656e2065786563757460008301527f65640000000000000000000000000000000000000000000000000000000000006020830152604082019050919050565b60006120aa6021836125f0565b91507f5461786573206164647265737320697320746865207a65726f2061646472657360008301527f73000000000000000000000000000000000000000000000000000000000000006020830152604082019050919050565b60006121106020836125f0565b91507f4f776e61626c653a2063616c6c6572206973206e6f7420746865206f776e65726000830152602082019050919050565b60006121506018836125f0565b91507f50726f706f73616c206861736e7420656e6465642079657400000000000000006000830152602082019050919050565b60006121906026836125f0565b91507f43757272656e742070726f706f73616c20686173206e6f74206265656e20657860008301527f65637574656400000000000000000000000000000000000000000000000000006020830152604082019050919050565b60006121f66012836125f0565b91507f496e646578206f7574206f662072616e676500000000000000000000000000006000830152602082019050919050565b60006122366010836125f0565b91507f566f74696e6720697320636c6f736564000000000000000000000000000000006000830152602082019050919050565b60006101208301600083015184820360008601526122878282611d80565b915050602083015161229c602086018261232e565b5060408301516122af604086018261232e565b5060608301516122c26060860182611d71565b5060808301516122d5608086018261234c565b5060a08301516122e860a086018261234c565b5060c08301516122fb60c0860182611d62565b5060e083015161230e60e0860182611d44565b5061010083015161232361010086018261232e565b508091505092915050565b61233781612703565b82525050565b6123468161270d565b82525050565b6123558161271d565b82525050565b60006020820190506123706000830184611d53565b92915050565b6000602082019050818103600083015261238f81611db9565b9050919050565b600060208201905081810360008301526123af81611e1f565b9050919050565b600060208201905081810360008301526123cf81611e85565b9050919050565b600060208201905081810360008301526123ef81611eeb565b9050919050565b6000602082019050818103600083015261240f81611f2b565b9050919050565b6000602082019050818103600083015261242f81611f6b565b9050919050565b6000602082019050818103600083015261244f81611fd1565b9050919050565b6000602082019050818103600083015261246f81612037565b9050919050565b6000602082019050818103600083015261248f8161209d565b9050919050565b600060208201905081810360008301526124af81612103565b9050919050565b600060208201905081810360008301526124cf81612143565b9050919050565b600060208201905081810360008301526124ef81612183565b9050919050565b6000602082019050818103600083015261250f816121e9565b9050919050565b6000602082019050818103600083015261252f81612229565b9050919050565b600060208201905081810360008301526125508184612269565b905092915050565b600060208201905061256d600083018461233d565b92915050565b6000604051905081810181811067ffffffffffffffff8211171561259a576125996128a0565b5b8060405250919050565b600067ffffffffffffffff8211156125bf576125be6128a0565b5b601f19601f8301169050602081019050919050565b600081519050919050565b600082825260208201905092915050565b600082825260208201905092915050565b600061260c8261271d565b91506126178361271d565b92508267ffffffffffffffff03821115612634576126336127e4565b5b828201905092915050565b600061264a8261271d565b91506126558361271d565b92508261266557612664612813565b5b828204905092915050565b600061267b8261271d565b91506126868361271d565b92508167ffffffffffffffff04831182151516156126a7576126a66127e4565b5b828202905092915050565b60006126bd826126e3565b9050919050565b60008115159050919050565b60008190506126de826128e0565b919050565b600073ffffffffffffffffffffffffffffffffffffffff82169050919050565b6000819050919050565b600063ffffffff82169050919050565b600067ffffffffffffffff82169050919050565b600061273c826126d0565b9050919050565b82818337600083830152505050565b60005b83811015612770578082015181840152602081019050612755565b8381111561277f576000848401525b50505050565b6000600282049050600182168061279d57607f821691505b602082108114156127b1576127b0612871565b5b50919050565b60006127c28261270d565b915063ffffffff8214156127d9576127d86127e4565b5b600182019050919050565b7f4e487b7100000000000000000000000000000000000000000000000000000000600052601160045260246000fd5b7f4e487b7100000000000000000000000000000000000000000000000000000000600052601260045260246000fd5b7f4e487b7100000000000000000000000000000000000000000000000000000000600052602160045260246000fd5b7f4e487b7100000000000000000000000000000000000000000000000000000000600052602260045260246000fd5b7f4e487b7100000000000000000000000000000000000000000000000000000000600052604160045260246000fd5b6000601f19601f8301169050919050565b600281106128f1576128f0612842565b5b50565b6128fd816126b2565b811461290857600080fd5b50565b612914816126c4565b811461291f57600080fd5b50565b61292b81612703565b811461293657600080fd5b50565b6129428161270d565b811461294d57600080fd5b5056fea2646970667358221220a6b72a03797a7d9b5f82153b96aa304706f971bae68ee156810227897b3d86b464736f6c63430008000033",
  "immutableReferences": {},
  "source": "// SPDX-License-Identifier: MIT\r\npragma solidity ^0.8.0;\r\n\r\nimport \"./token/ERC20.sol\";\r\nimport \"./token/IERC20.sol\";\r\nimport \"./ownership/Ownable.sol\";\r\nimport \"./IMonkeyMoonToken.sol\";\r\n\r\ncontract GOV is Ownable {\r\n    enum ProposalType {Basic, ChangeTaxesAddress}\r\n    \r\n    struct Proposal {\r\n        string name;\r\n        uint256 start;\r\n        uint256 end;\r\n        ProposalType proposalType;\r\n        uint64 upvotes;\r\n        uint64 downvotes; \r\n        bool executed;        \r\n        address addressToChange;\r\n        uint256 value;\r\n    }\r\n\r\n    uint16 private _taxesAddressChangeThreshold = 66;\r\n\r\n    address private _tokenAddress;\r\n    uint256 private _votingThreshold = 1000 * 10 ** 18;\r\n \r\n    uint32 public proposalNum = 0;\r\n    mapping(uint32 => Proposal) private _proposals;\r\n    mapping(address => uint256) private _votingTime;\r\n    \r\n    function addBasicProposal(string memory name, uint32 start, uint32 end) public onlyOwner {  \r\n        _addProposal(Proposal(name, start, end, ProposalType.Basic, 0, 0 , false, address(0), 0));\r\n    }\r\n\r\n    function addTaxesProposal(string memory name, uint32 start, uint32 end, address newTaxesAddress) public onlyOwner {\r\n        require(newTaxesAddress != address(0), \"Taxes address is the zero address\");       \r\n        \r\n        _addProposal(Proposal(name, start, end, ProposalType.ChangeTaxesAddress, 0, 0 , false, newTaxesAddress, 0));\r\n    }\r\n\r\n    function executeCurrentProposal() public onlyOwner() {\r\n        require(_proposals[proposalNum].end <= block.timestamp, \"Proposal hasnt ended yet\");\r\n        require(!_proposals[proposalNum].executed, \"Proposal has already been executed\");\r\n\r\n        if(_proposals[proposalNum].proposalType == ProposalType.Basic){\r\n            _proposals[proposalNum].executed = true;\r\n        }\r\n        else if(_proposals[proposalNum].proposalType == ProposalType.ChangeTaxesAddress){\r\n            uint256 approval = (_proposals[proposalNum].upvotes * 100) / (_proposals[proposalNum].downvotes + _proposals[proposalNum].upvotes);\r\n            \r\n            if(approval >= _taxesAddressChangeThreshold){\r\n                IMonkeyMoonToken(_tokenAddress).changeTaxesAddress(_proposals[proposalNum].addressToChange);\r\n            }                \r\n            _proposals[proposalNum].executed = true;\r\n        }\r\n    }\r\n    \r\n    function vote(bool accountVote) public {\r\n        require(_proposals[proposalNum].start < block.timestamp, \"Voting is not open\");\r\n        require(_proposals[proposalNum].end > block.timestamp, \"Voting is closed\");\r\n\r\n        require(IERC20(_tokenAddress).balanceOf(msg.sender) >= _votingThreshold, \"Not enough tokens for vorting rights\");\r\n        \r\n        require(_votingTime[msg.sender] < _proposals[proposalNum].start, \"Already voted\");\r\n        _votingTime[msg.sender] = block.timestamp;\r\n        \r\n        if(accountVote){\r\n            _proposals[proposalNum].upvotes += 1;\r\n        }\r\n        else{\r\n            _proposals[proposalNum].downvotes += 1;\r\n        }\r\n    }\r\n    \r\n    function getCurrentProposal() public view returns(Proposal memory) {\r\n        return _proposals[proposalNum];\r\n    }\r\n    \r\n    function getProposalByIndex(uint32 index) public view returns(Proposal memory) {\r\n        require(index <= proposalNum, \"Index out of range\");\r\n        return _proposals[index];\r\n    }\r\n\r\n    function _addProposal(Proposal memory proposal) internal {\r\n        if(proposalNum > 0){\r\n            require(_proposals[proposalNum].end < block.timestamp, \"Current proposal needs to end before a new one can be created\");\r\n            require(_proposals[proposalNum].executed, \"Current proposal has not been executed\");\r\n        }\r\n        \r\n        require(proposal.start > block.timestamp, \"Proposal needs to be in the future\");\r\n        require(proposal.start < proposal.end, \"End of proposal needs be after start\");\r\n        \r\n        \r\n        proposalNum++;\r\n        _proposals[proposalNum] = proposal;\r\n    }\r\n}\r\n\r\n",
  "sourcePath": "C:\\Users\\pasca\\Documents\\web-dev\\monkeymoon-mobile-rework\\frontend\\src\\contracts\\Gov.sol",
  "compiler": {
    "name": "solc",
    "version": "0.8.0+commit.c7dfd78e.Emscripten.clang"
  },
  "schemaVersion": "3.4.4",
  "updatedAt": "2022-01-31T19:31:31.730Z",
  "devdoc": {
    "kind": "dev",
    "methods": {
      "owner()": {
        "details": "Returns the address of the current owner."
      },
      "renounceOwnership()": {
        "details": "Leaves the contract without owner. It will not be possible to call `onlyOwner` functions anymore. Can only be called by the current owner. NOTE: Renouncing ownership will leave the contract without an owner, thereby removing any functionality that is only available to the owner."
      },
      "transferOwnership(address)": {
        "details": "Transfers ownership of the contract to a new account (`newOwner`). Can only be called by the current owner."
      }
    },
    "version": 1
  },
  "userdoc": {
    "kind": "user",
    "methods": {},
    "version": 1
  }
}