{
  "contractName": "MonkeyMoonNFT",
  "abi": [
    {
      "inputs": [],
      "stateMutability": "nonpayable",
      "type": "constructor"
    },
    {
      "anonymous": false,
      "inputs": [
        {
          "indexed": true,
          "internalType": "address",
          "name": "account",
          "type": "address"
        },
        {
          "indexed": true,
          "internalType": "address",
          "name": "operator",
          "type": "address"
        },
        {
          "indexed": false,
          "internalType": "bool",
          "name": "approved",
          "type": "bool"
        }
      ],
      "name": "ApprovalForAll",
      "type": "event"
    },
    {
      "anonymous": false,
      "inputs": [
        {
          "indexed": true,
          "internalType": "address",
          "name": "previousOwner",
          "type": "address"
        },
        {
          "indexed": true,
          "internalType": "address",
          "name": "newOwner",
          "type": "address"
        }
      ],
      "name": "OwnershipTransferred",
      "type": "event"
    },
    {
      "anonymous": false,
      "inputs": [
        {
          "indexed": true,
          "internalType": "address",
          "name": "operator",
          "type": "address"
        },
        {
          "indexed": true,
          "internalType": "address",
          "name": "from",
          "type": "address"
        },
        {
          "indexed": true,
          "internalType": "address",
          "name": "to",
          "type": "address"
        },
        {
          "indexed": false,
          "internalType": "uint256[]",
          "name": "ids",
          "type": "uint256[]"
        },
        {
          "indexed": false,
          "internalType": "uint256[]",
          "name": "values",
          "type": "uint256[]"
        }
      ],
      "name": "TransferBatch",
      "type": "event"
    },
    {
      "anonymous": false,
      "inputs": [
        {
          "indexed": true,
          "internalType": "address",
          "name": "operator",
          "type": "address"
        },
        {
          "indexed": true,
          "internalType": "address",
          "name": "from",
          "type": "address"
        },
        {
          "indexed": true,
          "internalType": "address",
          "name": "to",
          "type": "address"
        },
        {
          "indexed": false,
          "internalType": "uint256",
          "name": "id",
          "type": "uint256"
        },
        {
          "indexed": false,
          "internalType": "uint256",
          "name": "value",
          "type": "uint256"
        }
      ],
      "name": "TransferSingle",
      "type": "event"
    },
    {
      "anonymous": false,
      "inputs": [
        {
          "indexed": false,
          "internalType": "string",
          "name": "value",
          "type": "string"
        },
        {
          "indexed": true,
          "internalType": "uint256",
          "name": "id",
          "type": "uint256"
        }
      ],
      "name": "URI",
      "type": "event"
    },
    {
      "inputs": [
        {
          "internalType": "address",
          "name": "account",
          "type": "address"
        },
        {
          "internalType": "uint256",
          "name": "id",
          "type": "uint256"
        }
      ],
      "name": "balanceOf",
      "outputs": [
        {
          "internalType": "uint256",
          "name": "",
          "type": "uint256"
        }
      ],
      "stateMutability": "view",
      "type": "function",
      "constant": true
    },
    {
      "inputs": [
        {
          "internalType": "address[]",
          "name": "accounts",
          "type": "address[]"
        },
        {
          "internalType": "uint256[]",
          "name": "ids",
          "type": "uint256[]"
        }
      ],
      "name": "balanceOfBatch",
      "outputs": [
        {
          "internalType": "uint256[]",
          "name": "",
          "type": "uint256[]"
        }
      ],
      "stateMutability": "view",
      "type": "function",
      "constant": true
    },
    {
      "inputs": [
        {
          "internalType": "address",
          "name": "account",
          "type": "address"
        },
        {
          "internalType": "address",
          "name": "operator",
          "type": "address"
        }
      ],
      "name": "isApprovedForAll",
      "outputs": [
        {
          "internalType": "bool",
          "name": "",
          "type": "bool"
        }
      ],
      "stateMutability": "view",
      "type": "function",
      "constant": true
    },
    {
      "inputs": [],
      "name": "owner",
      "outputs": [
        {
          "internalType": "address",
          "name": "",
          "type": "address"
        }
      ],
      "stateMutability": "view",
      "type": "function",
      "constant": true
    },
    {
      "inputs": [],
      "name": "renounceOwnership",
      "outputs": [],
      "stateMutability": "nonpayable",
      "type": "function"
    },
    {
      "inputs": [
        {
          "internalType": "address",
          "name": "from",
          "type": "address"
        },
        {
          "internalType": "address",
          "name": "to",
          "type": "address"
        },
        {
          "internalType": "uint256[]",
          "name": "ids",
          "type": "uint256[]"
        },
        {
          "internalType": "uint256[]",
          "name": "amounts",
          "type": "uint256[]"
        },
        {
          "internalType": "bytes",
          "name": "data",
          "type": "bytes"
        }
      ],
      "name": "safeBatchTransferFrom",
      "outputs": [],
      "stateMutability": "nonpayable",
      "type": "function"
    },
    {
      "inputs": [
        {
          "internalType": "address",
          "name": "from",
          "type": "address"
        },
        {
          "internalType": "address",
          "name": "to",
          "type": "address"
        },
        {
          "internalType": "uint256",
          "name": "id",
          "type": "uint256"
        },
        {
          "internalType": "uint256",
          "name": "amount",
          "type": "uint256"
        },
        {
          "internalType": "bytes",
          "name": "data",
          "type": "bytes"
        }
      ],
      "name": "safeTransferFrom",
      "outputs": [],
      "stateMutability": "nonpayable",
      "type": "function"
    },
    {
      "inputs": [
        {
          "internalType": "address",
          "name": "operator",
          "type": "address"
        },
        {
          "internalType": "bool",
          "name": "approved",
          "type": "bool"
        }
      ],
      "name": "setApprovalForAll",
      "outputs": [],
      "stateMutability": "nonpayable",
      "type": "function"
    },
    {
      "inputs": [
        {
          "internalType": "bytes4",
          "name": "interfaceId",
          "type": "bytes4"
        }
      ],
      "name": "supportsInterface",
      "outputs": [
        {
          "internalType": "bool",
          "name": "",
          "type": "bool"
        }
      ],
      "stateMutability": "view",
      "type": "function",
      "constant": true
    },
    {
      "inputs": [
        {
          "internalType": "address",
          "name": "newOwner",
          "type": "address"
        }
      ],
      "name": "transferOwnership",
      "outputs": [],
      "stateMutability": "nonpayable",
      "type": "function"
    },
    {
      "inputs": [
        {
          "internalType": "string",
          "name": "uri_",
          "type": "string"
        },
        {
          "internalType": "uint256",
          "name": "amount",
          "type": "uint256"
        }
      ],
      "name": "mint",
      "outputs": [],
      "stateMutability": "nonpayable",
      "type": "function"
    },
    {
      "inputs": [
        {
          "internalType": "uint256",
          "name": "tokenId",
          "type": "uint256"
        }
      ],
      "name": "uri",
      "outputs": [
        {
          "internalType": "string",
          "name": "",
          "type": "string"
        }
      ],
      "stateMutability": "view",
      "type": "function",
      "constant": true
    },
    {
      "inputs": [],
      "name": "numTokens",
      "outputs": [
        {
          "internalType": "uint256",
          "name": "",
          "type": "uint256"
        }
      ],
      "stateMutability": "view",
      "type": "function",
      "constant": true
    }
  ],
  "bytecode": "0x6080604052600060035534801561001557600080fd5b5060006100266100ca60201b60201c565b905080600260006101000a81548173ffffffffffffffffffffffffffffffffffffffff021916908373ffffffffffffffffffffffffffffffffffffffff1602179055508073ffffffffffffffffffffffffffffffffffffffff16600073ffffffffffffffffffffffffffffffffffffffff167f8be0079c531659141344cd1fd0a4f28419497f9722a3daafe3b4186f6b6457e060405160405180910390a3506100d2565b600033905090565b612ea180620000e26000396000f3fe608060405234801561001057600080fd5b50600436106100ce5760003560e01c8063715018a61161008c578063a22cb46511610066578063a22cb46514610211578063e985e9c51461022d578063f242432a1461025d578063f2fde38b14610279576100ce565b8063715018a6146101cb5780638da5cb5b146101d55780638e499bcf146101f3576100ce565b8062fdd58e146100d357806301ffc9a714610103578063056b01ce146101335780630e89341c1461014f5780632eb2c2d61461017f5780634e1273f41461019b575b600080fd5b6100ed60048036038101906100e89190611ed3565b610295565b6040516100fa9190612989565b60405180910390f35b61011d60048036038101906101189190611f7b565b61035e565b60405161012a91906127ac565b60405180910390f35b61014d60048036038101906101489190611fcd565b610440565b005b61016960048036038101906101649190612021565b6104a5565b60405161017691906127c7565b60405180910390f35b61019960048036038101906101949190611d49565b61054a565b005b6101b560048036038101906101b09190611f0f565b6105eb565b6040516101c29190612753565b60405180910390f35b6101d361079c565b005b6101dd6108d9565b6040516101ea9190612676565b60405180910390f35b6101fb610903565b6040516102089190612989565b60405180910390f35b61022b60048036038101906102269190611e97565b61090d565b005b61024760048036038101906102429190611d0d565b610923565b60405161025491906127ac565b60405180910390f35b61027760048036038101906102729190611e08565b6109b7565b005b610293600480360381019061028e9190611ce4565b610a58565b005b60008073ffffffffffffffffffffffffffffffffffffffff168373ffffffffffffffffffffffffffffffffffffffff161415610306576040517f08c379a00000000000000000000000000000000000000000000000000000000081526004016102fd90612829565b60405180910390fd5b60008083815260200190815260200160002060008473ffffffffffffffffffffffffffffffffffffffff1673ffffffffffffffffffffffffffffffffffffffff16815260200190815260200160002054905092915050565b60007fd9b67a26000000000000000000000000000000000000000000000000000000007bffffffffffffffffffffffffffffffffffffffffffffffffffffffff1916827bffffffffffffffffffffffffffffffffffffffffffffffffffffffff1916148061042957507f0e89341c000000000000000000000000000000000000000000000000000000007bffffffffffffffffffffffffffffffffffffffffffffffffffffffff1916827bffffffffffffffffffffffffffffffffffffffffffffffffffffffff1916145b80610439575061043882610c04565b5b9050919050565b61045d336003548360405180602001604052806000815250610c6e565b8160046000600354815260200190815260200160002090805190602001906104869291906119dc565b5060016003600082825461049a9190612b27565b925050819055505050565b60606004600083815260200190815260200160002080546104c590612c33565b80601f01602080910402602001604051908101604052809291908181526020018280546104f190612c33565b801561053e5780601f106105135761010080835404028352916020019161053e565b820191906000526020600020905b81548152906001019060200180831161052157829003601f168201915b50505050509050919050565b610552610e04565b73ffffffffffffffffffffffffffffffffffffffff168573ffffffffffffffffffffffffffffffffffffffff161480610598575061059785610592610e04565b610923565b5b6105d7576040517f08c379a00000000000000000000000000000000000000000000000000000000081526004016105ce906128a9565b60405180910390fd5b6105e48585858585610e0c565b5050505050565b60608151835114610631576040517f08c379a000000000000000000000000000000000000000000000000000000000815260040161062890612929565b60405180910390fd5b6000835167ffffffffffffffff811115610674577f4e487b7100000000000000000000000000000000000000000000000000000000600052604160045260246000fd5b6040519080825280602002602001820160405280156106a25781602001602082028036833780820191505090505b50905060005b84518110156107915761073b8582815181106106ed577f4e487b7100000000000000000000000000000000000000000000000000000000600052603260045260246000fd5b602002602001015185838151811061072e577f4e487b7100000000000000000000000000000000000000000000000000000000600052603260045260246000fd5b6020026020010151610295565b828281518110610774577f4e487b7100000000000000000000000000000000000000000000000000000000600052603260045260246000fd5b6020026020010181815250508061078a90612c65565b90506106a8565b508091505092915050565b6107a4610e04565b73ffffffffffffffffffffffffffffffffffffffff166107c26108d9565b73ffffffffffffffffffffffffffffffffffffffff1614610818576040517f08c379a000000000000000000000000000000000000000000000000000000000815260040161080f906128e9565b60405180910390fd5b600073ffffffffffffffffffffffffffffffffffffffff16600260009054906101000a900473ffffffffffffffffffffffffffffffffffffffff1673ffffffffffffffffffffffffffffffffffffffff167f8be0079c531659141344cd1fd0a4f28419497f9722a3daafe3b4186f6b6457e060405160405180910390a36000600260006101000a81548173ffffffffffffffffffffffffffffffffffffffff021916908373ffffffffffffffffffffffffffffffffffffffff160217905550565b6000600260009054906101000a900473ffffffffffffffffffffffffffffffffffffffff16905090565b6000600354905090565b61091f610918610e04565b838361116c565b5050565b6000600160008473ffffffffffffffffffffffffffffffffffffffff1673ffffffffffffffffffffffffffffffffffffffff16815260200190815260200160002060008373ffffffffffffffffffffffffffffffffffffffff1673ffffffffffffffffffffffffffffffffffffffff16815260200190815260200160002060009054906101000a900460ff16905092915050565b6109bf610e04565b73ffffffffffffffffffffffffffffffffffffffff168573ffffffffffffffffffffffffffffffffffffffff161480610a055750610a04856109ff610e04565b610923565b5b610a44576040517f08c379a0000000000000000000000000000000000000000000000000000000008152600401610a3b90612869565b60405180910390fd5b610a5185858585856112d9565b5050505050565b610a60610e04565b73ffffffffffffffffffffffffffffffffffffffff16610a7e6108d9565b73ffffffffffffffffffffffffffffffffffffffff1614610ad4576040517f08c379a0000000000000000000000000000000000000000000000000000000008152600401610acb906128e9565b60405180910390fd5b600073ffffffffffffffffffffffffffffffffffffffff168173ffffffffffffffffffffffffffffffffffffffff161415610b44576040517f08c379a0000000000000000000000000000000000000000000000000000000008152600401610b3b90612849565b60405180910390fd5b8073ffffffffffffffffffffffffffffffffffffffff16600260009054906101000a900473ffffffffffffffffffffffffffffffffffffffff1673ffffffffffffffffffffffffffffffffffffffff167f8be0079c531659141344cd1fd0a4f28419497f9722a3daafe3b4186f6b6457e060405160405180910390a380600260006101000a81548173ffffffffffffffffffffffffffffffffffffffff021916908373ffffffffffffffffffffffffffffffffffffffff16021790555050565b60007f01ffc9a7000000000000000000000000000000000000000000000000000000007bffffffffffffffffffffffffffffffffffffffffffffffffffffffff1916827bffffffffffffffffffffffffffffffffffffffffffffffffffffffff1916149050919050565b600073ffffffffffffffffffffffffffffffffffffffff168473ffffffffffffffffffffffffffffffffffffffff161415610cde576040517f08c379a0000000000000000000000000000000000000000000000000000000008152600401610cd590612969565b60405180910390fd5b6000610ce8610e04565b9050610d0981600087610cfa8861155b565b610d038861155b565b87611621565b8260008086815260200190815260200160002060008773ffffffffffffffffffffffffffffffffffffffff1673ffffffffffffffffffffffffffffffffffffffff1681526020019081526020016000206000828254610d689190612b27565b925050819055508473ffffffffffffffffffffffffffffffffffffffff16600073ffffffffffffffffffffffffffffffffffffffff168273ffffffffffffffffffffffffffffffffffffffff167fc3d58168c5ae7397731d063d5bbf3d657854427343f4c083240f7aacaa2d0f628787604051610de69291906129a4565b60405180910390a4610dfd81600087878787611629565b5050505050565b600033905090565b8151835114610e50576040517f08c379a0000000000000000000000000000000000000000000000000000000008152600401610e4790612949565b60405180910390fd5b600073ffffffffffffffffffffffffffffffffffffffff168473ffffffffffffffffffffffffffffffffffffffff161415610ec0576040517f08c379a0000000000000000000000000000000000000000000000000000000008152600401610eb790612889565b60405180910390fd5b6000610eca610e04565b9050610eda818787878787611621565b60005b84518110156110d7576000858281518110610f21577f4e487b7100000000000000000000000000000000000000000000000000000000600052603260045260246000fd5b602002602001015190506000858381518110610f66577f4e487b7100000000000000000000000000000000000000000000000000000000600052603260045260246000fd5b60200260200101519050600080600084815260200190815260200160002060008b73ffffffffffffffffffffffffffffffffffffffff1673ffffffffffffffffffffffffffffffffffffffff16815260200190815260200160002054905081811015611007576040517f08c379a0000000000000000000000000000000000000000000000000000000008152600401610ffe906128c9565b60405180910390fd5b81810360008085815260200190815260200160002060008c73ffffffffffffffffffffffffffffffffffffffff1673ffffffffffffffffffffffffffffffffffffffff168152602001908152602001600020819055508160008085815260200190815260200160002060008b73ffffffffffffffffffffffffffffffffffffffff1673ffffffffffffffffffffffffffffffffffffffff16815260200190815260200160002060008282546110bc9190612b27565b92505081905550505050806110d090612c65565b9050610edd565b508473ffffffffffffffffffffffffffffffffffffffff168673ffffffffffffffffffffffffffffffffffffffff168273ffffffffffffffffffffffffffffffffffffffff167f4a39dc06d4c0dbc64b70af90fd698a233a518aa5d07e595d983b8c0526c8f7fb878760405161114e929190612775565b60405180910390a46111648187878787876117f9565b505050505050565b8173ffffffffffffffffffffffffffffffffffffffff168373ffffffffffffffffffffffffffffffffffffffff1614156111db576040517f08c379a00000000000000000000000000000000000000000000000000000000081526004016111d290612909565b60405180910390fd5b80600160008573ffffffffffffffffffffffffffffffffffffffff1673ffffffffffffffffffffffffffffffffffffffff16815260200190815260200160002060008473ffffffffffffffffffffffffffffffffffffffff1673ffffffffffffffffffffffffffffffffffffffff16815260200190815260200160002060006101000a81548160ff0219169083151502179055508173ffffffffffffffffffffffffffffffffffffffff168373ffffffffffffffffffffffffffffffffffffffff167f17307eab39ab6107e8899845ad3d59bd9653f200f220920489ca2b5937696c31836040516112cc91906127ac565b60405180910390a3505050565b600073ffffffffffffffffffffffffffffffffffffffff168473ffffffffffffffffffffffffffffffffffffffff161415611349576040517f08c379a000000000000000000000000000000000000000000000000000000000815260040161134090612889565b60405180910390fd5b6000611353610e04565b90506113738187876113648861155b565b61136d8861155b565b87611621565b600080600086815260200190815260200160002060008873ffffffffffffffffffffffffffffffffffffffff1673ffffffffffffffffffffffffffffffffffffffff1681526020019081526020016000205490508381101561140a576040517f08c379a0000000000000000000000000000000000000000000000000000000008152600401611401906128c9565b60405180910390fd5b83810360008087815260200190815260200160002060008973ffffffffffffffffffffffffffffffffffffffff1673ffffffffffffffffffffffffffffffffffffffff168152602001908152602001600020819055508360008087815260200190815260200160002060008873ffffffffffffffffffffffffffffffffffffffff1673ffffffffffffffffffffffffffffffffffffffff16815260200190815260200160002060008282546114bf9190612b27565b925050819055508573ffffffffffffffffffffffffffffffffffffffff168773ffffffffffffffffffffffffffffffffffffffff168373ffffffffffffffffffffffffffffffffffffffff167fc3d58168c5ae7397731d063d5bbf3d657854427343f4c083240f7aacaa2d0f62888860405161153c9291906129a4565b60405180910390a4611552828888888888611629565b50505050505050565b60606000600167ffffffffffffffff8111156115a0577f4e487b7100000000000000000000000000000000000000000000000000000000600052604160045260246000fd5b6040519080825280602002602001820160405280156115ce5781602001602082028036833780820191505090505b509050828160008151811061160c577f4e487b7100000000000000000000000000000000000000000000000000000000600052603260045260246000fd5b60200260200101818152505080915050919050565b505050505050565b6116488473ffffffffffffffffffffffffffffffffffffffff166119c9565b156117f1578373ffffffffffffffffffffffffffffffffffffffff1663f23a6e6187878686866040518663ffffffff1660e01b815260040161168e9594939291906126f9565b602060405180830381600087803b1580156116a857600080fd5b505af19250505080156116d957506040513d601f19601f820116820180604052508101906116d69190611fa4565b60015b611768576116e5612d59565b806116f0575061172d565b806040517f08c379a000000000000000000000000000000000000000000000000000000000815260040161172491906127c7565b60405180910390fd5b6040517f08c379a000000000000000000000000000000000000000000000000000000000815260040161175f906127e9565b60405180910390fd5b63f23a6e6160e01b7bffffffffffffffffffffffffffffffffffffffffffffffffffffffff1916817bffffffffffffffffffffffffffffffffffffffffffffffffffffffff1916146117ef576040517f08c379a00000000000000000000000000000000000000000000000000000000081526004016117e690612809565b60405180910390fd5b505b505050505050565b6118188473ffffffffffffffffffffffffffffffffffffffff166119c9565b156119c1578373ffffffffffffffffffffffffffffffffffffffff1663bc197c8187878686866040518663ffffffff1660e01b815260040161185e959493929190612691565b602060405180830381600087803b15801561187857600080fd5b505af19250505080156118a957506040513d601f19601f820116820180604052508101906118a69190611fa4565b60015b611938576118b5612d59565b806118c057506118fd565b806040517f08c379a00000000000000000000000000000000000000000000000000000000081526004016118f491906127c7565b60405180910390fd5b6040517f08c379a000000000000000000000000000000000000000000000000000000000815260040161192f906127e9565b60405180910390fd5b63bc197c8160e01b7bffffffffffffffffffffffffffffffffffffffffffffffffffffffff1916817bffffffffffffffffffffffffffffffffffffffffffffffffffffffff1916146119bf576040517f08c379a00000000000000000000000000000000000000000000000000000000081526004016119b690612809565b60405180910390fd5b505b505050505050565b600080823b905060008111915050919050565b8280546119e890612c33565b90600052602060002090601f016020900481019282611a0a5760008555611a51565b82601f10611a2357805160ff1916838001178555611a51565b82800160010185558215611a51579182015b82811115611a50578251825591602001919060010190611a35565b5b509050611a5e9190611a62565b5090565b5b80821115611a7b576000816000905550600101611a63565b5090565b6000611a92611a8d846129fe565b6129cd565b90508083825260208201905082856020860282011115611ab157600080fd5b60005b85811015611ae15781611ac78882611bd3565b845260208401935060208301925050600181019050611ab4565b5050509392505050565b6000611afe611af984612a2a565b6129cd565b90508083825260208201905082856020860282011115611b1d57600080fd5b60005b85811015611b4d5781611b338882611ccf565b845260208401935060208301925050600181019050611b20565b5050509392505050565b6000611b6a611b6584612a56565b6129cd565b905082815260208101848484011115611b8257600080fd5b611b8d848285612bf1565b509392505050565b6000611ba8611ba384612a86565b6129cd565b905082815260208101848484011115611bc057600080fd5b611bcb848285612bf1565b509392505050565b600081359050611be281612e0f565b92915050565b600082601f830112611bf957600080fd5b8135611c09848260208601611a7f565b91505092915050565b600082601f830112611c2357600080fd5b8135611c33848260208601611aeb565b91505092915050565b600081359050611c4b81612e26565b92915050565b600081359050611c6081612e3d565b92915050565b600081519050611c7581612e3d565b92915050565b600082601f830112611c8c57600080fd5b8135611c9c848260208601611b57565b91505092915050565b600082601f830112611cb657600080fd5b8135611cc6848260208601611b95565b91505092915050565b600081359050611cde81612e54565b92915050565b600060208284031215611cf657600080fd5b6000611d0484828501611bd3565b91505092915050565b60008060408385031215611d2057600080fd5b6000611d2e85828601611bd3565b9250506020611d3f85828601611bd3565b9150509250929050565b600080600080600060a08688031215611d6157600080fd5b6000611d6f88828901611bd3565b9550506020611d8088828901611bd3565b945050604086013567ffffffffffffffff811115611d9d57600080fd5b611da988828901611c12565b935050606086013567ffffffffffffffff811115611dc657600080fd5b611dd288828901611c12565b925050608086013567ffffffffffffffff811115611def57600080fd5b611dfb88828901611c7b565b9150509295509295909350565b600080600080600060a08688031215611e2057600080fd5b6000611e2e88828901611bd3565b9550506020611e3f88828901611bd3565b9450506040611e5088828901611ccf565b9350506060611e6188828901611ccf565b925050608086013567ffffffffffffffff811115611e7e57600080fd5b611e8a88828901611c7b565b9150509295509295909350565b60008060408385031215611eaa57600080fd5b6000611eb885828601611bd3565b9250506020611ec985828601611c3c565b9150509250929050565b60008060408385031215611ee657600080fd5b6000611ef485828601611bd3565b9250506020611f0585828601611ccf565b9150509250929050565b60008060408385031215611f2257600080fd5b600083013567ffffffffffffffff811115611f3c57600080fd5b611f4885828601611be8565b925050602083013567ffffffffffffffff811115611f6557600080fd5b611f7185828601611c12565b9150509250929050565b600060208284031215611f8d57600080fd5b6000611f9b84828501611c51565b91505092915050565b600060208284031215611fb657600080fd5b6000611fc484828501611c66565b91505092915050565b60008060408385031215611fe057600080fd5b600083013567ffffffffffffffff811115611ffa57600080fd5b61200685828601611ca5565b925050602061201785828601611ccf565b9150509250929050565b60006020828403121561203357600080fd5b600061204184828501611ccf565b91505092915050565b60006120568383612658565b60208301905092915050565b61206b81612b7d565b82525050565b600061207c82612ac6565b6120868185612af4565b935061209183612ab6565b8060005b838110156120c25781516120a9888261204a565b97506120b483612ae7565b925050600181019050612095565b5085935050505092915050565b6120d881612b8f565b82525050565b60006120e982612ad1565b6120f38185612b05565b9350612103818560208601612c00565b61210c81612d3b565b840191505092915050565b600061212282612adc565b61212c8185612b16565b935061213c818560208601612c00565b61214581612d3b565b840191505092915050565b600061215d603483612b16565b91507f455243313135353a207472616e7366657220746f206e6f6e204552433131353560008301527f526563656976657220696d706c656d656e7465720000000000000000000000006020830152604082019050919050565b60006121c3602883612b16565b91507f455243313135353a204552433131353552656365697665722072656a6563746560008301527f6420746f6b656e730000000000000000000000000000000000000000000000006020830152604082019050919050565b6000612229602b83612b16565b91507f455243313135353a2062616c616e636520717565727920666f7220746865207a60008301527f65726f20616464726573730000000000000000000000000000000000000000006020830152604082019050919050565b600061228f602683612b16565b91507f4f776e61626c653a206e6577206f776e657220697320746865207a65726f206160008301527f64647265737300000000000000000000000000000000000000000000000000006020830152604082019050919050565b60006122f5602983612b16565b91507f455243313135353a2063616c6c6572206973206e6f74206f776e6572206e6f7260008301527f20617070726f76656400000000000000000000000000000000000000000000006020830152604082019050919050565b600061235b602583612b16565b91507f455243313135353a207472616e7366657220746f20746865207a65726f20616460008301527f64726573730000000000000000000000000000000000000000000000000000006020830152604082019050919050565b60006123c1603283612b16565b91507f455243313135353a207472616e736665722063616c6c6572206973206e6f742060008301527f6f776e6572206e6f7220617070726f76656400000000000000000000000000006020830152604082019050919050565b6000612427602a83612b16565b91507f455243313135353a20696e73756666696369656e742062616c616e636520666f60008301527f72207472616e73666572000000000000000000000000000000000000000000006020830152604082019050919050565b600061248d602083612b16565b91507f4f776e61626c653a2063616c6c6572206973206e6f7420746865206f776e65726000830152602082019050919050565b60006124cd602983612b16565b91507f455243313135353a2073657474696e6720617070726f76616c2073746174757360008301527f20666f722073656c6600000000000000000000000000000000000000000000006020830152604082019050919050565b6000612533602983612b16565b91507f455243313135353a206163636f756e747320616e6420696473206c656e67746860008301527f206d69736d6174636800000000000000000000000000000000000000000000006020830152604082019050919050565b6000612599602883612b16565b91507f455243313135353a2069647320616e6420616d6f756e7473206c656e6774682060008301527f6d69736d617463680000000000000000000000000000000000000000000000006020830152604082019050919050565b60006125ff602183612b16565b91507f455243313135353a206d696e7420746f20746865207a65726f2061646472657360008301527f73000000000000000000000000000000000000000000000000000000000000006020830152604082019050919050565b61266181612be7565b82525050565b61267081612be7565b82525050565b600060208201905061268b6000830184612062565b92915050565b600060a0820190506126a66000830188612062565b6126b36020830187612062565b81810360408301526126c58186612071565b905081810360608301526126d98185612071565b905081810360808301526126ed81846120de565b90509695505050505050565b600060a08201905061270e6000830188612062565b61271b6020830187612062565b6127286040830186612667565b6127356060830185612667565b818103608083015261274781846120de565b90509695505050505050565b6000602082019050818103600083015261276d8184612071565b905092915050565b6000604082019050818103600083015261278f8185612071565b905081810360208301526127a38184612071565b90509392505050565b60006020820190506127c160008301846120cf565b92915050565b600060208201905081810360008301526127e18184612117565b905092915050565b6000602082019050818103600083015261280281612150565b9050919050565b60006020820190508181036000830152612822816121b6565b9050919050565b600060208201905081810360008301526128428161221c565b9050919050565b6000602082019050818103600083015261286281612282565b9050919050565b60006020820190508181036000830152612882816122e8565b9050919050565b600060208201905081810360008301526128a28161234e565b9050919050565b600060208201905081810360008301526128c2816123b4565b9050919050565b600060208201905081810360008301526128e28161241a565b9050919050565b6000602082019050818103600083015261290281612480565b9050919050565b60006020820190508181036000830152612922816124c0565b9050919050565b6000602082019050818103600083015261294281612526565b9050919050565b600060208201905081810360008301526129628161258c565b9050919050565b60006020820190508181036000830152612982816125f2565b9050919050565b600060208201905061299e6000830184612667565b92915050565b60006040820190506129b96000830185612667565b6129c66020830184612667565b9392505050565b6000604051905081810181811067ffffffffffffffff821117156129f4576129f3612d0c565b5b8060405250919050565b600067ffffffffffffffff821115612a1957612a18612d0c565b5b602082029050602081019050919050565b600067ffffffffffffffff821115612a4557612a44612d0c565b5b602082029050602081019050919050565b600067ffffffffffffffff821115612a7157612a70612d0c565b5b601f19601f8301169050602081019050919050565b600067ffffffffffffffff821115612aa157612aa0612d0c565b5b601f19601f8301169050602081019050919050565b6000819050602082019050919050565b600081519050919050565b600081519050919050565b600081519050919050565b6000602082019050919050565b600082825260208201905092915050565b600082825260208201905092915050565b600082825260208201905092915050565b6000612b3282612be7565b9150612b3d83612be7565b9250827fffffffffffffffffffffffffffffffffffffffffffffffffffffffffffffffff03821115612b7257612b71612cae565b5b828201905092915050565b6000612b8882612bc7565b9050919050565b60008115159050919050565b60007fffffffff0000000000000000000000000000000000000000000000000000000082169050919050565b600073ffffffffffffffffffffffffffffffffffffffff82169050919050565b6000819050919050565b82818337600083830152505050565b60005b83811015612c1e578082015181840152602081019050612c03565b83811115612c2d576000848401525b50505050565b60006002820490506001821680612c4b57607f821691505b60208210811415612c5f57612c5e612cdd565b5b50919050565b6000612c7082612be7565b91507fffffffffffffffffffffffffffffffffffffffffffffffffffffffffffffffff821415612ca357612ca2612cae565b5b600182019050919050565b7f4e487b7100000000000000000000000000000000000000000000000000000000600052601160045260246000fd5b7f4e487b7100000000000000000000000000000000000000000000000000000000600052602260045260246000fd5b7f4e487b7100000000000000000000000000000000000000000000000000000000600052604160045260246000fd5b6000601f19601f8301169050919050565b60008160e01c9050919050565b600060443d1015612d6957612e0c565b60046000803e612d7a600051612d4c565b6308c379a08114612d8b5750612e0c565b60405160043d036004823e80513d602482011167ffffffffffffffff82111715612db757505050612e0c565b808201805167ffffffffffffffff811115612dd6575050505050612e0c565b8060208301013d8501811115612df157505050505050612e0c565b612dfa82612d3b565b60208401016040528296505050505050505b90565b612e1881612b7d565b8114612e2357600080fd5b50565b612e2f81612b8f565b8114612e3a57600080fd5b50565b612e4681612b9b565b8114612e5157600080fd5b50565b612e5d81612be7565b8114612e6857600080fd5b5056fea2646970667358221220d6e60db309fbe983c12735cbea3a36e28b8a2fcce3c0c894f7632c092784ff3564736f6c63430008000033",
  "immutableReferences": {},
  "source": "// SPDX-License-Identifier: MIT\r\n\r\npragma solidity ^0.8.0;\r\n\r\nimport \"./nft/ERC1155.sol\";\r\nimport \"./ownership/Ownable.sol\";\r\n\r\ncontract MonkeyMoonNFT is ERC1155, Ownable{\r\n\r\n    uint private _numTokens  = 0;\r\n    mapping(uint => string) private _tokenURIs;\r\n\r\n    constructor() ERC1155() Ownable(){\r\n    }\r\n\r\n    function mint(string memory uri_, uint amount) public {\r\n        _mint(msg.sender, _numTokens, amount, \"\");\r\n        _tokenURIs[_numTokens] = uri_;\r\n        _numTokens += 1;\r\n    }\r\n\r\n    function uri(uint256 tokenId) override public view returns (string memory) {        \r\n        return _tokenURIs[tokenId];\r\n    }\r\n\r\n    function numTokens() public view returns (uint) {\r\n        return _numTokens;\r\n    }\r\n}",
  "sourcePath": "C:\\Users\\pasca\\Documents\\web-dev\\monkeymoon-mobile-rework\\frontend\\src\\contracts\\MonkeyMoonNFT.sol",
  "compiler": {
    "name": "solc",
    "version": "0.8.0+commit.c7dfd78e.Emscripten.clang"
  },
  "schemaVersion": "3.4.4",
  "updatedAt": "2022-01-31T19:32:38.181Z",
  "networkType": "ethereum",
  "devdoc": {
    "kind": "dev",
    "methods": {
      "balanceOf(address,uint256)": {
        "details": "See {IERC1155-balanceOf}. Requirements: - `account` cannot be the zero address."
      },
      "balanceOfBatch(address[],uint256[])": {
        "details": "See {IERC1155-balanceOfBatch}. Requirements: - `accounts` and `ids` must have the same length."
      },
      "isApprovedForAll(address,address)": {
        "details": "See {IERC1155-isApprovedForAll}."
      },
      "owner()": {
        "details": "Returns the address of the current owner."
      },
      "renounceOwnership()": {
        "details": "Leaves the contract without owner. It will not be possible to call `onlyOwner` functions anymore. Can only be called by the current owner. NOTE: Renouncing ownership will leave the contract without an owner, thereby removing any functionality that is only available to the owner."
      },
      "safeBatchTransferFrom(address,address,uint256[],uint256[],bytes)": {
        "details": "See {IERC1155-safeBatchTransferFrom}."
      },
      "safeTransferFrom(address,address,uint256,uint256,bytes)": {
        "details": "See {IERC1155-safeTransferFrom}."
      },
      "setApprovalForAll(address,bool)": {
        "details": "See {IERC1155-setApprovalForAll}."
      },
      "supportsInterface(bytes4)": {
        "details": "See {IERC165-supportsInterface}."
      },
      "transferOwnership(address)": {
        "details": "Transfers ownership of the contract to a new account (`newOwner`). Can only be called by the current owner."
      }
    },
    "version": 1
  },
  "userdoc": {
    "kind": "user",
    "methods": {},
    "version": 1
  }
}