{
  "contractName": "Taxes",
  "abi": [
    {
      "inputs": [
        {
          "internalType": "address",
          "name": "tokenAddress",
          "type": "address"
        }
      ],
      "stateMutability": "nonpayable",
      "type": "constructor"
    },
    {
      "anonymous": false,
      "inputs": [
        {
          "indexed": true,
          "internalType": "address",
          "name": "previousOwner",
          "type": "address"
        },
        {
          "indexed": true,
          "internalType": "address",
          "name": "newOwner",
          "type": "address"
        }
      ],
      "name": "OwnershipTransferred",
      "type": "event"
    },
    {
      "inputs": [],
      "name": "owner",
      "outputs": [
        {
          "internalType": "address",
          "name": "",
          "type": "address"
        }
      ],
      "stateMutability": "view",
      "type": "function",
      "constant": true
    },
    {
      "inputs": [],
      "name": "renounceOwnership",
      "outputs": [],
      "stateMutability": "nonpayable",
      "type": "function"
    },
    {
      "inputs": [
        {
          "internalType": "address",
          "name": "newOwner",
          "type": "address"
        }
      ],
      "name": "transferOwnership",
      "outputs": [],
      "stateMutability": "nonpayable",
      "type": "function"
    },
    {
      "inputs": [
        {
          "internalType": "address",
          "name": "oldTaxesAddress",
          "type": "address"
        }
      ],
      "name": "setOldTaxesAddress",
      "outputs": [],
      "stateMutability": "nonpayable",
      "type": "function"
    },
    {
      "inputs": [
        {
          "internalType": "uint256",
          "name": "start",
          "type": "uint256"
        },
        {
          "internalType": "uint256",
          "name": "end",
          "type": "uint256"
        }
      ],
      "name": "getTaxrate",
      "outputs": [
        {
          "internalType": "uint256",
          "name": "",
          "type": "uint256"
        }
      ],
      "stateMutability": "view",
      "type": "function",
      "constant": true
    },
    {
      "inputs": [],
      "name": "getMonkeyPool",
      "outputs": [
        {
          "internalType": "uint256",
          "name": "",
          "type": "uint256"
        }
      ],
      "stateMutability": "view",
      "type": "function",
      "constant": true
    },
    {
      "inputs": [
        {
          "internalType": "uint256",
          "name": "amount",
          "type": "uint256"
        },
        {
          "internalType": "uint256",
          "name": "start",
          "type": "uint256"
        },
        {
          "internalType": "uint256",
          "name": "end",
          "type": "uint256"
        }
      ],
      "name": "taxTransaction",
      "outputs": [
        {
          "internalType": "uint256",
          "name": "",
          "type": "uint256"
        }
      ],
      "stateMutability": "nonpayable",
      "type": "function"
    },
    {
      "inputs": [
        {
          "internalType": "address",
          "name": "newAddress",
          "type": "address"
        }
      ],
      "name": "drainPools",
      "outputs": [],
      "stateMutability": "nonpayable",
      "type": "function"
    },
    {
      "inputs": [
        {
          "internalType": "uint256",
          "name": "monkeyPool",
          "type": "uint256"
        },
        {
          "internalType": "uint256",
          "name": "marketingPool",
          "type": "uint256"
        },
        {
          "internalType": "uint256",
          "name": "prizePool",
          "type": "uint256"
        }
      ],
      "name": "allocatePools",
      "outputs": [],
      "stateMutability": "nonpayable",
      "type": "function"
    }
  ],
  "bytecode": "0x60806040526028600455600a600555600a600855600a6009556050600a553480156200002a57600080fd5b50604051620011f5380380620011f5833981810160405281019062000050919062000167565b6000620000626200014860201b60201c565b9050806000806101000a81548173ffffffffffffffffffffffffffffffffffffffff021916908373ffffffffffffffffffffffffffffffffffffffff1602179055508073ffffffffffffffffffffffffffffffffffffffff16600073ffffffffffffffffffffffffffffffffffffffff167f8be0079c531659141344cd1fd0a4f28419497f9722a3daafe3b4186f6b6457e060405160405180910390a35080600660006101000a81548173ffffffffffffffffffffffffffffffffffffffff021916908373ffffffffffffffffffffffffffffffffffffffff16021790555050620001e1565b600033905090565b6000815190506200016181620001c7565b92915050565b6000602082840312156200017a57600080fd5b60006200018a8482850162000150565b91505092915050565b6000620001a082620001a7565b9050919050565b600073ffffffffffffffffffffffffffffffffffffffff82169050919050565b620001d28162000193565b8114620001de57600080fd5b50565b61100480620001f16000396000f3fe608060405234801561001057600080fd5b50600436106100935760003560e01c806382d72e8b1161006657806382d72e8b1461010c5780638418ac12146101285780638da5cb5b14610158578063b71b814d14610176578063f2fde38b1461019257610093565b80631a1620b2146100985780634f4c1c71146100b457806370c84cd4146100e4578063715018a614610102575b600080fd5b6100b260048036038101906100ad9190610ada565b6101ae565b005b6100ce60048036038101906100c99190610a9e565b6102ea565b6040516100db9190610d8e565b60405180910390f35b6100ec610373565b6040516100f99190610d8e565b60405180910390f35b61010a61037d565b005b61012660048036038101906101219190610a75565b6104b7565b005b610142600480360381019061013d9190610ada565b6105d7565b60405161014f9190610d8e565b60405180910390f35b6101606106b3565b60405161016d9190610cd3565b60405180910390f35b610190600480360381019061018b9190610a75565b6106dc565b005b6101ac60048036038101906101a79190610a75565b6107b0565b005b600760009054906101000a900473ffffffffffffffffffffffffffffffffffffffff1673ffffffffffffffffffffffffffffffffffffffff163373ffffffffffffffffffffffffffffffffffffffff161461023e576040517f08c379a000000000000000000000000000000000000000000000000000000000815260040161023590610d4e565b60405180910390fd5b600073ffffffffffffffffffffffffffffffffffffffff16600760009054906101000a900473ffffffffffffffffffffffffffffffffffffffff1673ffffffffffffffffffffffffffffffffffffffff1614156102d0576040517f08c379a00000000000000000000000000000000000000000000000000000000081526004016102c790610d6e565b60405180910390fd5b826001819055508160028190555080600381905550505050565b600042821180156102fa57504283105b1561036757600554606484846103109190610ed2565b6064428661031e9190610ed2565b6103289190610e78565b6103329190610e47565b6005546004546103429190610ed2565b61034c9190610e78565b6103569190610e47565b6103609190610df1565b905061036d565b60055490505b92915050565b6000600154905090565b610385610959565b73ffffffffffffffffffffffffffffffffffffffff166103a36106b3565b73ffffffffffffffffffffffffffffffffffffffff16146103f9576040517f08c379a00000000000000000000000000000000000000000000000000000000081526004016103f090610d2e565b60405180910390fd5b600073ffffffffffffffffffffffffffffffffffffffff1660008054906101000a900473ffffffffffffffffffffffffffffffffffffffff1673ffffffffffffffffffffffffffffffffffffffff167f8be0079c531659141344cd1fd0a4f28419497f9722a3daafe3b4186f6b6457e060405160405180910390a360008060006101000a81548173ffffffffffffffffffffffffffffffffffffffff021916908373ffffffffffffffffffffffffffffffffffffffff160217905550565b600660009054906101000a900473ffffffffffffffffffffffffffffffffffffffff1673ffffffffffffffffffffffffffffffffffffffff163373ffffffffffffffffffffffffffffffffffffffff1614610547576040517f08c379a000000000000000000000000000000000000000000000000000000000815260040161053e90610cee565b60405180910390fd5b8073ffffffffffffffffffffffffffffffffffffffff16631a1620b26001546002546003546040518463ffffffff1660e01b815260040161058a93929190610da9565b600060405180830381600087803b1580156105a457600080fd5b505af11580156105b8573d6000803e3d6000fd5b5050505060006001819055506000600281905550600060038190555050565b6000600660009054906101000a900473ffffffffffffffffffffffffffffffffffffffff1673ffffffffffffffffffffffffffffffffffffffff163373ffffffffffffffffffffffffffffffffffffffff1614610669576040517f08c379a000000000000000000000000000000000000000000000000000000000815260040161066090610cee565b60405180910390fd5b600061067584846102ea565b905061069d606461068f838861096190919063ffffffff16565b61097790919063ffffffff16565b90506106a88161098d565b809150509392505050565b60008060009054906101000a900473ffffffffffffffffffffffffffffffffffffffff16905090565b600660009054906101000a900473ffffffffffffffffffffffffffffffffffffffff1673ffffffffffffffffffffffffffffffffffffffff163373ffffffffffffffffffffffffffffffffffffffff161461076c576040517f08c379a000000000000000000000000000000000000000000000000000000000815260040161076390610cee565b60405180910390fd5b80600760006101000a81548173ffffffffffffffffffffffffffffffffffffffff021916908373ffffffffffffffffffffffffffffffffffffffff16021790555050565b6107b8610959565b73ffffffffffffffffffffffffffffffffffffffff166107d66106b3565b73ffffffffffffffffffffffffffffffffffffffff161461082c576040517f08c379a000000000000000000000000000000000000000000000000000000000815260040161082390610d2e565b60405180910390fd5b600073ffffffffffffffffffffffffffffffffffffffff168173ffffffffffffffffffffffffffffffffffffffff16141561089c576040517f08c379a000000000000000000000000000000000000000000000000000000000815260040161089390610d0e565b60405180910390fd5b8073ffffffffffffffffffffffffffffffffffffffff1660008054906101000a900473ffffffffffffffffffffffffffffffffffffffff1673ffffffffffffffffffffffffffffffffffffffff167f8be0079c531659141344cd1fd0a4f28419497f9722a3daafe3b4186f6b6457e060405160405180910390a3806000806101000a81548173ffffffffffffffffffffffffffffffffffffffff021916908373ffffffffffffffffffffffffffffffffffffffff16021790555050565b600033905090565b6000818361096f9190610e78565b905092915050565b600081836109859190610e47565b905092915050565b600060646008548361099f9190610e78565b6109a99190610e47565b905060006064600954846109bd9190610e78565b6109c79190610e47565b90506109f48183856109d99190610ed2565b6109e39190610ed2565b600154610a3590919063ffffffff16565b600181905550610a0f82600254610a3590919063ffffffff16565b600281905550610a2a81600354610a3590919063ffffffff16565b600381905550505050565b60008183610a439190610df1565b905092915050565b600081359050610a5a81610fa0565b92915050565b600081359050610a6f81610fb7565b92915050565b600060208284031215610a8757600080fd5b6000610a9584828501610a4b565b91505092915050565b60008060408385031215610ab157600080fd5b6000610abf85828601610a60565b9250506020610ad085828601610a60565b9150509250929050565b600080600060608486031215610aef57600080fd5b6000610afd86828701610a60565b9350506020610b0e86828701610a60565b9250506040610b1f86828701610a60565b9150509250925092565b610b3281610f06565b82525050565b6000610b45602583610de0565b91507f4d6f6e6b65792043616c6c3a2043616c6c6572206973206e6f7420746865206d60008301527f6f6e6b65790000000000000000000000000000000000000000000000000000006020830152604082019050919050565b6000610bab602683610de0565b91507f4f776e61626c653a206e6577206f776e657220697320746865207a65726f206160008301527f64647265737300000000000000000000000000000000000000000000000000006020830152604082019050919050565b6000610c11602083610de0565b91507f4f776e61626c653a2063616c6c6572206973206e6f7420746865206f776e65726000830152602082019050919050565b6000610c51602083610de0565b91507f53656e646572206973206e6f7420746865206f6c64207461782073797374656d6000830152602082019050919050565b6000610c91601683610de0565b91507f53656e646572206973207a65726f2061646472657373000000000000000000006000830152602082019050919050565b610ccd81610f38565b82525050565b6000602082019050610ce86000830184610b29565b92915050565b60006020820190508181036000830152610d0781610b38565b9050919050565b60006020820190508181036000830152610d2781610b9e565b9050919050565b60006020820190508181036000830152610d4781610c04565b9050919050565b60006020820190508181036000830152610d6781610c44565b9050919050565b60006020820190508181036000830152610d8781610c84565b9050919050565b6000602082019050610da36000830184610cc4565b92915050565b6000606082019050610dbe6000830186610cc4565b610dcb6020830185610cc4565b610dd86040830184610cc4565b949350505050565b600082825260208201905092915050565b6000610dfc82610f38565b9150610e0783610f38565b9250827fffffffffffffffffffffffffffffffffffffffffffffffffffffffffffffffff03821115610e3c57610e3b610f42565b5b828201905092915050565b6000610e5282610f38565b9150610e5d83610f38565b925082610e6d57610e6c610f71565b5b828204905092915050565b6000610e8382610f38565b9150610e8e83610f38565b9250817fffffffffffffffffffffffffffffffffffffffffffffffffffffffffffffffff0483118215151615610ec757610ec6610f42565b5b828202905092915050565b6000610edd82610f38565b9150610ee883610f38565b925082821015610efb57610efa610f42565b5b828203905092915050565b6000610f1182610f18565b9050919050565b600073ffffffffffffffffffffffffffffffffffffffff82169050919050565b6000819050919050565b7f4e487b7100000000000000000000000000000000000000000000000000000000600052601160045260246000fd5b7f4e487b7100000000000000000000000000000000000000000000000000000000600052601260045260246000fd5b610fa981610f06565b8114610fb457600080fd5b50565b610fc081610f38565b8114610fcb57600080fd5b5056fea26469706673582212201f858a6e3bfb9a5e0f43f77738fc81b9a17f95042d822f5171cba82a0e96906c64736f6c63430008000033",
  "immutableReferences": {},
  "source": "// SPDX-License-Identifier: MIT\r\npragma solidity ^0.8.0;\r\n\r\nimport \"./math/SafeMath.sol\";\r\nimport \"./ITaxes.sol\";\r\nimport \"./ownership/Ownable.sol\";\r\n\r\ncontract Taxes is ITaxes, Ownable{\r\n    using SafeMath for uint256;\r\n\r\n    uint256 private _monkeyPool;\r\n    uint256 private _marketingPool;\r\n    uint256 private _prizePool;\r\n\r\n    uint256 private _startTax = 40;\r\n    uint256 private _baseTax = 10;    \r\n\r\n    address private _tokenAddress; \r\n    address private _oldTaxesAddress;     \r\n\r\n    uint256 private _marketingTax = 10;\r\n    uint256 private _prizeTax = 10;\r\n    uint256 private _poolTax = 80;\r\n\r\n    modifier onlyMonkey() {\r\n        require(msg.sender == _tokenAddress, \"Monkey Call: Caller is not the monkey\");\r\n        _;\r\n    }\r\n\r\n    constructor(address tokenAddress) {\r\n        _tokenAddress = tokenAddress;\r\n    }\r\n\r\n    function setOldTaxesAddress(address oldTaxesAddress) public override onlyMonkey {\r\n        _oldTaxesAddress = oldTaxesAddress;\r\n    }\r\n\r\n    function getTaxrate(uint256 start, uint256 end) public view override returns(uint256) {\r\n        if(end > block.timestamp && start < block.timestamp){\r\n            return ((_startTax - _baseTax) * ((end - block.timestamp)*100 / (end - start))) / 100 + _baseTax;            \r\n        }\r\n        \r\n        return _baseTax;   \r\n    }\r\n\r\n    function getMonkeyPool() public view override returns(uint256) {\r\n        return _monkeyPool;\r\n    }\r\n\r\n    function taxTransaction(uint256 amount, uint256 start, uint256 end) public override onlyMonkey returns(uint256) { \r\n        uint256 value = getTaxrate(start, end);\r\n        value = amount.mul(value).div(100);\r\n        _addTaxesToPool(value);\r\n        return value;\r\n    }\r\n\r\n    function _addTaxesToPool(uint256 value) internal {\r\n        uint256 marketing = (value * _marketingTax) / 100;\r\n        uint256 prize = (value * _prizeTax) / 100;\r\n        \r\n        _monkeyPool = _monkeyPool.add(value - marketing - prize);\r\n        _marketingPool = _marketingPool.add(marketing);\r\n        _prizePool = _prizePool.add(prize);\r\n    }\r\n\r\n    function drainPools(address newAddress) public override onlyMonkey {\r\n        ITaxes(newAddress).allocatePools(_monkeyPool, _marketingPool, _prizePool);\r\n        _monkeyPool = 0;\r\n        _marketingPool = 0;\r\n        _prizePool = 0;\r\n    }\r\n\r\n    function allocatePools(uint256 monkeyPool, uint256 marketingPool, uint256 prizePool) public override {\r\n        require(msg.sender == _oldTaxesAddress, \"Sender is not the old tax system\");\r\n        require(_oldTaxesAddress != address(0), \"Sender is zero address\");\r\n\r\n        _monkeyPool = monkeyPool;\r\n        _marketingPool = marketingPool;\r\n        _prizePool = prizePool;\r\n    }\r\n}",
  "sourcePath": "C:\\Users\\pasca\\Documents\\web-dev\\monkeymoon-mobile-rework\\frontend\\src\\contracts\\Taxes.sol",
  "compiler": {
    "name": "solc",
    "version": "0.8.0+commit.c7dfd78e.Emscripten.clang"
  },
  "schemaVersion": "3.4.4",
  "updatedAt": "2022-01-31T19:32:38.170Z",
  "networkType": "ethereum",
  "devdoc": {
    "kind": "dev",
    "methods": {
      "owner()": {
        "details": "Returns the address of the current owner."
      },
      "renounceOwnership()": {
        "details": "Leaves the contract without owner. It will not be possible to call `onlyOwner` functions anymore. Can only be called by the current owner. NOTE: Renouncing ownership will leave the contract without an owner, thereby removing any functionality that is only available to the owner."
      },
      "transferOwnership(address)": {
        "details": "Transfers ownership of the contract to a new account (`newOwner`). Can only be called by the current owner."
      }
    },
    "version": 1
  },
  "userdoc": {
    "kind": "user",
    "methods": {},
    "version": 1
  }
}